{
	"contracts/voting.sol": {
		"voteing": {
			"abi": [
				{
					"inputs": [],
					"stateMutability": "nonpayable",
					"type": "constructor"
				},
				{
					"inputs": [
						{
							"internalType": "address",
							"name": "",
							"type": "address"
						}
					],
					"name": "CanVoted",
					"outputs": [
						{
							"internalType": "bool",
							"name": "",
							"type": "bool"
						}
					],
					"stateMutability": "view",
					"type": "function"
				},
				{
					"inputs": [
						{
							"internalType": "uint256",
							"name": "_id",
							"type": "uint256"
						},
						{
							"internalType": "string",
							"name": "_proposals",
							"type": "string"
						},
						{
							"internalType": "address",
							"name": "_address",
							"type": "address"
						}
					],
					"name": "addProposal",
					"outputs": [],
					"stateMutability": "nonpayable",
					"type": "function"
				},
				{
					"inputs": [],
					"name": "getAllProposals",
					"outputs": [
						{
							"components": [
								{
									"internalType": "uint256",
									"name": "id",
									"type": "uint256"
								},
								{
									"internalType": "string",
									"name": "proposal",
									"type": "string"
								},
								{
									"internalType": "address",
									"name": "Address",
									"type": "address"
								}
							],
							"internalType": "struct voteing.Proposal[]",
							"name": "",
							"type": "tuple[]"
						}
					],
					"stateMutability": "view",
					"type": "function"
				},
				{
					"inputs": [
						{
							"internalType": "uint256",
							"name": "proposalId",
							"type": "uint256"
						}
					],
					"name": "getProposal",
					"outputs": [
						{
							"components": [
								{
									"internalType": "uint256",
									"name": "id",
									"type": "uint256"
								},
								{
									"internalType": "string",
									"name": "proposal",
									"type": "string"
								},
								{
									"internalType": "address",
									"name": "Address",
									"type": "address"
								}
							],
							"internalType": "struct voteing.Proposal",
							"name": "",
							"type": "tuple"
						}
					],
					"stateMutability": "view",
					"type": "function"
				},
				{
					"inputs": [
						{
							"internalType": "uint256",
							"name": "proposal",
							"type": "uint256"
						}
					],
					"name": "getVotes",
					"outputs": [
						{
							"internalType": "uint256",
							"name": "",
							"type": "uint256"
						}
					],
					"stateMutability": "view",
					"type": "function"
				},
				{
					"inputs": [],
					"name": "getWinner",
					"outputs": [],
					"stateMutability": "nonpayable",
					"type": "function"
				},
				{
					"inputs": [
						{
							"internalType": "address",
							"name": "user",
							"type": "address"
						}
					],
					"name": "hasVoted",
					"outputs": [
						{
							"internalType": "bool",
							"name": "",
							"type": "bool"
						}
					],
					"stateMutability": "view",
					"type": "function"
				},
				{
					"inputs": [
						{
							"internalType": "address",
							"name": "Proposal",
							"type": "address"
						}
					],
					"name": "numofProposal",
					"outputs": [
						{
							"internalType": "uint256",
							"name": "Proposaladdress",
							"type": "uint256"
						}
					],
					"stateMutability": "view",
					"type": "function"
				},
				{
					"inputs": [],
					"name": "owner",
					"outputs": [
						{
							"internalType": "address",
							"name": "",
							"type": "address"
						}
					],
					"stateMutability": "view",
					"type": "function"
				},
				{
					"inputs": [],
					"name": "proposalCount",
					"outputs": [
						{
							"internalType": "uint256",
							"name": "",
							"type": "uint256"
						}
					],
					"stateMutability": "view",
					"type": "function"
				},
				{
					"inputs": [
						{
							"internalType": "uint256",
							"name": "",
							"type": "uint256"
						}
					],
					"name": "proposalVotes",
					"outputs": [
						{
							"internalType": "uint256",
							"name": "",
							"type": "uint256"
						}
					],
					"stateMutability": "view",
					"type": "function"
				},
				{
					"inputs": [
						{
							"internalType": "uint256",
							"name": "",
							"type": "uint256"
						}
					],
					"name": "proposals",
					"outputs": [
						{
							"internalType": "uint256",
							"name": "id",
							"type": "uint256"
						},
						{
							"internalType": "string",
							"name": "proposal",
							"type": "string"
						},
						{
							"internalType": "address",
							"name": "Address",
							"type": "address"
						}
					],
					"stateMutability": "view",
					"type": "function"
				},
				{
					"inputs": [
						{
							"internalType": "uint256",
							"name": "proposal",
							"type": "uint256"
						}
					],
					"name": "vote",
					"outputs": [],
					"stateMutability": "nonpayable",
					"type": "function"
				},
				{
					"inputs": [
						{
							"internalType": "uint256",
							"name": "",
							"type": "uint256"
						}
					],
					"name": "votesCount",
					"outputs": [
						{
							"internalType": "uint256",
							"name": "",
							"type": "uint256"
						}
					],
					"stateMutability": "view",
					"type": "function"
				}
			],
			"devdoc": {
				"kind": "dev",
				"methods": {},
				"version": 1
			},
			"evm": {
				"assembly": "    /* \"contracts/voting.sol\":59:1701  contract voteing{... */\n  mstore(0x40, 0x80)\n    /* \"contracts/voting.sol\":268:319  constructor() {... */\n  callvalue\n  dup1\n  iszero\n  tag_1\n  jumpi\n  revert(0x00, 0x00)\ntag_1:\n  pop\n    /* \"contracts/voting.sol\":301:311  msg.sender */\n  caller\n    /* \"contracts/voting.sol\":293:298  owner */\n  0x02\n  0x00\n    /* \"contracts/voting.sol\":293:311  owner = msg.sender */\n  0x0100\n  exp\n  dup2\n  sload\n  dup2\n  0xffffffffffffffffffffffffffffffffffffffff\n  mul\n  not\n  and\n  swap1\n  dup4\n  0xffffffffffffffffffffffffffffffffffffffff\n  and\n  mul\n  or\n  swap1\n  sstore\n  pop\n    /* \"contracts/voting.sol\":59:1701  contract voteing{... */\n  dataSize(sub_0)\n  dup1\n  dataOffset(sub_0)\n  0x00\n  codecopy\n  0x00\n  return\nstop\n\nsub_0: assembly {\n        /* \"contracts/voting.sol\":59:1701  contract voteing{... */\n      mstore(0x40, 0x80)\n      callvalue\n      dup1\n      iszero\n      tag_1\n      jumpi\n      revert(0x00, 0x00)\n    tag_1:\n      pop\n      jumpi(tag_2, lt(calldatasize, 0x04))\n      shr(0xe0, calldataload(0x00))\n      dup1\n      0x8da5cb5b\n      gt\n      tag_17\n      jumpi\n      dup1\n      0xcceb68f5\n      gt\n      tag_18\n      jumpi\n      dup1\n      0xcceb68f5\n      eq\n      tag_13\n      jumpi\n      dup1\n      0xda35c664\n      eq\n      tag_14\n      jumpi\n      dup1\n      0xfad35844\n      eq\n      tag_15\n      jumpi\n      dup1\n      0xff981099\n      eq\n      tag_16\n      jumpi\n      jump(tag_2)\n    tag_18:\n      dup1\n      0x8da5cb5b\n      eq\n      tag_10\n      jumpi\n      dup1\n      0x8e7ea5b2\n      eq\n      tag_11\n      jumpi\n      dup1\n      0xc7f758a8\n      eq\n      tag_12\n      jumpi\n      jump(tag_2)\n    tag_17:\n      dup1\n      0x50a6491a\n      gt\n      tag_19\n      jumpi\n      dup1\n      0x50a6491a\n      eq\n      tag_6\n      jumpi\n      dup1\n      0x544ffc9c\n      eq\n      tag_7\n      jumpi\n      dup1\n      0x5a4e7b72\n      eq\n      tag_8\n      jumpi\n      dup1\n      0x7d9d4255\n      eq\n      tag_9\n      jumpi\n      jump(tag_2)\n    tag_19:\n      dup1\n      0x0121b93f\n      eq\n      tag_3\n      jumpi\n      dup1\n      0x013cf08b\n      eq\n      tag_4\n      jumpi\n      dup1\n      0x09eef43e\n      eq\n      tag_5\n      jumpi\n    tag_2:\n      revert(0x00, 0x00)\n        /* \"contracts/voting.sol\":649:811  function vote(uint256 proposal) public {... */\n    tag_3:\n      tag_20\n      0x04\n      dup1\n      calldatasize\n      sub\n      dup2\n      add\n      swap1\n      tag_21\n      swap2\n      swap1\n      tag_22\n      jump\t// in\n    tag_21:\n      tag_23\n      jump\t// in\n    tag_20:\n      stop\n        /* \"contracts/voting.sol\":162:189  Proposal[] public proposals */\n    tag_4:\n      tag_24\n      0x04\n      dup1\n      calldatasize\n      sub\n      dup2\n      add\n      swap1\n      tag_25\n      swap2\n      swap1\n      tag_22\n      jump\t// in\n    tag_25:\n      tag_26\n      jump\t// in\n    tag_24:\n      mload(0x40)\n      tag_27\n      swap4\n      swap3\n      swap2\n      swap1\n      tag_28\n      jump\t// in\n    tag_27:\n      mload(0x40)\n      dup1\n      swap2\n      sub\n      swap1\n      return\n        /* \"contracts/voting.sol\":1067:1158  function hasVoted(address user) public view returns (bool) {... */\n    tag_5:\n      tag_29\n      0x04\n      dup1\n      calldatasize\n      sub\n      dup2\n      add\n      swap1\n      tag_30\n      swap2\n      swap1\n      tag_31\n      jump\t// in\n    tag_30:\n      tag_32\n      jump\t// in\n    tag_29:\n      mload(0x40)\n      tag_33\n      swap2\n      swap1\n      tag_34\n      jump\t// in\n    tag_33:\n      mload(0x40)\n      dup1\n      swap2\n      sub\n      swap1\n      return\n        /* \"contracts/voting.sol\":813:858  mapping(uint256 => uint256) public votesCount */\n    tag_6:\n      tag_35\n      0x04\n      dup1\n      calldatasize\n      sub\n      dup2\n      add\n      swap1\n      tag_36\n      swap2\n      swap1\n      tag_22\n      jump\t// in\n    tag_36:\n      tag_37\n      jump\t// in\n    tag_35:\n      mload(0x40)\n      tag_38\n      swap2\n      swap1\n      tag_39\n      jump\t// in\n    tag_38:\n      mload(0x40)\n      dup1\n      swap2\n      sub\n      swap1\n      return\n        /* \"contracts/voting.sol\":596:644  mapping(uint256 => uint256) public proposalVotes */\n    tag_7:\n      tag_40\n      0x04\n      dup1\n      calldatasize\n      sub\n      dup2\n      add\n      swap1\n      tag_41\n      swap2\n      swap1\n      tag_22\n      jump\t// in\n    tag_41:\n      tag_42\n      jump\t// in\n    tag_40:\n      mload(0x40)\n      tag_43\n      swap2\n      swap1\n      tag_39\n      jump\t// in\n    tag_43:\n      mload(0x40)\n      dup1\n      swap2\n      sub\n      swap1\n      return\n        /* \"contracts/voting.sol\":195:235  mapping(address => bool) public CanVoted */\n    tag_8:\n      tag_44\n      0x04\n      dup1\n      calldatasize\n      sub\n      dup2\n      add\n      swap1\n      tag_45\n      swap2\n      swap1\n      tag_31\n      jump\t// in\n    tag_45:\n      tag_46\n      jump\t// in\n    tag_44:\n      mload(0x40)\n      tag_47\n      swap2\n      swap1\n      tag_34\n      jump\t// in\n    tag_47:\n      mload(0x40)\n      dup1\n      swap2\n      sub\n      swap1\n      return\n        /* \"contracts/voting.sol\":1253:1326  mapping (address Proposal=> uint256 Proposaladdress) public numofProposal */\n    tag_9:\n      tag_48\n      0x04\n      dup1\n      calldatasize\n      sub\n      dup2\n      add\n      swap1\n      tag_49\n      swap2\n      swap1\n      tag_31\n      jump\t// in\n    tag_49:\n      tag_50\n      jump\t// in\n    tag_48:\n      mload(0x40)\n      tag_51\n      swap2\n      swap1\n      tag_39\n      jump\t// in\n    tag_51:\n      mload(0x40)\n      dup1\n      swap2\n      sub\n      swap1\n      return\n        /* \"contracts/voting.sol\":241:261  address public owner */\n    tag_10:\n      tag_52\n      tag_53\n      jump\t// in\n    tag_52:\n      mload(0x40)\n      tag_54\n      swap2\n      swap1\n      tag_55\n      jump\t// in\n    tag_54:\n      mload(0x40)\n      dup1\n      swap2\n      sub\n      swap1\n      return\n        /* \"contracts/voting.sol\":1331:1574  function getWinner() public {... */\n    tag_11:\n      tag_56\n      tag_57\n      jump\t// in\n    tag_56:\n      stop\n        /* \"contracts/voting.sol\":1576:1694  function getProposal(uint256 proposalId) public view returns (Proposal memory) {... */\n    tag_12:\n      tag_58\n      0x04\n      dup1\n      calldatasize\n      sub\n      dup2\n      add\n      swap1\n      tag_59\n      swap2\n      swap1\n      tag_22\n      jump\t// in\n    tag_59:\n      tag_60\n      jump\t// in\n    tag_58:\n      mload(0x40)\n      tag_61\n      swap2\n      swap1\n      tag_62\n      jump\t// in\n    tag_61:\n      mload(0x40)\n      dup1\n      swap2\n      sub\n      swap1\n      return\n        /* \"contracts/voting.sol\":967:1061  function getAllProposals() public view returns (Proposal[] memory) {... */\n    tag_13:\n      tag_63\n      tag_64\n      jump\t// in\n    tag_63:\n      mload(0x40)\n      tag_65\n      swap2\n      swap1\n      tag_66\n      jump\t// in\n    tag_65:\n      mload(0x40)\n      dup1\n      swap2\n      sub\n      swap1\n      return\n        /* \"contracts/voting.sol\":1162:1251  function proposalCount() public view returns (uint256) {... */\n    tag_14:\n      tag_67\n      tag_68\n      jump\t// in\n    tag_67:\n      mload(0x40)\n      tag_69\n      swap2\n      swap1\n      tag_39\n      jump\t// in\n    tag_69:\n      mload(0x40)\n      dup1\n      swap2\n      sub\n      swap1\n      return\n        /* \"contracts/voting.sol\":433:589  function addProposal(uint256 _id, string memory _proposals, address _address) public OnlyOwner {... */\n    tag_15:\n      tag_70\n      0x04\n      dup1\n      calldatasize\n      sub\n      dup2\n      add\n      swap1\n      tag_71\n      swap2\n      swap1\n      tag_72\n      jump\t// in\n    tag_71:\n      tag_73\n      jump\t// in\n    tag_70:\n      stop\n        /* \"contracts/voting.sol\":861:965  function getVotes(uint256 proposal) public view returns (uint256) {... */\n    tag_16:\n      tag_74\n      0x04\n      dup1\n      calldatasize\n      sub\n      dup2\n      add\n      swap1\n      tag_75\n      swap2\n      swap1\n      tag_22\n      jump\t// in\n    tag_75:\n      tag_76\n      jump\t// in\n    tag_74:\n      mload(0x40)\n      tag_77\n      swap2\n      swap1\n      tag_39\n      jump\t// in\n    tag_77:\n      mload(0x40)\n      dup1\n      swap2\n      sub\n      swap1\n      return\n        /* \"contracts/voting.sol\":649:811  function vote(uint256 proposal) public {... */\n    tag_23:\n        /* \"contracts/voting.sol\":703:711  CanVoted */\n      0x01\n        /* \"contracts/voting.sol\":703:723  CanVoted[msg.sender] */\n      0x00\n        /* \"contracts/voting.sol\":712:722  msg.sender */\n      caller\n        /* \"contracts/voting.sol\":703:723  CanVoted[msg.sender] */\n      0xffffffffffffffffffffffffffffffffffffffff\n      and\n      0xffffffffffffffffffffffffffffffffffffffff\n      and\n      dup2\n      mstore\n      0x20\n      add\n      swap1\n      dup2\n      mstore\n      0x20\n      add\n      0x00\n      keccak256\n      0x00\n      swap1\n      sload\n      swap1\n      0x0100\n      exp\n      swap1\n      div\n      0xff\n      and\n        /* \"contracts/voting.sol\":695:741  require(CanVoted[msg.sender], \"Already voted\") */\n      tag_79\n      jumpi\n      mload(0x40)\n      0x08c379a000000000000000000000000000000000000000000000000000000000\n      dup2\n      mstore\n      0x04\n      add\n      tag_80\n      swap1\n      tag_81\n      jump\t// in\n    tag_80:\n      mload(0x40)\n      dup1\n      swap2\n      sub\n      swap1\n      revert\n    tag_79:\n        /* \"contracts/voting.sol\":771:775  true */\n      0x01\n        /* \"contracts/voting.sol\":748:756  CanVoted */\n      dup1\n        /* \"contracts/voting.sol\":748:768  CanVoted[msg.sender] */\n      0x00\n        /* \"contracts/voting.sol\":757:767  msg.sender */\n      caller\n        /* \"contracts/voting.sol\":748:768  CanVoted[msg.sender] */\n      0xffffffffffffffffffffffffffffffffffffffff\n      and\n      0xffffffffffffffffffffffffffffffffffffffff\n      and\n      dup2\n      mstore\n      0x20\n      add\n      swap1\n      dup2\n      mstore\n      0x20\n      add\n      0x00\n      keccak256\n      0x00\n        /* \"contracts/voting.sol\":748:775  CanVoted[msg.sender] = true */\n      0x0100\n      exp\n      dup2\n      sload\n      dup2\n      0xff\n      mul\n      not\n      and\n      swap1\n      dup4\n      iszero\n      iszero\n      mul\n      or\n      swap1\n      sstore\n      pop\n        /* \"contracts/voting.sol\":782:795  proposalVotes */\n      0x03\n        /* \"contracts/voting.sol\":782:805  proposalVotes[proposal] */\n      0x00\n        /* \"contracts/voting.sol\":796:804  proposal */\n      dup3\n        /* \"contracts/voting.sol\":782:805  proposalVotes[proposal] */\n      dup2\n      mstore\n      0x20\n      add\n      swap1\n      dup2\n      mstore\n      0x20\n      add\n      0x00\n      keccak256\n      0x00\n        /* \"contracts/voting.sol\":782:807  proposalVotes[proposal]++ */\n      dup2\n      sload\n      dup1\n      swap3\n      swap2\n      swap1\n      tag_82\n      swap1\n      tag_83\n      jump\t// in\n    tag_82:\n      swap2\n      swap1\n      pop\n      sstore\n      pop\n        /* \"contracts/voting.sol\":649:811  function vote(uint256 proposal) public {... */\n      pop\n      jump\t// out\n        /* \"contracts/voting.sol\":162:189  Proposal[] public proposals */\n    tag_26:\n      0x00\n      dup2\n      dup2\n      sload\n      dup2\n      lt\n      tag_84\n      jumpi\n      0x00\n      dup1\n      revert\n    tag_84:\n      swap1\n      0x00\n      mstore\n      keccak256(0x00, 0x20)\n      swap1\n      0x03\n      mul\n      add\n      0x00\n      swap2\n      pop\n      swap1\n      pop\n      dup1\n      0x00\n      add\n      sload\n      swap1\n      dup1\n      0x01\n      add\n      dup1\n      sload\n      tag_86\n      swap1\n      tag_87\n      jump\t// in\n    tag_86:\n      dup1\n      0x1f\n      add\n      0x20\n      dup1\n      swap2\n      div\n      mul\n      0x20\n      add\n      mload(0x40)\n      swap1\n      dup2\n      add\n      0x40\n      mstore\n      dup1\n      swap3\n      swap2\n      swap1\n      dup2\n      dup2\n      mstore\n      0x20\n      add\n      dup3\n      dup1\n      sload\n      tag_88\n      swap1\n      tag_87\n      jump\t// in\n    tag_88:\n      dup1\n      iszero\n      tag_89\n      jumpi\n      dup1\n      0x1f\n      lt\n      tag_90\n      jumpi\n      0x0100\n      dup1\n      dup4\n      sload\n      div\n      mul\n      dup4\n      mstore\n      swap2\n      0x20\n      add\n      swap2\n      jump(tag_89)\n    tag_90:\n      dup3\n      add\n      swap2\n      swap1\n      0x00\n      mstore\n      keccak256(0x00, 0x20)\n      swap1\n    tag_91:\n      dup2\n      sload\n      dup2\n      mstore\n      swap1\n      0x01\n      add\n      swap1\n      0x20\n      add\n      dup1\n      dup4\n      gt\n      tag_91\n      jumpi\n      dup3\n      swap1\n      sub\n      0x1f\n      and\n      dup3\n      add\n      swap2\n    tag_89:\n      pop\n      pop\n      pop\n      pop\n      pop\n      swap1\n      dup1\n      0x02\n      add\n      0x00\n      swap1\n      sload\n      swap1\n      0x0100\n      exp\n      swap1\n      div\n      0xffffffffffffffffffffffffffffffffffffffff\n      and\n      swap1\n      pop\n      dup4\n      jump\t// out\n        /* \"contracts/voting.sol\":1067:1158  function hasVoted(address user) public view returns (bool) {... */\n    tag_32:\n        /* \"contracts/voting.sol\":1120:1124  bool */\n      0x00\n        /* \"contracts/voting.sol\":1140:1148  CanVoted */\n      0x01\n        /* \"contracts/voting.sol\":1140:1154  CanVoted[user] */\n      0x00\n        /* \"contracts/voting.sol\":1149:1153  user */\n      dup4\n        /* \"contracts/voting.sol\":1140:1154  CanVoted[user] */\n      0xffffffffffffffffffffffffffffffffffffffff\n      and\n      0xffffffffffffffffffffffffffffffffffffffff\n      and\n      dup2\n      mstore\n      0x20\n      add\n      swap1\n      dup2\n      mstore\n      0x20\n      add\n      0x00\n      keccak256\n      0x00\n      swap1\n      sload\n      swap1\n      0x0100\n      exp\n      swap1\n      div\n      0xff\n      and\n        /* \"contracts/voting.sol\":1133:1154  return CanVoted[user] */\n      swap1\n      pop\n        /* \"contracts/voting.sol\":1067:1158  function hasVoted(address user) public view returns (bool) {... */\n      swap2\n      swap1\n      pop\n      jump\t// out\n        /* \"contracts/voting.sol\":813:858  mapping(uint256 => uint256) public votesCount */\n    tag_37:\n      mstore(0x20, 0x04)\n      dup1\n      0x00\n      mstore\n      keccak256(0x00, 0x40)\n      0x00\n      swap2\n      pop\n      swap1\n      pop\n      sload\n      dup2\n      jump\t// out\n        /* \"contracts/voting.sol\":596:644  mapping(uint256 => uint256) public proposalVotes */\n    tag_42:\n      mstore(0x20, 0x03)\n      dup1\n      0x00\n      mstore\n      keccak256(0x00, 0x40)\n      0x00\n      swap2\n      pop\n      swap1\n      pop\n      sload\n      dup2\n      jump\t// out\n        /* \"contracts/voting.sol\":195:235  mapping(address => bool) public CanVoted */\n    tag_46:\n      mstore(0x20, 0x01)\n      dup1\n      0x00\n      mstore\n      keccak256(0x00, 0x40)\n      0x00\n      swap2\n      pop\n      sload\n      swap1\n      0x0100\n      exp\n      swap1\n      div\n      0xff\n      and\n      dup2\n      jump\t// out\n        /* \"contracts/voting.sol\":1253:1326  mapping (address Proposal=> uint256 Proposaladdress) public numofProposal */\n    tag_50:\n      mstore(0x20, 0x05)\n      dup1\n      0x00\n      mstore\n      keccak256(0x00, 0x40)\n      0x00\n      swap2\n      pop\n      swap1\n      pop\n      sload\n      dup2\n      jump\t// out\n        /* \"contracts/voting.sol\":241:261  address public owner */\n    tag_53:\n      0x02\n      0x00\n      swap1\n      sload\n      swap1\n      0x0100\n      exp\n      swap1\n      div\n      0xffffffffffffffffffffffffffffffffffffffff\n      and\n      dup2\n      jump\t// out\n        /* \"contracts/voting.sol\":1331:1574  function getWinner() public {... */\n    tag_57:\n        /* \"contracts/voting.sol\":1371:1392  uint256 proposalIndex */\n      0x00\n        /* \"contracts/voting.sol\":1395:1396  0 */\n      0x00\n        /* \"contracts/voting.sol\":1371:1396  uint256 proposalIndex = 0 */\n      swap1\n      pop\n        /* \"contracts/voting.sol\":1366:1571  for (uint256 proposalIndex = 0; proposalIndex < proposals.length; proposalIndex++) {... */\n    tag_94:\n        /* \"contracts/voting.sol\":1414:1423  proposals */\n      0x00\n        /* \"contracts/voting.sol\":1414:1430  proposals.length */\n      dup1\n      sload\n      swap1\n      pop\n        /* \"contracts/voting.sol\":1398:1411  proposalIndex */\n      dup2\n        /* \"contracts/voting.sol\":1398:1430  proposalIndex < proposals.length */\n      lt\n        /* \"contracts/voting.sol\":1366:1571  for (uint256 proposalIndex = 0; proposalIndex < proposals.length; proposalIndex++) {... */\n      iszero\n      tag_95\n      jumpi\n        /* \"contracts/voting.sol\":1460:1483  address proposalAddress */\n      0x00\n        /* \"contracts/voting.sol\":1486:1495  proposals */\n      0x00\n        /* \"contracts/voting.sol\":1496:1509  proposalIndex */\n      dup3\n        /* \"contracts/voting.sol\":1486:1510  proposals[proposalIndex] */\n      dup2\n      sload\n      dup2\n      lt\n      tag_97\n      jumpi\n      tag_98\n      tag_99\n      jump\t// in\n    tag_98:\n    tag_97:\n      swap1\n      0x00\n      mstore\n      keccak256(0x00, 0x20)\n      swap1\n      0x03\n      mul\n      add\n        /* \"contracts/voting.sol\":1486:1518  proposals[proposalIndex].Address */\n      0x02\n      add\n      0x00\n      swap1\n      sload\n      swap1\n      0x0100\n      exp\n      swap1\n      div\n      0xffffffffffffffffffffffffffffffffffffffff\n      and\n        /* \"contracts/voting.sol\":1460:1518  address proposalAddress = proposals[proposalIndex].Address */\n      swap1\n      pop\n        /* \"contracts/voting.sol\":1562:1563  0 */\n      0x00\n        /* \"contracts/voting.sol\":1529:1542  numofProposal */\n      0x05\n        /* \"contracts/voting.sol\":1529:1559  numofProposal[proposalAddress] */\n      0x00\n        /* \"contracts/voting.sol\":1543:1558  proposalAddress */\n      dup4\n        /* \"contracts/voting.sol\":1529:1559  numofProposal[proposalAddress] */\n      0xffffffffffffffffffffffffffffffffffffffff\n      and\n      0xffffffffffffffffffffffffffffffffffffffff\n      and\n      dup2\n      mstore\n      0x20\n      add\n      swap1\n      dup2\n      mstore\n      0x20\n      add\n      0x00\n      keccak256\n        /* \"contracts/voting.sol\":1529:1563  numofProposal[proposalAddress] = 0 */\n      dup2\n      swap1\n      sstore\n      pop\n        /* \"contracts/voting.sol\":1449:1571  {... */\n      pop\n        /* \"contracts/voting.sol\":1432:1447  proposalIndex++ */\n      dup1\n      dup1\n      0x01\n      add\n      swap2\n      pop\n      pop\n        /* \"contracts/voting.sol\":1366:1571  for (uint256 proposalIndex = 0; proposalIndex < proposals.length; proposalIndex++) {... */\n      jump(tag_94)\n    tag_95:\n      pop\n        /* \"contracts/voting.sol\":1331:1574  function getWinner() public {... */\n      jump\t// out\n        /* \"contracts/voting.sol\":1576:1694  function getProposal(uint256 proposalId) public view returns (Proposal memory) {... */\n    tag_60:\n        /* \"contracts/voting.sol\":1638:1653  Proposal memory */\n      tag_101\n      tag_102\n      jump\t// in\n    tag_101:\n        /* \"contracts/voting.sol\":1669:1678  proposals */\n      0x00\n        /* \"contracts/voting.sol\":1679:1689  proposalId */\n      dup3\n        /* \"contracts/voting.sol\":1669:1690  proposals[proposalId] */\n      dup2\n      sload\n      dup2\n      lt\n      tag_104\n      jumpi\n      tag_105\n      tag_99\n      jump\t// in\n    tag_105:\n    tag_104:\n      swap1\n      0x00\n      mstore\n      keccak256(0x00, 0x20)\n      swap1\n      0x03\n      mul\n      add\n        /* \"contracts/voting.sol\":1662:1690  return proposals[proposalId] */\n      mload(0x40)\n      dup1\n      0x60\n      add\n      0x40\n      mstore\n      swap1\n      dup2\n      0x00\n      dup3\n      add\n      sload\n      dup2\n      mstore\n      0x20\n      add\n      0x01\n      dup3\n      add\n      dup1\n      sload\n      tag_107\n      swap1\n      tag_87\n      jump\t// in\n    tag_107:\n      dup1\n      0x1f\n      add\n      0x20\n      dup1\n      swap2\n      div\n      mul\n      0x20\n      add\n      mload(0x40)\n      swap1\n      dup2\n      add\n      0x40\n      mstore\n      dup1\n      swap3\n      swap2\n      swap1\n      dup2\n      dup2\n      mstore\n      0x20\n      add\n      dup3\n      dup1\n      sload\n      tag_108\n      swap1\n      tag_87\n      jump\t// in\n    tag_108:\n      dup1\n      iszero\n      tag_109\n      jumpi\n      dup1\n      0x1f\n      lt\n      tag_110\n      jumpi\n      0x0100\n      dup1\n      dup4\n      sload\n      div\n      mul\n      dup4\n      mstore\n      swap2\n      0x20\n      add\n      swap2\n      jump(tag_109)\n    tag_110:\n      dup3\n      add\n      swap2\n      swap1\n      0x00\n      mstore\n      keccak256(0x00, 0x20)\n      swap1\n    tag_111:\n      dup2\n      sload\n      dup2\n      mstore\n      swap1\n      0x01\n      add\n      swap1\n      0x20\n      add\n      dup1\n      dup4\n      gt\n      tag_111\n      jumpi\n      dup3\n      swap1\n      sub\n      0x1f\n      and\n      dup3\n      add\n      swap2\n    tag_109:\n      pop\n      pop\n      pop\n      pop\n      pop\n      dup2\n      mstore\n      0x20\n      add\n      0x02\n      dup3\n      add\n      0x00\n      swap1\n      sload\n      swap1\n      0x0100\n      exp\n      swap1\n      div\n      0xffffffffffffffffffffffffffffffffffffffff\n      and\n      0xffffffffffffffffffffffffffffffffffffffff\n      and\n      0xffffffffffffffffffffffffffffffffffffffff\n      and\n      dup2\n      mstore\n      pop\n      pop\n      swap1\n      pop\n        /* \"contracts/voting.sol\":1576:1694  function getProposal(uint256 proposalId) public view returns (Proposal memory) {... */\n      swap2\n      swap1\n      pop\n      jump\t// out\n        /* \"contracts/voting.sol\":967:1061  function getAllProposals() public view returns (Proposal[] memory) {... */\n    tag_64:\n        /* \"contracts/voting.sol\":1015:1032  Proposal[] memory */\n      0x60\n        /* \"contracts/voting.sol\":1048:1057  proposals */\n      0x00\n        /* \"contracts/voting.sol\":1041:1057  return proposals */\n      dup1\n      sload\n      dup1\n      0x20\n      mul\n      0x20\n      add\n      mload(0x40)\n      swap1\n      dup2\n      add\n      0x40\n      mstore\n      dup1\n      swap3\n      swap2\n      swap1\n      dup2\n      dup2\n      mstore\n      0x20\n      add\n      0x00\n      swap1\n    tag_113:\n      dup3\n      dup3\n      lt\n      iszero\n      tag_114\n      jumpi\n      dup4\n      dup3\n      swap1\n      0x00\n      mstore\n      keccak256(0x00, 0x20)\n      swap1\n      0x03\n      mul\n      add\n      mload(0x40)\n      dup1\n      0x60\n      add\n      0x40\n      mstore\n      swap1\n      dup2\n      0x00\n      dup3\n      add\n      sload\n      dup2\n      mstore\n      0x20\n      add\n      0x01\n      dup3\n      add\n      dup1\n      sload\n      tag_116\n      swap1\n      tag_87\n      jump\t// in\n    tag_116:\n      dup1\n      0x1f\n      add\n      0x20\n      dup1\n      swap2\n      div\n      mul\n      0x20\n      add\n      mload(0x40)\n      swap1\n      dup2\n      add\n      0x40\n      mstore\n      dup1\n      swap3\n      swap2\n      swap1\n      dup2\n      dup2\n      mstore\n      0x20\n      add\n      dup3\n      dup1\n      sload\n      tag_117\n      swap1\n      tag_87\n      jump\t// in\n    tag_117:\n      dup1\n      iszero\n      tag_118\n      jumpi\n      dup1\n      0x1f\n      lt\n      tag_119\n      jumpi\n      0x0100\n      dup1\n      dup4\n      sload\n      div\n      mul\n      dup4\n      mstore\n      swap2\n      0x20\n      add\n      swap2\n      jump(tag_118)\n    tag_119:\n      dup3\n      add\n      swap2\n      swap1\n      0x00\n      mstore\n      keccak256(0x00, 0x20)\n      swap1\n    tag_120:\n      dup2\n      sload\n      dup2\n      mstore\n      swap1\n      0x01\n      add\n      swap1\n      0x20\n      add\n      dup1\n      dup4\n      gt\n      tag_120\n      jumpi\n      dup3\n      swap1\n      sub\n      0x1f\n      and\n      dup3\n      add\n      swap2\n    tag_118:\n      pop\n      pop\n      pop\n      pop\n      pop\n      dup2\n      mstore\n      0x20\n      add\n      0x02\n      dup3\n      add\n      0x00\n      swap1\n      sload\n      swap1\n      0x0100\n      exp\n      swap1\n      div\n      0xffffffffffffffffffffffffffffffffffffffff\n      and\n      0xffffffffffffffffffffffffffffffffffffffff\n      and\n      0xffffffffffffffffffffffffffffffffffffffff\n      and\n      dup2\n      mstore\n      pop\n      pop\n      dup2\n      mstore\n      0x20\n      add\n      swap1\n      0x01\n      add\n      swap1\n      jump(tag_113)\n    tag_114:\n      pop\n      pop\n      pop\n      pop\n      swap1\n      pop\n        /* \"contracts/voting.sol\":967:1061  function getAllProposals() public view returns (Proposal[] memory) {... */\n      swap1\n      jump\t// out\n        /* \"contracts/voting.sol\":1162:1251  function proposalCount() public view returns (uint256) {... */\n    tag_68:\n        /* \"contracts/voting.sol\":1208:1215  uint256 */\n      0x00\n        /* \"contracts/voting.sol\":1231:1240  proposals */\n      0x00\n        /* \"contracts/voting.sol\":1231:1247  proposals.length */\n      dup1\n      sload\n      swap1\n      pop\n        /* \"contracts/voting.sol\":1224:1247  return proposals.length */\n      swap1\n      pop\n        /* \"contracts/voting.sol\":1162:1251  function proposalCount() public view returns (uint256) {... */\n      swap1\n      jump\t// out\n        /* \"contracts/voting.sol\":433:589  function addProposal(uint256 _id, string memory _proposals, address _address) public OnlyOwner {... */\n    tag_73:\n        /* \"contracts/voting.sol\":374:384  msg.sender */\n      caller\n        /* \"contracts/voting.sol\":365:384  owner == msg.sender */\n      0xffffffffffffffffffffffffffffffffffffffff\n      and\n        /* \"contracts/voting.sol\":365:370  owner */\n      0x02\n      0x00\n      swap1\n      sload\n      swap1\n      0x0100\n      exp\n      swap1\n      div\n      0xffffffffffffffffffffffffffffffffffffffff\n      and\n        /* \"contracts/voting.sol\":365:384  owner == msg.sender */\n      0xffffffffffffffffffffffffffffffffffffffff\n      and\n      eq\n        /* \"contracts/voting.sol\":357:400  require(owner == msg.sender, \" only owner\") */\n      tag_123\n      jumpi\n      mload(0x40)\n      0x08c379a000000000000000000000000000000000000000000000000000000000\n      dup2\n      mstore\n      0x04\n      add\n      tag_124\n      swap1\n      tag_125\n      jump\t// in\n    tag_124:\n      mload(0x40)\n      dup1\n      swap2\n      sub\n      swap1\n      revert\n    tag_123:\n        /* \"contracts/voting.sol\":534:543  proposals */\n      0x00\n        /* \"contracts/voting.sol\":549:584  Proposal(_id, _proposals, _address) */\n      mload(0x40)\n      dup1\n      0x60\n      add\n      0x40\n      mstore\n      dup1\n        /* \"contracts/voting.sol\":558:561  _id */\n      dup6\n        /* \"contracts/voting.sol\":549:584  Proposal(_id, _proposals, _address) */\n      dup2\n      mstore\n      0x20\n      add\n        /* \"contracts/voting.sol\":563:573  _proposals */\n      dup5\n        /* \"contracts/voting.sol\":549:584  Proposal(_id, _proposals, _address) */\n      dup2\n      mstore\n      0x20\n      add\n        /* \"contracts/voting.sol\":575:583  _address */\n      dup4\n        /* \"contracts/voting.sol\":549:584  Proposal(_id, _proposals, _address) */\n      0xffffffffffffffffffffffffffffffffffffffff\n      and\n      dup2\n      mstore\n      pop\n        /* \"contracts/voting.sol\":534:585  proposals.push(Proposal(_id, _proposals, _address)) */\n      swap1\n      dup1\n      0x01\n      dup2\n      sload\n      add\n      dup1\n      dup3\n      sstore\n      dup1\n      swap2\n      pop\n      pop\n      0x01\n      swap1\n      sub\n      swap1\n      0x00\n      mstore\n      keccak256(0x00, 0x20)\n      swap1\n      0x03\n      mul\n      add\n      0x00\n      swap1\n      swap2\n      swap1\n      swap2\n      swap1\n      swap2\n      pop\n      0x00\n      dup3\n      add\n      mload\n      dup2\n      0x00\n      add\n      sstore\n      0x20\n      dup3\n      add\n      mload\n      dup2\n      0x01\n      add\n      swap1\n      dup2\n      tag_128\n      swap2\n      swap1\n      tag_129\n      jump\t// in\n    tag_128:\n      pop\n      0x40\n      dup3\n      add\n      mload\n      dup2\n      0x02\n      add\n      exp(0x0100, 0x00)\n      dup2\n      sload\n      dup2\n      0xffffffffffffffffffffffffffffffffffffffff\n      mul\n      not\n      and\n      swap1\n      dup4\n      0xffffffffffffffffffffffffffffffffffffffff\n      and\n      mul\n      or\n      swap1\n      sstore\n      pop\n      pop\n      pop\n        /* \"contracts/voting.sol\":433:589  function addProposal(uint256 _id, string memory _proposals, address _address) public OnlyOwner {... */\n      pop\n      pop\n      pop\n      jump\t// out\n        /* \"contracts/voting.sol\":861:965  function getVotes(uint256 proposal) public view returns (uint256) {... */\n    tag_76:\n        /* \"contracts/voting.sol\":918:925  uint256 */\n      0x00\n        /* \"contracts/voting.sol\":941:951  votesCount */\n      0x04\n        /* \"contracts/voting.sol\":941:961  votesCount[proposal] */\n      0x00\n        /* \"contracts/voting.sol\":952:960  proposal */\n      dup4\n        /* \"contracts/voting.sol\":941:961  votesCount[proposal] */\n      dup2\n      mstore\n      0x20\n      add\n      swap1\n      dup2\n      mstore\n      0x20\n      add\n      0x00\n      keccak256\n      sload\n        /* \"contracts/voting.sol\":934:961  return votesCount[proposal] */\n      swap1\n      pop\n        /* \"contracts/voting.sol\":861:965  function getVotes(uint256 proposal) public view returns (uint256) {... */\n      swap2\n      swap1\n      pop\n      jump\t// out\n    tag_102:\n      mload(0x40)\n      dup1\n      0x60\n      add\n      0x40\n      mstore\n      dup1\n      0x00\n      dup2\n      mstore\n      0x20\n      add\n      0x60\n      dup2\n      mstore\n      0x20\n      add\n      and(0xffffffffffffffffffffffffffffffffffffffff, 0x00)\n      dup2\n      mstore\n      pop\n      swap1\n      jump\t// out\n        /* \"#utility.yul\":7:82   */\n    tag_131:\n        /* \"#utility.yul\":40:46   */\n      0x00\n        /* \"#utility.yul\":73:75   */\n      0x40\n        /* \"#utility.yul\":67:76   */\n      mload\n        /* \"#utility.yul\":57:76   */\n      swap1\n      pop\n        /* \"#utility.yul\":7:82   */\n      swap1\n      jump\t// out\n        /* \"#utility.yul\":88:205   */\n    tag_132:\n        /* \"#utility.yul\":197:198   */\n      0x00\n        /* \"#utility.yul\":194:195   */\n      0x00\n        /* \"#utility.yul\":187:199   */\n      revert\n        /* \"#utility.yul\":211:328   */\n    tag_133:\n        /* \"#utility.yul\":320:321   */\n      0x00\n        /* \"#utility.yul\":317:318   */\n      0x00\n        /* \"#utility.yul\":310:322   */\n      revert\n        /* \"#utility.yul\":334:411   */\n    tag_134:\n        /* \"#utility.yul\":371:378   */\n      0x00\n        /* \"#utility.yul\":400:405   */\n      dup2\n        /* \"#utility.yul\":389:405   */\n      swap1\n      pop\n        /* \"#utility.yul\":334:411   */\n      swap2\n      swap1\n      pop\n      jump\t// out\n        /* \"#utility.yul\":417:539   */\n    tag_135:\n        /* \"#utility.yul\":490:514   */\n      tag_198\n        /* \"#utility.yul\":508:513   */\n      dup2\n        /* \"#utility.yul\":490:514   */\n      tag_134\n      jump\t// in\n    tag_198:\n        /* \"#utility.yul\":483:488   */\n      dup2\n        /* \"#utility.yul\":480:515   */\n      eq\n        /* \"#utility.yul\":470:533   */\n      tag_199\n      jumpi\n        /* \"#utility.yul\":529:530   */\n      0x00\n        /* \"#utility.yul\":526:527   */\n      0x00\n        /* \"#utility.yul\":519:531   */\n      revert\n        /* \"#utility.yul\":470:533   */\n    tag_199:\n        /* \"#utility.yul\":417:539   */\n      pop\n      jump\t// out\n        /* \"#utility.yul\":545:684   */\n    tag_136:\n        /* \"#utility.yul\":591:596   */\n      0x00\n        /* \"#utility.yul\":629:635   */\n      dup2\n        /* \"#utility.yul\":616:636   */\n      calldataload\n        /* \"#utility.yul\":607:636   */\n      swap1\n      pop\n        /* \"#utility.yul\":645:678   */\n      tag_201\n        /* \"#utility.yul\":672:677   */\n      dup2\n        /* \"#utility.yul\":645:678   */\n      tag_135\n      jump\t// in\n    tag_201:\n        /* \"#utility.yul\":545:684   */\n      swap3\n      swap2\n      pop\n      pop\n      jump\t// out\n        /* \"#utility.yul\":690:1019   */\n    tag_22:\n        /* \"#utility.yul\":749:755   */\n      0x00\n        /* \"#utility.yul\":798:800   */\n      0x20\n        /* \"#utility.yul\":786:795   */\n      dup3\n        /* \"#utility.yul\":777:784   */\n      dup5\n        /* \"#utility.yul\":773:796   */\n      sub\n        /* \"#utility.yul\":769:801   */\n      slt\n        /* \"#utility.yul\":766:885   */\n      iszero\n      tag_203\n      jumpi\n        /* \"#utility.yul\":804:883   */\n      tag_204\n      tag_132\n      jump\t// in\n    tag_204:\n        /* \"#utility.yul\":766:885   */\n    tag_203:\n        /* \"#utility.yul\":924:925   */\n      0x00\n        /* \"#utility.yul\":949:1002   */\n      tag_205\n        /* \"#utility.yul\":994:1001   */\n      dup5\n        /* \"#utility.yul\":985:991   */\n      dup3\n        /* \"#utility.yul\":974:983   */\n      dup6\n        /* \"#utility.yul\":970:992   */\n      add\n        /* \"#utility.yul\":949:1002   */\n      tag_136\n      jump\t// in\n    tag_205:\n        /* \"#utility.yul\":939:1002   */\n      swap2\n      pop\n        /* \"#utility.yul\":895:1012   */\n      pop\n        /* \"#utility.yul\":690:1019   */\n      swap3\n      swap2\n      pop\n      pop\n      jump\t// out\n        /* \"#utility.yul\":1025:1143   */\n    tag_137:\n        /* \"#utility.yul\":1112:1136   */\n      tag_207\n        /* \"#utility.yul\":1130:1135   */\n      dup2\n        /* \"#utility.yul\":1112:1136   */\n      tag_134\n      jump\t// in\n    tag_207:\n        /* \"#utility.yul\":1107:1110   */\n      dup3\n        /* \"#utility.yul\":1100:1137   */\n      mstore\n        /* \"#utility.yul\":1025:1143   */\n      pop\n      pop\n      jump\t// out\n        /* \"#utility.yul\":1149:1248   */\n    tag_138:\n        /* \"#utility.yul\":1201:1207   */\n      0x00\n        /* \"#utility.yul\":1235:1240   */\n      dup2\n        /* \"#utility.yul\":1229:1241   */\n      mload\n        /* \"#utility.yul\":1219:1241   */\n      swap1\n      pop\n        /* \"#utility.yul\":1149:1248   */\n      swap2\n      swap1\n      pop\n      jump\t// out\n        /* \"#utility.yul\":1254:1423   */\n    tag_139:\n        /* \"#utility.yul\":1338:1349   */\n      0x00\n        /* \"#utility.yul\":1372:1378   */\n      dup3\n        /* \"#utility.yul\":1367:1370   */\n      dup3\n        /* \"#utility.yul\":1360:1379   */\n      mstore\n        /* \"#utility.yul\":1412:1416   */\n      0x20\n        /* \"#utility.yul\":1407:1410   */\n      dup3\n        /* \"#utility.yul\":1403:1417   */\n      add\n        /* \"#utility.yul\":1388:1417   */\n      swap1\n      pop\n        /* \"#utility.yul\":1254:1423   */\n      swap3\n      swap2\n      pop\n      pop\n      jump\t// out\n        /* \"#utility.yul\":1429:1568   */\n    tag_140:\n        /* \"#utility.yul\":1518:1524   */\n      dup3\n        /* \"#utility.yul\":1513:1516   */\n      dup2\n        /* \"#utility.yul\":1508:1511   */\n      dup4\n        /* \"#utility.yul\":1502:1525   */\n      mcopy\n        /* \"#utility.yul\":1559:1560   */\n      0x00\n        /* \"#utility.yul\":1550:1556   */\n      dup4\n        /* \"#utility.yul\":1545:1548   */\n      dup4\n        /* \"#utility.yul\":1541:1557   */\n      add\n        /* \"#utility.yul\":1534:1561   */\n      mstore\n        /* \"#utility.yul\":1429:1568   */\n      pop\n      pop\n      pop\n      jump\t// out\n        /* \"#utility.yul\":1574:1676   */\n    tag_141:\n        /* \"#utility.yul\":1615:1621   */\n      0x00\n        /* \"#utility.yul\":1666:1668   */\n      0x1f\n        /* \"#utility.yul\":1662:1669   */\n      not\n        /* \"#utility.yul\":1657:1659   */\n      0x1f\n        /* \"#utility.yul\":1650:1655   */\n      dup4\n        /* \"#utility.yul\":1646:1660   */\n      add\n        /* \"#utility.yul\":1642:1670   */\n      and\n        /* \"#utility.yul\":1632:1670   */\n      swap1\n      pop\n        /* \"#utility.yul\":1574:1676   */\n      swap2\n      swap1\n      pop\n      jump\t// out\n        /* \"#utility.yul\":1682:2059   */\n    tag_142:\n        /* \"#utility.yul\":1770:1773   */\n      0x00\n        /* \"#utility.yul\":1798:1837   */\n      tag_213\n        /* \"#utility.yul\":1831:1836   */\n      dup3\n        /* \"#utility.yul\":1798:1837   */\n      tag_138\n      jump\t// in\n    tag_213:\n        /* \"#utility.yul\":1853:1924   */\n      tag_214\n        /* \"#utility.yul\":1917:1923   */\n      dup2\n        /* \"#utility.yul\":1912:1915   */\n      dup6\n        /* \"#utility.yul\":1853:1924   */\n      tag_139\n      jump\t// in\n    tag_214:\n        /* \"#utility.yul\":1846:1924   */\n      swap4\n      pop\n        /* \"#utility.yul\":1933:1998   */\n      tag_215\n        /* \"#utility.yul\":1991:1997   */\n      dup2\n        /* \"#utility.yul\":1986:1989   */\n      dup6\n        /* \"#utility.yul\":1979:1983   */\n      0x20\n        /* \"#utility.yul\":1972:1977   */\n      dup7\n        /* \"#utility.yul\":1968:1984   */\n      add\n        /* \"#utility.yul\":1933:1998   */\n      tag_140\n      jump\t// in\n    tag_215:\n        /* \"#utility.yul\":2023:2052   */\n      tag_216\n        /* \"#utility.yul\":2045:2051   */\n      dup2\n        /* \"#utility.yul\":2023:2052   */\n      tag_141\n      jump\t// in\n    tag_216:\n        /* \"#utility.yul\":2018:2021   */\n      dup5\n        /* \"#utility.yul\":2014:2053   */\n      add\n        /* \"#utility.yul\":2007:2053   */\n      swap2\n      pop\n        /* \"#utility.yul\":1774:2059   */\n      pop\n        /* \"#utility.yul\":1682:2059   */\n      swap3\n      swap2\n      pop\n      pop\n      jump\t// out\n        /* \"#utility.yul\":2065:2191   */\n    tag_143:\n        /* \"#utility.yul\":2102:2109   */\n      0x00\n        /* \"#utility.yul\":2142:2184   */\n      0xffffffffffffffffffffffffffffffffffffffff\n        /* \"#utility.yul\":2135:2140   */\n      dup3\n        /* \"#utility.yul\":2131:2185   */\n      and\n        /* \"#utility.yul\":2120:2185   */\n      swap1\n      pop\n        /* \"#utility.yul\":2065:2191   */\n      swap2\n      swap1\n      pop\n      jump\t// out\n        /* \"#utility.yul\":2197:2293   */\n    tag_144:\n        /* \"#utility.yul\":2234:2241   */\n      0x00\n        /* \"#utility.yul\":2263:2287   */\n      tag_219\n        /* \"#utility.yul\":2281:2286   */\n      dup3\n        /* \"#utility.yul\":2263:2287   */\n      tag_143\n      jump\t// in\n    tag_219:\n        /* \"#utility.yul\":2252:2287   */\n      swap1\n      pop\n        /* \"#utility.yul\":2197:2293   */\n      swap2\n      swap1\n      pop\n      jump\t// out\n        /* \"#utility.yul\":2299:2417   */\n    tag_145:\n        /* \"#utility.yul\":2386:2410   */\n      tag_221\n        /* \"#utility.yul\":2404:2409   */\n      dup2\n        /* \"#utility.yul\":2386:2410   */\n      tag_144\n      jump\t// in\n    tag_221:\n        /* \"#utility.yul\":2381:2384   */\n      dup3\n        /* \"#utility.yul\":2374:2411   */\n      mstore\n        /* \"#utility.yul\":2299:2417   */\n      pop\n      pop\n      jump\t// out\n        /* \"#utility.yul\":2423:2956   */\n    tag_28:\n        /* \"#utility.yul\":2592:2596   */\n      0x00\n        /* \"#utility.yul\":2630:2632   */\n      0x60\n        /* \"#utility.yul\":2619:2628   */\n      dup3\n        /* \"#utility.yul\":2615:2633   */\n      add\n        /* \"#utility.yul\":2607:2633   */\n      swap1\n      pop\n        /* \"#utility.yul\":2643:2714   */\n      tag_223\n        /* \"#utility.yul\":2711:2712   */\n      0x00\n        /* \"#utility.yul\":2700:2709   */\n      dup4\n        /* \"#utility.yul\":2696:2713   */\n      add\n        /* \"#utility.yul\":2687:2693   */\n      dup7\n        /* \"#utility.yul\":2643:2714   */\n      tag_137\n      jump\t// in\n    tag_223:\n        /* \"#utility.yul\":2761:2770   */\n      dup2\n        /* \"#utility.yul\":2755:2759   */\n      dup2\n        /* \"#utility.yul\":2751:2771   */\n      sub\n        /* \"#utility.yul\":2746:2748   */\n      0x20\n        /* \"#utility.yul\":2735:2744   */\n      dup4\n        /* \"#utility.yul\":2731:2749   */\n      add\n        /* \"#utility.yul\":2724:2772   */\n      mstore\n        /* \"#utility.yul\":2789:2867   */\n      tag_224\n        /* \"#utility.yul\":2862:2866   */\n      dup2\n        /* \"#utility.yul\":2853:2859   */\n      dup6\n        /* \"#utility.yul\":2789:2867   */\n      tag_142\n      jump\t// in\n    tag_224:\n        /* \"#utility.yul\":2781:2867   */\n      swap1\n      pop\n        /* \"#utility.yul\":2877:2949   */\n      tag_225\n        /* \"#utility.yul\":2945:2947   */\n      0x40\n        /* \"#utility.yul\":2934:2943   */\n      dup4\n        /* \"#utility.yul\":2930:2948   */\n      add\n        /* \"#utility.yul\":2921:2927   */\n      dup5\n        /* \"#utility.yul\":2877:2949   */\n      tag_145\n      jump\t// in\n    tag_225:\n        /* \"#utility.yul\":2423:2956   */\n      swap5\n      swap4\n      pop\n      pop\n      pop\n      pop\n      jump\t// out\n        /* \"#utility.yul\":2962:3084   */\n    tag_146:\n        /* \"#utility.yul\":3035:3059   */\n      tag_227\n        /* \"#utility.yul\":3053:3058   */\n      dup2\n        /* \"#utility.yul\":3035:3059   */\n      tag_144\n      jump\t// in\n    tag_227:\n        /* \"#utility.yul\":3028:3033   */\n      dup2\n        /* \"#utility.yul\":3025:3060   */\n      eq\n        /* \"#utility.yul\":3015:3078   */\n      tag_228\n      jumpi\n        /* \"#utility.yul\":3074:3075   */\n      0x00\n        /* \"#utility.yul\":3071:3072   */\n      0x00\n        /* \"#utility.yul\":3064:3076   */\n      revert\n        /* \"#utility.yul\":3015:3078   */\n    tag_228:\n        /* \"#utility.yul\":2962:3084   */\n      pop\n      jump\t// out\n        /* \"#utility.yul\":3090:3229   */\n    tag_147:\n        /* \"#utility.yul\":3136:3141   */\n      0x00\n        /* \"#utility.yul\":3174:3180   */\n      dup2\n        /* \"#utility.yul\":3161:3181   */\n      calldataload\n        /* \"#utility.yul\":3152:3181   */\n      swap1\n      pop\n        /* \"#utility.yul\":3190:3223   */\n      tag_230\n        /* \"#utility.yul\":3217:3222   */\n      dup2\n        /* \"#utility.yul\":3190:3223   */\n      tag_146\n      jump\t// in\n    tag_230:\n        /* \"#utility.yul\":3090:3229   */\n      swap3\n      swap2\n      pop\n      pop\n      jump\t// out\n        /* \"#utility.yul\":3235:3564   */\n    tag_31:\n        /* \"#utility.yul\":3294:3300   */\n      0x00\n        /* \"#utility.yul\":3343:3345   */\n      0x20\n        /* \"#utility.yul\":3331:3340   */\n      dup3\n        /* \"#utility.yul\":3322:3329   */\n      dup5\n        /* \"#utility.yul\":3318:3341   */\n      sub\n        /* \"#utility.yul\":3314:3346   */\n      slt\n        /* \"#utility.yul\":3311:3430   */\n      iszero\n      tag_232\n      jumpi\n        /* \"#utility.yul\":3349:3428   */\n      tag_233\n      tag_132\n      jump\t// in\n    tag_233:\n        /* \"#utility.yul\":3311:3430   */\n    tag_232:\n        /* \"#utility.yul\":3469:3470   */\n      0x00\n        /* \"#utility.yul\":3494:3547   */\n      tag_234\n        /* \"#utility.yul\":3539:3546   */\n      dup5\n        /* \"#utility.yul\":3530:3536   */\n      dup3\n        /* \"#utility.yul\":3519:3528   */\n      dup6\n        /* \"#utility.yul\":3515:3537   */\n      add\n        /* \"#utility.yul\":3494:3547   */\n      tag_147\n      jump\t// in\n    tag_234:\n        /* \"#utility.yul\":3484:3547   */\n      swap2\n      pop\n        /* \"#utility.yul\":3440:3557   */\n      pop\n        /* \"#utility.yul\":3235:3564   */\n      swap3\n      swap2\n      pop\n      pop\n      jump\t// out\n        /* \"#utility.yul\":3570:3660   */\n    tag_148:\n        /* \"#utility.yul\":3604:3611   */\n      0x00\n        /* \"#utility.yul\":3647:3652   */\n      dup2\n        /* \"#utility.yul\":3640:3653   */\n      iszero\n        /* \"#utility.yul\":3633:3654   */\n      iszero\n        /* \"#utility.yul\":3622:3654   */\n      swap1\n      pop\n        /* \"#utility.yul\":3570:3660   */\n      swap2\n      swap1\n      pop\n      jump\t// out\n        /* \"#utility.yul\":3666:3775   */\n    tag_149:\n        /* \"#utility.yul\":3747:3768   */\n      tag_237\n        /* \"#utility.yul\":3762:3767   */\n      dup2\n        /* \"#utility.yul\":3747:3768   */\n      tag_148\n      jump\t// in\n    tag_237:\n        /* \"#utility.yul\":3742:3745   */\n      dup3\n        /* \"#utility.yul\":3735:3769   */\n      mstore\n        /* \"#utility.yul\":3666:3775   */\n      pop\n      pop\n      jump\t// out\n        /* \"#utility.yul\":3781:3991   */\n    tag_34:\n        /* \"#utility.yul\":3868:3872   */\n      0x00\n        /* \"#utility.yul\":3906:3908   */\n      0x20\n        /* \"#utility.yul\":3895:3904   */\n      dup3\n        /* \"#utility.yul\":3891:3909   */\n      add\n        /* \"#utility.yul\":3883:3909   */\n      swap1\n      pop\n        /* \"#utility.yul\":3919:3984   */\n      tag_239\n        /* \"#utility.yul\":3981:3982   */\n      0x00\n        /* \"#utility.yul\":3970:3979   */\n      dup4\n        /* \"#utility.yul\":3966:3983   */\n      add\n        /* \"#utility.yul\":3957:3963   */\n      dup5\n        /* \"#utility.yul\":3919:3984   */\n      tag_149\n      jump\t// in\n    tag_239:\n        /* \"#utility.yul\":3781:3991   */\n      swap3\n      swap2\n      pop\n      pop\n      jump\t// out\n        /* \"#utility.yul\":3997:4219   */\n    tag_39:\n        /* \"#utility.yul\":4090:4094   */\n      0x00\n        /* \"#utility.yul\":4128:4130   */\n      0x20\n        /* \"#utility.yul\":4117:4126   */\n      dup3\n        /* \"#utility.yul\":4113:4131   */\n      add\n        /* \"#utility.yul\":4105:4131   */\n      swap1\n      pop\n        /* \"#utility.yul\":4141:4212   */\n      tag_241\n        /* \"#utility.yul\":4209:4210   */\n      0x00\n        /* \"#utility.yul\":4198:4207   */\n      dup4\n        /* \"#utility.yul\":4194:4211   */\n      add\n        /* \"#utility.yul\":4185:4191   */\n      dup5\n        /* \"#utility.yul\":4141:4212   */\n      tag_137\n      jump\t// in\n    tag_241:\n        /* \"#utility.yul\":3997:4219   */\n      swap3\n      swap2\n      pop\n      pop\n      jump\t// out\n        /* \"#utility.yul\":4225:4447   */\n    tag_55:\n        /* \"#utility.yul\":4318:4322   */\n      0x00\n        /* \"#utility.yul\":4356:4358   */\n      0x20\n        /* \"#utility.yul\":4345:4354   */\n      dup3\n        /* \"#utility.yul\":4341:4359   */\n      add\n        /* \"#utility.yul\":4333:4359   */\n      swap1\n      pop\n        /* \"#utility.yul\":4369:4440   */\n      tag_243\n        /* \"#utility.yul\":4437:4438   */\n      0x00\n        /* \"#utility.yul\":4426:4435   */\n      dup4\n        /* \"#utility.yul\":4422:4439   */\n      add\n        /* \"#utility.yul\":4413:4419   */\n      dup5\n        /* \"#utility.yul\":4369:4440   */\n      tag_145\n      jump\t// in\n    tag_243:\n        /* \"#utility.yul\":4225:4447   */\n      swap3\n      swap2\n      pop\n      pop\n      jump\t// out\n        /* \"#utility.yul\":4453:4561   */\n    tag_150:\n        /* \"#utility.yul\":4530:4554   */\n      tag_245\n        /* \"#utility.yul\":4548:4553   */\n      dup2\n        /* \"#utility.yul\":4530:4554   */\n      tag_134\n      jump\t// in\n    tag_245:\n        /* \"#utility.yul\":4525:4528   */\n      dup3\n        /* \"#utility.yul\":4518:4555   */\n      mstore\n        /* \"#utility.yul\":4453:4561   */\n      pop\n      pop\n      jump\t// out\n        /* \"#utility.yul\":4567:4726   */\n    tag_151:\n        /* \"#utility.yul\":4641:4652   */\n      0x00\n        /* \"#utility.yul\":4675:4681   */\n      dup3\n        /* \"#utility.yul\":4670:4673   */\n      dup3\n        /* \"#utility.yul\":4663:4682   */\n      mstore\n        /* \"#utility.yul\":4715:4719   */\n      0x20\n        /* \"#utility.yul\":4710:4713   */\n      dup3\n        /* \"#utility.yul\":4706:4720   */\n      add\n        /* \"#utility.yul\":4691:4720   */\n      swap1\n      pop\n        /* \"#utility.yul\":4567:4726   */\n      swap3\n      swap2\n      pop\n      pop\n      jump\t// out\n        /* \"#utility.yul\":4732:5089   */\n    tag_152:\n        /* \"#utility.yul\":4810:4813   */\n      0x00\n        /* \"#utility.yul\":4838:4877   */\n      tag_248\n        /* \"#utility.yul\":4871:4876   */\n      dup3\n        /* \"#utility.yul\":4838:4877   */\n      tag_138\n      jump\t// in\n    tag_248:\n        /* \"#utility.yul\":4893:4954   */\n      tag_249\n        /* \"#utility.yul\":4947:4953   */\n      dup2\n        /* \"#utility.yul\":4942:4945   */\n      dup6\n        /* \"#utility.yul\":4893:4954   */\n      tag_151\n      jump\t// in\n    tag_249:\n        /* \"#utility.yul\":4886:4954   */\n      swap4\n      pop\n        /* \"#utility.yul\":4963:5028   */\n      tag_250\n        /* \"#utility.yul\":5021:5027   */\n      dup2\n        /* \"#utility.yul\":5016:5019   */\n      dup6\n        /* \"#utility.yul\":5009:5013   */\n      0x20\n        /* \"#utility.yul\":5002:5007   */\n      dup7\n        /* \"#utility.yul\":4998:5014   */\n      add\n        /* \"#utility.yul\":4963:5028   */\n      tag_140\n      jump\t// in\n    tag_250:\n        /* \"#utility.yul\":5053:5082   */\n      tag_251\n        /* \"#utility.yul\":5075:5081   */\n      dup2\n        /* \"#utility.yul\":5053:5082   */\n      tag_141\n      jump\t// in\n    tag_251:\n        /* \"#utility.yul\":5048:5051   */\n      dup5\n        /* \"#utility.yul\":5044:5083   */\n      add\n        /* \"#utility.yul\":5037:5083   */\n      swap2\n      pop\n        /* \"#utility.yul\":4814:5089   */\n      pop\n        /* \"#utility.yul\":4732:5089   */\n      swap3\n      swap2\n      pop\n      pop\n      jump\t// out\n        /* \"#utility.yul\":5095:5203   */\n    tag_153:\n        /* \"#utility.yul\":5172:5196   */\n      tag_253\n        /* \"#utility.yul\":5190:5195   */\n      dup2\n        /* \"#utility.yul\":5172:5196   */\n      tag_144\n      jump\t// in\n    tag_253:\n        /* \"#utility.yul\":5167:5170   */\n      dup3\n        /* \"#utility.yul\":5160:5197   */\n      mstore\n        /* \"#utility.yul\":5095:5203   */\n      pop\n      pop\n      jump\t// out\n        /* \"#utility.yul\":5267:6048   */\n    tag_154:\n        /* \"#utility.yul\":5382:5385   */\n      0x00\n        /* \"#utility.yul\":5418:5422   */\n      0x60\n        /* \"#utility.yul\":5413:5416   */\n      dup4\n        /* \"#utility.yul\":5409:5423   */\n      add\n        /* \"#utility.yul\":5503:5507   */\n      0x00\n        /* \"#utility.yul\":5496:5501   */\n      dup4\n        /* \"#utility.yul\":5492:5508   */\n      add\n        /* \"#utility.yul\":5486:5509   */\n      mload\n        /* \"#utility.yul\":5522:5585   */\n      tag_255\n        /* \"#utility.yul\":5579:5583   */\n      0x00\n        /* \"#utility.yul\":5574:5577   */\n      dup7\n        /* \"#utility.yul\":5570:5584   */\n      add\n        /* \"#utility.yul\":5556:5568   */\n      dup3\n        /* \"#utility.yul\":5522:5585   */\n      tag_150\n      jump\t// in\n    tag_255:\n        /* \"#utility.yul\":5433:5595   */\n      pop\n        /* \"#utility.yul\":5681:5685   */\n      0x20\n        /* \"#utility.yul\":5674:5679   */\n      dup4\n        /* \"#utility.yul\":5670:5686   */\n      add\n        /* \"#utility.yul\":5664:5687   */\n      mload\n        /* \"#utility.yul\":5734:5737   */\n      dup5\n        /* \"#utility.yul\":5728:5732   */\n      dup3\n        /* \"#utility.yul\":5724:5738   */\n      sub\n        /* \"#utility.yul\":5717:5721   */\n      0x20\n        /* \"#utility.yul\":5712:5715   */\n      dup7\n        /* \"#utility.yul\":5708:5722   */\n      add\n        /* \"#utility.yul\":5701:5739   */\n      mstore\n        /* \"#utility.yul\":5760:5833   */\n      tag_256\n        /* \"#utility.yul\":5828:5832   */\n      dup3\n        /* \"#utility.yul\":5814:5826   */\n      dup3\n        /* \"#utility.yul\":5760:5833   */\n      tag_152\n      jump\t// in\n    tag_256:\n        /* \"#utility.yul\":5752:5833   */\n      swap2\n      pop\n        /* \"#utility.yul\":5605:5844   */\n      pop\n        /* \"#utility.yul\":5929:5933   */\n      0x40\n        /* \"#utility.yul\":5922:5927   */\n      dup4\n        /* \"#utility.yul\":5918:5934   */\n      add\n        /* \"#utility.yul\":5912:5935   */\n      mload\n        /* \"#utility.yul\":5948:6011   */\n      tag_257\n        /* \"#utility.yul\":6005:6009   */\n      0x40\n        /* \"#utility.yul\":6000:6003   */\n      dup7\n        /* \"#utility.yul\":5996:6010   */\n      add\n        /* \"#utility.yul\":5982:5994   */\n      dup3\n        /* \"#utility.yul\":5948:6011   */\n      tag_153\n      jump\t// in\n    tag_257:\n        /* \"#utility.yul\":5854:6021   */\n      pop\n        /* \"#utility.yul\":6038:6042   */\n      dup1\n        /* \"#utility.yul\":6031:6042   */\n      swap2\n      pop\n        /* \"#utility.yul\":5387:6048   */\n      pop\n        /* \"#utility.yul\":5267:6048   */\n      swap3\n      swap2\n      pop\n      pop\n      jump\t// out\n        /* \"#utility.yul\":6054:6419   */\n    tag_62:\n        /* \"#utility.yul\":6193:6197   */\n      0x00\n        /* \"#utility.yul\":6231:6233   */\n      0x20\n        /* \"#utility.yul\":6220:6229   */\n      dup3\n        /* \"#utility.yul\":6216:6234   */\n      add\n        /* \"#utility.yul\":6208:6234   */\n      swap1\n      pop\n        /* \"#utility.yul\":6280:6289   */\n      dup2\n        /* \"#utility.yul\":6274:6278   */\n      dup2\n        /* \"#utility.yul\":6270:6290   */\n      sub\n        /* \"#utility.yul\":6266:6267   */\n      0x00\n        /* \"#utility.yul\":6255:6264   */\n      dup4\n        /* \"#utility.yul\":6251:6268   */\n      add\n        /* \"#utility.yul\":6244:6291   */\n      mstore\n        /* \"#utility.yul\":6308:6412   */\n      tag_259\n        /* \"#utility.yul\":6407:6411   */\n      dup2\n        /* \"#utility.yul\":6398:6404   */\n      dup5\n        /* \"#utility.yul\":6308:6412   */\n      tag_154\n      jump\t// in\n    tag_259:\n        /* \"#utility.yul\":6300:6412   */\n      swap1\n      pop\n        /* \"#utility.yul\":6054:6419   */\n      swap3\n      swap2\n      pop\n      pop\n      jump\t// out\n        /* \"#utility.yul\":6425:6562   */\n    tag_155:\n        /* \"#utility.yul\":6515:6521   */\n      0x00\n        /* \"#utility.yul\":6549:6554   */\n      dup2\n        /* \"#utility.yul\":6543:6555   */\n      mload\n        /* \"#utility.yul\":6533:6555   */\n      swap1\n      pop\n        /* \"#utility.yul\":6425:6562   */\n      swap2\n      swap1\n      pop\n      jump\t// out\n        /* \"#utility.yul\":6568:6775   */\n    tag_156:\n        /* \"#utility.yul\":6690:6701   */\n      0x00\n        /* \"#utility.yul\":6724:6730   */\n      dup3\n        /* \"#utility.yul\":6719:6722   */\n      dup3\n        /* \"#utility.yul\":6712:6731   */\n      mstore\n        /* \"#utility.yul\":6764:6768   */\n      0x20\n        /* \"#utility.yul\":6759:6762   */\n      dup3\n        /* \"#utility.yul\":6755:6769   */\n      add\n        /* \"#utility.yul\":6740:6769   */\n      swap1\n      pop\n        /* \"#utility.yul\":6568:6775   */\n      swap3\n      swap2\n      pop\n      pop\n      jump\t// out\n        /* \"#utility.yul\":6781:6936   */\n    tag_157:\n        /* \"#utility.yul\":6871:6875   */\n      0x00\n        /* \"#utility.yul\":6894:6897   */\n      dup2\n        /* \"#utility.yul\":6886:6897   */\n      swap1\n      pop\n        /* \"#utility.yul\":6924:6928   */\n      0x20\n        /* \"#utility.yul\":6919:6922   */\n      dup3\n        /* \"#utility.yul\":6915:6929   */\n      add\n        /* \"#utility.yul\":6907:6929   */\n      swap1\n      pop\n        /* \"#utility.yul\":6781:6936   */\n      swap2\n      swap1\n      pop\n      jump\t// out\n        /* \"#utility.yul\":7000:7771   */\n    tag_158:\n        /* \"#utility.yul\":7105:7108   */\n      0x00\n        /* \"#utility.yul\":7141:7145   */\n      0x60\n        /* \"#utility.yul\":7136:7139   */\n      dup4\n        /* \"#utility.yul\":7132:7146   */\n      add\n        /* \"#utility.yul\":7226:7230   */\n      0x00\n        /* \"#utility.yul\":7219:7224   */\n      dup4\n        /* \"#utility.yul\":7215:7231   */\n      add\n        /* \"#utility.yul\":7209:7232   */\n      mload\n        /* \"#utility.yul\":7245:7308   */\n      tag_264\n        /* \"#utility.yul\":7302:7306   */\n      0x00\n        /* \"#utility.yul\":7297:7300   */\n      dup7\n        /* \"#utility.yul\":7293:7307   */\n      add\n        /* \"#utility.yul\":7279:7291   */\n      dup3\n        /* \"#utility.yul\":7245:7308   */\n      tag_150\n      jump\t// in\n    tag_264:\n        /* \"#utility.yul\":7156:7318   */\n      pop\n        /* \"#utility.yul\":7404:7408   */\n      0x20\n        /* \"#utility.yul\":7397:7402   */\n      dup4\n        /* \"#utility.yul\":7393:7409   */\n      add\n        /* \"#utility.yul\":7387:7410   */\n      mload\n        /* \"#utility.yul\":7457:7460   */\n      dup5\n        /* \"#utility.yul\":7451:7455   */\n      dup3\n        /* \"#utility.yul\":7447:7461   */\n      sub\n        /* \"#utility.yul\":7440:7444   */\n      0x20\n        /* \"#utility.yul\":7435:7438   */\n      dup7\n        /* \"#utility.yul\":7431:7445   */\n      add\n        /* \"#utility.yul\":7424:7462   */\n      mstore\n        /* \"#utility.yul\":7483:7556   */\n      tag_265\n        /* \"#utility.yul\":7551:7555   */\n      dup3\n        /* \"#utility.yul\":7537:7549   */\n      dup3\n        /* \"#utility.yul\":7483:7556   */\n      tag_152\n      jump\t// in\n    tag_265:\n        /* \"#utility.yul\":7475:7556   */\n      swap2\n      pop\n        /* \"#utility.yul\":7328:7567   */\n      pop\n        /* \"#utility.yul\":7652:7656   */\n      0x40\n        /* \"#utility.yul\":7645:7650   */\n      dup4\n        /* \"#utility.yul\":7641:7657   */\n      add\n        /* \"#utility.yul\":7635:7658   */\n      mload\n        /* \"#utility.yul\":7671:7734   */\n      tag_266\n        /* \"#utility.yul\":7728:7732   */\n      0x40\n        /* \"#utility.yul\":7723:7726   */\n      dup7\n        /* \"#utility.yul\":7719:7733   */\n      add\n        /* \"#utility.yul\":7705:7717   */\n      dup3\n        /* \"#utility.yul\":7671:7734   */\n      tag_153\n      jump\t// in\n    tag_266:\n        /* \"#utility.yul\":7577:7744   */\n      pop\n        /* \"#utility.yul\":7761:7765   */\n      dup1\n        /* \"#utility.yul\":7754:7765   */\n      swap2\n      pop\n        /* \"#utility.yul\":7110:7771   */\n      pop\n        /* \"#utility.yul\":7000:7771   */\n      swap3\n      swap2\n      pop\n      pop\n      jump\t// out\n        /* \"#utility.yul\":7777:8025   */\n    tag_159:\n        /* \"#utility.yul\":7892:7902   */\n      0x00\n        /* \"#utility.yul\":7927:8019   */\n      tag_268\n        /* \"#utility.yul\":8015:8018   */\n      dup4\n        /* \"#utility.yul\":8007:8013   */\n      dup4\n        /* \"#utility.yul\":7927:8019   */\n      tag_158\n      jump\t// in\n    tag_268:\n        /* \"#utility.yul\":7913:8019   */\n      swap1\n      pop\n        /* \"#utility.yul\":7777:8025   */\n      swap3\n      swap2\n      pop\n      pop\n      jump\t// out\n        /* \"#utility.yul\":8031:8167   */\n    tag_160:\n        /* \"#utility.yul\":8124:8128   */\n      0x00\n        /* \"#utility.yul\":8156:8160   */\n      0x20\n        /* \"#utility.yul\":8151:8154   */\n      dup3\n        /* \"#utility.yul\":8147:8161   */\n      add\n        /* \"#utility.yul\":8139:8161   */\n      swap1\n      pop\n        /* \"#utility.yul\":8031:8167   */\n      swap2\n      swap1\n      pop\n      jump\t// out\n        /* \"#utility.yul\":8235:9330   */\n    tag_161:\n        /* \"#utility.yul\":8400:8403   */\n      0x00\n        /* \"#utility.yul\":8429:8506   */\n      tag_271\n        /* \"#utility.yul\":8500:8505   */\n      dup3\n        /* \"#utility.yul\":8429:8506   */\n      tag_155\n      jump\t// in\n    tag_271:\n        /* \"#utility.yul\":8522:8631   */\n      tag_272\n        /* \"#utility.yul\":8624:8630   */\n      dup2\n        /* \"#utility.yul\":8619:8622   */\n      dup6\n        /* \"#utility.yul\":8522:8631   */\n      tag_156\n      jump\t// in\n    tag_272:\n        /* \"#utility.yul\":8515:8631   */\n      swap4\n      pop\n        /* \"#utility.yul\":8657:8660   */\n      dup4\n        /* \"#utility.yul\":8702:8706   */\n      0x20\n        /* \"#utility.yul\":8694:8700   */\n      dup3\n        /* \"#utility.yul\":8690:8707   */\n      mul\n        /* \"#utility.yul\":8685:8688   */\n      dup6\n        /* \"#utility.yul\":8681:8708   */\n      add\n        /* \"#utility.yul\":8732:8811   */\n      tag_273\n        /* \"#utility.yul\":8805:8810   */\n      dup6\n        /* \"#utility.yul\":8732:8811   */\n      tag_157\n      jump\t// in\n    tag_273:\n        /* \"#utility.yul\":8834:8841   */\n      dup1\n        /* \"#utility.yul\":8865:8866   */\n      0x00\n        /* \"#utility.yul\":8850:9285   */\n    tag_274:\n        /* \"#utility.yul\":8875:8881   */\n      dup6\n        /* \"#utility.yul\":8872:8873   */\n      dup2\n        /* \"#utility.yul\":8869:8882   */\n      lt\n        /* \"#utility.yul\":8850:9285   */\n      iszero\n      tag_276\n      jumpi\n        /* \"#utility.yul\":8946:8955   */\n      dup5\n        /* \"#utility.yul\":8940:8944   */\n      dup5\n        /* \"#utility.yul\":8936:8956   */\n      sub\n        /* \"#utility.yul\":8931:8934   */\n      dup10\n        /* \"#utility.yul\":8924:8957   */\n      mstore\n        /* \"#utility.yul\":8997:9003   */\n      dup2\n        /* \"#utility.yul\":8991:9004   */\n      mload\n        /* \"#utility.yul\":9025:9135   */\n      tag_277\n        /* \"#utility.yul\":9130:9134   */\n      dup6\n        /* \"#utility.yul\":9115:9128   */\n      dup3\n        /* \"#utility.yul\":9025:9135   */\n      tag_159\n      jump\t// in\n    tag_277:\n        /* \"#utility.yul\":9017:9135   */\n      swap5\n      pop\n        /* \"#utility.yul\":9158:9241   */\n      tag_278\n        /* \"#utility.yul\":9234:9240   */\n      dup4\n        /* \"#utility.yul\":9158:9241   */\n      tag_160\n      jump\t// in\n    tag_278:\n        /* \"#utility.yul\":9148:9241   */\n      swap3\n      pop\n        /* \"#utility.yul\":9270:9274   */\n      0x20\n        /* \"#utility.yul\":9265:9268   */\n      dup11\n        /* \"#utility.yul\":9261:9275   */\n      add\n        /* \"#utility.yul\":9254:9275   */\n      swap10\n      pop\n        /* \"#utility.yul\":8910:9285   */\n      pop\n        /* \"#utility.yul\":8897:8898   */\n      0x01\n        /* \"#utility.yul\":8894:8895   */\n      dup2\n        /* \"#utility.yul\":8890:8899   */\n      add\n        /* \"#utility.yul\":8885:8899   */\n      swap1\n      pop\n        /* \"#utility.yul\":8850:9285   */\n      jump(tag_274)\n    tag_276:\n        /* \"#utility.yul\":8854:8868   */\n      pop\n        /* \"#utility.yul\":9301:9305   */\n      dup3\n        /* \"#utility.yul\":9294:9305   */\n      swap8\n      pop\n        /* \"#utility.yul\":9321:9324   */\n      dup8\n        /* \"#utility.yul\":9314:9324   */\n      swap6\n      pop\n        /* \"#utility.yul\":8405:9330   */\n      pop\n      pop\n      pop\n      pop\n      pop\n        /* \"#utility.yul\":8235:9330   */\n      swap3\n      swap2\n      pop\n      pop\n      jump\t// out\n        /* \"#utility.yul\":9336:9801   */\n    tag_66:\n        /* \"#utility.yul\":9525:9529   */\n      0x00\n        /* \"#utility.yul\":9563:9565   */\n      0x20\n        /* \"#utility.yul\":9552:9561   */\n      dup3\n        /* \"#utility.yul\":9548:9566   */\n      add\n        /* \"#utility.yul\":9540:9566   */\n      swap1\n      pop\n        /* \"#utility.yul\":9612:9621   */\n      dup2\n        /* \"#utility.yul\":9606:9610   */\n      dup2\n        /* \"#utility.yul\":9602:9622   */\n      sub\n        /* \"#utility.yul\":9598:9599   */\n      0x00\n        /* \"#utility.yul\":9587:9596   */\n      dup4\n        /* \"#utility.yul\":9583:9600   */\n      add\n        /* \"#utility.yul\":9576:9623   */\n      mstore\n        /* \"#utility.yul\":9640:9794   */\n      tag_280\n        /* \"#utility.yul\":9789:9793   */\n      dup2\n        /* \"#utility.yul\":9780:9786   */\n      dup5\n        /* \"#utility.yul\":9640:9794   */\n      tag_161\n      jump\t// in\n    tag_280:\n        /* \"#utility.yul\":9632:9794   */\n      swap1\n      pop\n        /* \"#utility.yul\":9336:9801   */\n      swap3\n      swap2\n      pop\n      pop\n      jump\t// out\n        /* \"#utility.yul\":9807:9924   */\n    tag_162:\n        /* \"#utility.yul\":9916:9917   */\n      0x00\n        /* \"#utility.yul\":9913:9914   */\n      0x00\n        /* \"#utility.yul\":9906:9918   */\n      revert\n        /* \"#utility.yul\":9930:10047   */\n    tag_163:\n        /* \"#utility.yul\":10039:10040   */\n      0x00\n        /* \"#utility.yul\":10036:10037   */\n      0x00\n        /* \"#utility.yul\":10029:10041   */\n      revert\n        /* \"#utility.yul\":10053:10233   */\n    tag_164:\n        /* \"#utility.yul\":10101:10178   */\n      0x4e487b7100000000000000000000000000000000000000000000000000000000\n        /* \"#utility.yul\":10098:10099   */\n      0x00\n        /* \"#utility.yul\":10091:10179   */\n      mstore\n        /* \"#utility.yul\":10198:10202   */\n      0x41\n        /* \"#utility.yul\":10195:10196   */\n      0x04\n        /* \"#utility.yul\":10188:10203   */\n      mstore\n        /* \"#utility.yul\":10222:10226   */\n      0x24\n        /* \"#utility.yul\":10219:10220   */\n      0x00\n        /* \"#utility.yul\":10212:10227   */\n      revert\n        /* \"#utility.yul\":10239:10520   */\n    tag_165:\n        /* \"#utility.yul\":10322:10349   */\n      tag_285\n        /* \"#utility.yul\":10344:10348   */\n      dup3\n        /* \"#utility.yul\":10322:10349   */\n      tag_141\n      jump\t// in\n    tag_285:\n        /* \"#utility.yul\":10314:10320   */\n      dup2\n        /* \"#utility.yul\":10310:10350   */\n      add\n        /* \"#utility.yul\":10452:10458   */\n      dup2\n        /* \"#utility.yul\":10440:10450   */\n      dup2\n        /* \"#utility.yul\":10437:10459   */\n      lt\n        /* \"#utility.yul\":10416:10434   */\n      0xffffffffffffffff\n        /* \"#utility.yul\":10404:10414   */\n      dup3\n        /* \"#utility.yul\":10401:10435   */\n      gt\n        /* \"#utility.yul\":10398:10460   */\n      or\n        /* \"#utility.yul\":10395:10483   */\n      iszero\n      tag_286\n      jumpi\n        /* \"#utility.yul\":10463:10481   */\n      tag_287\n      tag_164\n      jump\t// in\n    tag_287:\n        /* \"#utility.yul\":10395:10483   */\n    tag_286:\n        /* \"#utility.yul\":10503:10513   */\n      dup1\n        /* \"#utility.yul\":10499:10501   */\n      0x40\n        /* \"#utility.yul\":10492:10514   */\n      mstore\n        /* \"#utility.yul\":10282:10520   */\n      pop\n        /* \"#utility.yul\":10239:10520   */\n      pop\n      pop\n      jump\t// out\n        /* \"#utility.yul\":10526:10655   */\n    tag_166:\n        /* \"#utility.yul\":10560:10566   */\n      0x00\n        /* \"#utility.yul\":10587:10607   */\n      tag_289\n      tag_131\n      jump\t// in\n    tag_289:\n        /* \"#utility.yul\":10577:10607   */\n      swap1\n      pop\n        /* \"#utility.yul\":10616:10649   */\n      tag_290\n        /* \"#utility.yul\":10644:10648   */\n      dup3\n        /* \"#utility.yul\":10636:10642   */\n      dup3\n        /* \"#utility.yul\":10616:10649   */\n      tag_165\n      jump\t// in\n    tag_290:\n        /* \"#utility.yul\":10526:10655   */\n      swap2\n      swap1\n      pop\n      jump\t// out\n        /* \"#utility.yul\":10661:10969   */\n    tag_167:\n        /* \"#utility.yul\":10723:10727   */\n      0x00\n        /* \"#utility.yul\":10813:10831   */\n      0xffffffffffffffff\n        /* \"#utility.yul\":10805:10811   */\n      dup3\n        /* \"#utility.yul\":10802:10832   */\n      gt\n        /* \"#utility.yul\":10799:10855   */\n      iszero\n      tag_292\n      jumpi\n        /* \"#utility.yul\":10835:10853   */\n      tag_293\n      tag_164\n      jump\t// in\n    tag_293:\n        /* \"#utility.yul\":10799:10855   */\n    tag_292:\n        /* \"#utility.yul\":10873:10902   */\n      tag_294\n        /* \"#utility.yul\":10895:10901   */\n      dup3\n        /* \"#utility.yul\":10873:10902   */\n      tag_141\n      jump\t// in\n    tag_294:\n        /* \"#utility.yul\":10865:10902   */\n      swap1\n      pop\n        /* \"#utility.yul\":10957:10961   */\n      0x20\n        /* \"#utility.yul\":10951:10955   */\n      dup2\n        /* \"#utility.yul\":10947:10962   */\n      add\n        /* \"#utility.yul\":10939:10962   */\n      swap1\n      pop\n        /* \"#utility.yul\":10661:10969   */\n      swap2\n      swap1\n      pop\n      jump\t// out\n        /* \"#utility.yul\":10975:11123   */\n    tag_168:\n        /* \"#utility.yul\":11073:11079   */\n      dup3\n        /* \"#utility.yul\":11068:11071   */\n      dup2\n        /* \"#utility.yul\":11063:11066   */\n      dup4\n        /* \"#utility.yul\":11050:11080   */\n      calldatacopy\n        /* \"#utility.yul\":11114:11115   */\n      0x00\n        /* \"#utility.yul\":11105:11111   */\n      dup4\n        /* \"#utility.yul\":11100:11103   */\n      dup4\n        /* \"#utility.yul\":11096:11112   */\n      add\n        /* \"#utility.yul\":11089:11116   */\n      mstore\n        /* \"#utility.yul\":10975:11123   */\n      pop\n      pop\n      pop\n      jump\t// out\n        /* \"#utility.yul\":11129:11554   */\n    tag_169:\n        /* \"#utility.yul\":11207:11212   */\n      0x00\n        /* \"#utility.yul\":11232:11298   */\n      tag_297\n        /* \"#utility.yul\":11248:11297   */\n      tag_298\n        /* \"#utility.yul\":11290:11296   */\n      dup5\n        /* \"#utility.yul\":11248:11297   */\n      tag_167\n      jump\t// in\n    tag_298:\n        /* \"#utility.yul\":11232:11298   */\n      tag_166\n      jump\t// in\n    tag_297:\n        /* \"#utility.yul\":11223:11298   */\n      swap1\n      pop\n        /* \"#utility.yul\":11321:11327   */\n      dup3\n        /* \"#utility.yul\":11314:11319   */\n      dup2\n        /* \"#utility.yul\":11307:11328   */\n      mstore\n        /* \"#utility.yul\":11359:11363   */\n      0x20\n        /* \"#utility.yul\":11352:11357   */\n      dup2\n        /* \"#utility.yul\":11348:11364   */\n      add\n        /* \"#utility.yul\":11397:11400   */\n      dup5\n        /* \"#utility.yul\":11388:11394   */\n      dup5\n        /* \"#utility.yul\":11383:11386   */\n      dup5\n        /* \"#utility.yul\":11379:11395   */\n      add\n        /* \"#utility.yul\":11376:11401   */\n      gt\n        /* \"#utility.yul\":11373:11485   */\n      iszero\n      tag_299\n      jumpi\n        /* \"#utility.yul\":11404:11483   */\n      tag_300\n      tag_163\n      jump\t// in\n    tag_300:\n        /* \"#utility.yul\":11373:11485   */\n    tag_299:\n        /* \"#utility.yul\":11494:11548   */\n      tag_301\n        /* \"#utility.yul\":11541:11547   */\n      dup5\n        /* \"#utility.yul\":11536:11539   */\n      dup3\n        /* \"#utility.yul\":11531:11534   */\n      dup6\n        /* \"#utility.yul\":11494:11548   */\n      tag_168\n      jump\t// in\n    tag_301:\n        /* \"#utility.yul\":11213:11554   */\n      pop\n        /* \"#utility.yul\":11129:11554   */\n      swap4\n      swap3\n      pop\n      pop\n      pop\n      jump\t// out\n        /* \"#utility.yul\":11574:11914   */\n    tag_170:\n        /* \"#utility.yul\":11630:11635   */\n      0x00\n        /* \"#utility.yul\":11679:11682   */\n      dup3\n        /* \"#utility.yul\":11672:11676   */\n      0x1f\n        /* \"#utility.yul\":11664:11670   */\n      dup4\n        /* \"#utility.yul\":11660:11677   */\n      add\n        /* \"#utility.yul\":11656:11683   */\n      slt\n        /* \"#utility.yul\":11646:11768   */\n      tag_303\n      jumpi\n        /* \"#utility.yul\":11687:11766   */\n      tag_304\n      tag_162\n      jump\t// in\n    tag_304:\n        /* \"#utility.yul\":11646:11768   */\n    tag_303:\n        /* \"#utility.yul\":11804:11810   */\n      dup2\n        /* \"#utility.yul\":11791:11811   */\n      calldataload\n        /* \"#utility.yul\":11829:11908   */\n      tag_305\n        /* \"#utility.yul\":11904:11907   */\n      dup5\n        /* \"#utility.yul\":11896:11902   */\n      dup3\n        /* \"#utility.yul\":11889:11893   */\n      0x20\n        /* \"#utility.yul\":11881:11887   */\n      dup7\n        /* \"#utility.yul\":11877:11894   */\n      add\n        /* \"#utility.yul\":11829:11908   */\n      tag_169\n      jump\t// in\n    tag_305:\n        /* \"#utility.yul\":11820:11908   */\n      swap2\n      pop\n        /* \"#utility.yul\":11636:11914   */\n      pop\n        /* \"#utility.yul\":11574:11914   */\n      swap3\n      swap2\n      pop\n      pop\n      jump\t// out\n        /* \"#utility.yul\":11920:12719   */\n    tag_72:\n        /* \"#utility.yul\":12007:12013   */\n      0x00\n        /* \"#utility.yul\":12015:12021   */\n      0x00\n        /* \"#utility.yul\":12023:12029   */\n      0x00\n        /* \"#utility.yul\":12072:12074   */\n      0x60\n        /* \"#utility.yul\":12060:12069   */\n      dup5\n        /* \"#utility.yul\":12051:12058   */\n      dup7\n        /* \"#utility.yul\":12047:12070   */\n      sub\n        /* \"#utility.yul\":12043:12075   */\n      slt\n        /* \"#utility.yul\":12040:12159   */\n      iszero\n      tag_307\n      jumpi\n        /* \"#utility.yul\":12078:12157   */\n      tag_308\n      tag_132\n      jump\t// in\n    tag_308:\n        /* \"#utility.yul\":12040:12159   */\n    tag_307:\n        /* \"#utility.yul\":12198:12199   */\n      0x00\n        /* \"#utility.yul\":12223:12276   */\n      tag_309\n        /* \"#utility.yul\":12268:12275   */\n      dup7\n        /* \"#utility.yul\":12259:12265   */\n      dup3\n        /* \"#utility.yul\":12248:12257   */\n      dup8\n        /* \"#utility.yul\":12244:12266   */\n      add\n        /* \"#utility.yul\":12223:12276   */\n      tag_136\n      jump\t// in\n    tag_309:\n        /* \"#utility.yul\":12213:12276   */\n      swap4\n      pop\n        /* \"#utility.yul\":12169:12286   */\n      pop\n        /* \"#utility.yul\":12353:12355   */\n      0x20\n        /* \"#utility.yul\":12342:12351   */\n      dup5\n        /* \"#utility.yul\":12338:12356   */\n      add\n        /* \"#utility.yul\":12325:12357   */\n      calldataload\n        /* \"#utility.yul\":12384:12402   */\n      0xffffffffffffffff\n        /* \"#utility.yul\":12376:12382   */\n      dup2\n        /* \"#utility.yul\":12373:12403   */\n      gt\n        /* \"#utility.yul\":12370:12487   */\n      iszero\n      tag_310\n      jumpi\n        /* \"#utility.yul\":12406:12485   */\n      tag_311\n      tag_133\n      jump\t// in\n    tag_311:\n        /* \"#utility.yul\":12370:12487   */\n    tag_310:\n        /* \"#utility.yul\":12511:12574   */\n      tag_312\n        /* \"#utility.yul\":12566:12573   */\n      dup7\n        /* \"#utility.yul\":12557:12563   */\n      dup3\n        /* \"#utility.yul\":12546:12555   */\n      dup8\n        /* \"#utility.yul\":12542:12564   */\n      add\n        /* \"#utility.yul\":12511:12574   */\n      tag_170\n      jump\t// in\n    tag_312:\n        /* \"#utility.yul\":12501:12574   */\n      swap3\n      pop\n        /* \"#utility.yul\":12296:12584   */\n      pop\n        /* \"#utility.yul\":12623:12625   */\n      0x40\n        /* \"#utility.yul\":12649:12702   */\n      tag_313\n        /* \"#utility.yul\":12694:12701   */\n      dup7\n        /* \"#utility.yul\":12685:12691   */\n      dup3\n        /* \"#utility.yul\":12674:12683   */\n      dup8\n        /* \"#utility.yul\":12670:12692   */\n      add\n        /* \"#utility.yul\":12649:12702   */\n      tag_147\n      jump\t// in\n    tag_313:\n        /* \"#utility.yul\":12639:12702   */\n      swap2\n      pop\n        /* \"#utility.yul\":12594:12712   */\n      pop\n        /* \"#utility.yul\":11920:12719   */\n      swap3\n      pop\n      swap3\n      pop\n      swap3\n      jump\t// out\n        /* \"#utility.yul\":12725:12888   */\n    tag_171:\n        /* \"#utility.yul\":12865:12880   */\n      0x416c726561647920766f74656400000000000000000000000000000000000000\n        /* \"#utility.yul\":12861:12862   */\n      0x00\n        /* \"#utility.yul\":12853:12859   */\n      dup3\n        /* \"#utility.yul\":12849:12863   */\n      add\n        /* \"#utility.yul\":12842:12881   */\n      mstore\n        /* \"#utility.yul\":12725:12888   */\n      pop\n      jump\t// out\n        /* \"#utility.yul\":12894:13260   */\n    tag_172:\n        /* \"#utility.yul\":13036:13039   */\n      0x00\n        /* \"#utility.yul\":13057:13124   */\n      tag_316\n        /* \"#utility.yul\":13121:13123   */\n      0x0d\n        /* \"#utility.yul\":13116:13119   */\n      dup4\n        /* \"#utility.yul\":13057:13124   */\n      tag_139\n      jump\t// in\n    tag_316:\n        /* \"#utility.yul\":13050:13124   */\n      swap2\n      pop\n        /* \"#utility.yul\":13133:13226   */\n      tag_317\n        /* \"#utility.yul\":13222:13225   */\n      dup3\n        /* \"#utility.yul\":13133:13226   */\n      tag_171\n      jump\t// in\n    tag_317:\n        /* \"#utility.yul\":13251:13253   */\n      0x20\n        /* \"#utility.yul\":13246:13249   */\n      dup3\n        /* \"#utility.yul\":13242:13254   */\n      add\n        /* \"#utility.yul\":13235:13254   */\n      swap1\n      pop\n        /* \"#utility.yul\":12894:13260   */\n      swap2\n      swap1\n      pop\n      jump\t// out\n        /* \"#utility.yul\":13266:13685   */\n    tag_81:\n        /* \"#utility.yul\":13432:13436   */\n      0x00\n        /* \"#utility.yul\":13470:13472   */\n      0x20\n        /* \"#utility.yul\":13459:13468   */\n      dup3\n        /* \"#utility.yul\":13455:13473   */\n      add\n        /* \"#utility.yul\":13447:13473   */\n      swap1\n      pop\n        /* \"#utility.yul\":13519:13528   */\n      dup2\n        /* \"#utility.yul\":13513:13517   */\n      dup2\n        /* \"#utility.yul\":13509:13529   */\n      sub\n        /* \"#utility.yul\":13505:13506   */\n      0x00\n        /* \"#utility.yul\":13494:13503   */\n      dup4\n        /* \"#utility.yul\":13490:13507   */\n      add\n        /* \"#utility.yul\":13483:13530   */\n      mstore\n        /* \"#utility.yul\":13547:13678   */\n      tag_319\n        /* \"#utility.yul\":13673:13677   */\n      dup2\n        /* \"#utility.yul\":13547:13678   */\n      tag_172\n      jump\t// in\n    tag_319:\n        /* \"#utility.yul\":13539:13678   */\n      swap1\n      pop\n        /* \"#utility.yul\":13266:13685   */\n      swap2\n      swap1\n      pop\n      jump\t// out\n        /* \"#utility.yul\":13691:13871   */\n    tag_173:\n        /* \"#utility.yul\":13739:13816   */\n      0x4e487b7100000000000000000000000000000000000000000000000000000000\n        /* \"#utility.yul\":13736:13737   */\n      0x00\n        /* \"#utility.yul\":13729:13817   */\n      mstore\n        /* \"#utility.yul\":13836:13840   */\n      0x11\n        /* \"#utility.yul\":13833:13834   */\n      0x04\n        /* \"#utility.yul\":13826:13841   */\n      mstore\n        /* \"#utility.yul\":13860:13864   */\n      0x24\n        /* \"#utility.yul\":13857:13858   */\n      0x00\n        /* \"#utility.yul\":13850:13865   */\n      revert\n        /* \"#utility.yul\":13877:14110   */\n    tag_83:\n        /* \"#utility.yul\":13916:13919   */\n      0x00\n        /* \"#utility.yul\":13939:13963   */\n      tag_322\n        /* \"#utility.yul\":13957:13962   */\n      dup3\n        /* \"#utility.yul\":13939:13963   */\n      tag_134\n      jump\t// in\n    tag_322:\n        /* \"#utility.yul\":13930:13963   */\n      swap2\n      pop\n        /* \"#utility.yul\":13985:14051   */\n      0xffffffffffffffffffffffffffffffffffffffffffffffffffffffffffffffff\n        /* \"#utility.yul\":13978:13983   */\n      dup3\n        /* \"#utility.yul\":13975:14052   */\n      sub\n        /* \"#utility.yul\":13972:14075   */\n      tag_323\n      jumpi\n        /* \"#utility.yul\":14055:14073   */\n      tag_324\n      tag_173\n      jump\t// in\n    tag_324:\n        /* \"#utility.yul\":13972:14075   */\n    tag_323:\n        /* \"#utility.yul\":14102:14103   */\n      0x01\n        /* \"#utility.yul\":14095:14100   */\n      dup3\n        /* \"#utility.yul\":14091:14104   */\n      add\n        /* \"#utility.yul\":14084:14104   */\n      swap1\n      pop\n        /* \"#utility.yul\":13877:14110   */\n      swap2\n      swap1\n      pop\n      jump\t// out\n        /* \"#utility.yul\":14116:14296   */\n    tag_174:\n        /* \"#utility.yul\":14164:14241   */\n      0x4e487b7100000000000000000000000000000000000000000000000000000000\n        /* \"#utility.yul\":14161:14162   */\n      0x00\n        /* \"#utility.yul\":14154:14242   */\n      mstore\n        /* \"#utility.yul\":14261:14265   */\n      0x22\n        /* \"#utility.yul\":14258:14259   */\n      0x04\n        /* \"#utility.yul\":14251:14266   */\n      mstore\n        /* \"#utility.yul\":14285:14289   */\n      0x24\n        /* \"#utility.yul\":14282:14283   */\n      0x00\n        /* \"#utility.yul\":14275:14290   */\n      revert\n        /* \"#utility.yul\":14302:14622   */\n    tag_87:\n        /* \"#utility.yul\":14346:14352   */\n      0x00\n        /* \"#utility.yul\":14383:14384   */\n      0x02\n        /* \"#utility.yul\":14377:14381   */\n      dup3\n        /* \"#utility.yul\":14373:14385   */\n      div\n        /* \"#utility.yul\":14363:14385   */\n      swap1\n      pop\n        /* \"#utility.yul\":14430:14431   */\n      0x01\n        /* \"#utility.yul\":14424:14428   */\n      dup3\n        /* \"#utility.yul\":14420:14432   */\n      and\n        /* \"#utility.yul\":14451:14469   */\n      dup1\n        /* \"#utility.yul\":14441:14522   */\n      tag_327\n      jumpi\n        /* \"#utility.yul\":14507:14511   */\n      0x7f\n        /* \"#utility.yul\":14499:14505   */\n      dup3\n        /* \"#utility.yul\":14495:14512   */\n      and\n        /* \"#utility.yul\":14485:14512   */\n      swap2\n      pop\n        /* \"#utility.yul\":14441:14522   */\n    tag_327:\n        /* \"#utility.yul\":14569:14571   */\n      0x20\n        /* \"#utility.yul\":14561:14567   */\n      dup3\n        /* \"#utility.yul\":14558:14572   */\n      lt\n        /* \"#utility.yul\":14538:14556   */\n      dup2\n        /* \"#utility.yul\":14535:14573   */\n      sub\n        /* \"#utility.yul\":14532:14616   */\n      tag_328\n      jumpi\n        /* \"#utility.yul\":14588:14606   */\n      tag_329\n      tag_174\n      jump\t// in\n    tag_329:\n        /* \"#utility.yul\":14532:14616   */\n    tag_328:\n        /* \"#utility.yul\":14353:14622   */\n      pop\n        /* \"#utility.yul\":14302:14622   */\n      swap2\n      swap1\n      pop\n      jump\t// out\n        /* \"#utility.yul\":14628:14808   */\n    tag_99:\n        /* \"#utility.yul\":14676:14753   */\n      0x4e487b7100000000000000000000000000000000000000000000000000000000\n        /* \"#utility.yul\":14673:14674   */\n      0x00\n        /* \"#utility.yul\":14666:14754   */\n      mstore\n        /* \"#utility.yul\":14773:14777   */\n      0x32\n        /* \"#utility.yul\":14770:14771   */\n      0x04\n        /* \"#utility.yul\":14763:14778   */\n      mstore\n        /* \"#utility.yul\":14797:14801   */\n      0x24\n        /* \"#utility.yul\":14794:14795   */\n      0x00\n        /* \"#utility.yul\":14787:14802   */\n      revert\n        /* \"#utility.yul\":14814:14975   */\n    tag_175:\n        /* \"#utility.yul\":14954:14967   */\n      0x206f6e6c79206f776e6572000000000000000000000000000000000000000000\n        /* \"#utility.yul\":14950:14951   */\n      0x00\n        /* \"#utility.yul\":14942:14948   */\n      dup3\n        /* \"#utility.yul\":14938:14952   */\n      add\n        /* \"#utility.yul\":14931:14968   */\n      mstore\n        /* \"#utility.yul\":14814:14975   */\n      pop\n      jump\t// out\n        /* \"#utility.yul\":14981:15347   */\n    tag_176:\n        /* \"#utility.yul\":15123:15126   */\n      0x00\n        /* \"#utility.yul\":15144:15211   */\n      tag_333\n        /* \"#utility.yul\":15208:15210   */\n      0x0b\n        /* \"#utility.yul\":15203:15206   */\n      dup4\n        /* \"#utility.yul\":15144:15211   */\n      tag_139\n      jump\t// in\n    tag_333:\n        /* \"#utility.yul\":15137:15211   */\n      swap2\n      pop\n        /* \"#utility.yul\":15220:15313   */\n      tag_334\n        /* \"#utility.yul\":15309:15312   */\n      dup3\n        /* \"#utility.yul\":15220:15313   */\n      tag_175\n      jump\t// in\n    tag_334:\n        /* \"#utility.yul\":15338:15340   */\n      0x20\n        /* \"#utility.yul\":15333:15336   */\n      dup3\n        /* \"#utility.yul\":15329:15341   */\n      add\n        /* \"#utility.yul\":15322:15341   */\n      swap1\n      pop\n        /* \"#utility.yul\":14981:15347   */\n      swap2\n      swap1\n      pop\n      jump\t// out\n        /* \"#utility.yul\":15353:15772   */\n    tag_125:\n        /* \"#utility.yul\":15519:15523   */\n      0x00\n        /* \"#utility.yul\":15557:15559   */\n      0x20\n        /* \"#utility.yul\":15546:15555   */\n      dup3\n        /* \"#utility.yul\":15542:15560   */\n      add\n        /* \"#utility.yul\":15534:15560   */\n      swap1\n      pop\n        /* \"#utility.yul\":15606:15615   */\n      dup2\n        /* \"#utility.yul\":15600:15604   */\n      dup2\n        /* \"#utility.yul\":15596:15616   */\n      sub\n        /* \"#utility.yul\":15592:15593   */\n      0x00\n        /* \"#utility.yul\":15581:15590   */\n      dup4\n        /* \"#utility.yul\":15577:15594   */\n      add\n        /* \"#utility.yul\":15570:15617   */\n      mstore\n        /* \"#utility.yul\":15634:15765   */\n      tag_336\n        /* \"#utility.yul\":15760:15764   */\n      dup2\n        /* \"#utility.yul\":15634:15765   */\n      tag_176\n      jump\t// in\n    tag_336:\n        /* \"#utility.yul\":15626:15765   */\n      swap1\n      pop\n        /* \"#utility.yul\":15353:15772   */\n      swap2\n      swap1\n      pop\n      jump\t// out\n        /* \"#utility.yul\":15778:15919   */\n    tag_177:\n        /* \"#utility.yul\":15827:15831   */\n      0x00\n        /* \"#utility.yul\":15850:15853   */\n      dup2\n        /* \"#utility.yul\":15842:15853   */\n      swap1\n      pop\n        /* \"#utility.yul\":15873:15876   */\n      dup2\n        /* \"#utility.yul\":15870:15871   */\n      0x00\n        /* \"#utility.yul\":15863:15877   */\n      mstore\n        /* \"#utility.yul\":15907:15911   */\n      0x20\n        /* \"#utility.yul\":15904:15905   */\n      0x00\n        /* \"#utility.yul\":15894:15912   */\n      keccak256\n        /* \"#utility.yul\":15886:15912   */\n      swap1\n      pop\n        /* \"#utility.yul\":15778:15919   */\n      swap2\n      swap1\n      pop\n      jump\t// out\n        /* \"#utility.yul\":15925:16018   */\n    tag_178:\n        /* \"#utility.yul\":15962:15968   */\n      0x00\n        /* \"#utility.yul\":16009:16011   */\n      0x20\n        /* \"#utility.yul\":16004:16006   */\n      0x1f\n        /* \"#utility.yul\":15997:16002   */\n      dup4\n        /* \"#utility.yul\":15993:16007   */\n      add\n        /* \"#utility.yul\":15989:16012   */\n      div\n        /* \"#utility.yul\":15979:16012   */\n      swap1\n      pop\n        /* \"#utility.yul\":15925:16018   */\n      swap2\n      swap1\n      pop\n      jump\t// out\n        /* \"#utility.yul\":16024:16131   */\n    tag_179:\n        /* \"#utility.yul\":16068:16076   */\n      0x00\n        /* \"#utility.yul\":16118:16123   */\n      dup3\n        /* \"#utility.yul\":16112:16116   */\n      dup3\n        /* \"#utility.yul\":16108:16124   */\n      shl\n        /* \"#utility.yul\":16087:16124   */\n      swap1\n      pop\n        /* \"#utility.yul\":16024:16131   */\n      swap3\n      swap2\n      pop\n      pop\n      jump\t// out\n        /* \"#utility.yul\":16137:16530   */\n    tag_180:\n        /* \"#utility.yul\":16206:16212   */\n      0x00\n        /* \"#utility.yul\":16256:16257   */\n      0x08\n        /* \"#utility.yul\":16244:16254   */\n      dup4\n        /* \"#utility.yul\":16240:16258   */\n      mul\n        /* \"#utility.yul\":16279:16376   */\n      tag_341\n        /* \"#utility.yul\":16309:16375   */\n      0xffffffffffffffffffffffffffffffffffffffffffffffffffffffffffffffff\n        /* \"#utility.yul\":16298:16307   */\n      dup3\n        /* \"#utility.yul\":16279:16376   */\n      tag_179\n      jump\t// in\n    tag_341:\n        /* \"#utility.yul\":16397:16436   */\n      tag_342\n        /* \"#utility.yul\":16427:16435   */\n      dup7\n        /* \"#utility.yul\":16416:16425   */\n      dup4\n        /* \"#utility.yul\":16397:16436   */\n      tag_179\n      jump\t// in\n    tag_342:\n        /* \"#utility.yul\":16385:16436   */\n      swap6\n      pop\n        /* \"#utility.yul\":16469:16473   */\n      dup1\n        /* \"#utility.yul\":16465:16474   */\n      not\n        /* \"#utility.yul\":16458:16463   */\n      dup5\n        /* \"#utility.yul\":16454:16475   */\n      and\n        /* \"#utility.yul\":16445:16475   */\n      swap4\n      pop\n        /* \"#utility.yul\":16518:16522   */\n      dup1\n        /* \"#utility.yul\":16508:16516   */\n      dup7\n        /* \"#utility.yul\":16504:16523   */\n      and\n        /* \"#utility.yul\":16497:16502   */\n      dup5\n        /* \"#utility.yul\":16494:16524   */\n      or\n        /* \"#utility.yul\":16484:16524   */\n      swap3\n      pop\n        /* \"#utility.yul\":16213:16530   */\n      pop\n      pop\n        /* \"#utility.yul\":16137:16530   */\n      swap4\n      swap3\n      pop\n      pop\n      pop\n      jump\t// out\n        /* \"#utility.yul\":16536:16596   */\n    tag_181:\n        /* \"#utility.yul\":16564:16567   */\n      0x00\n        /* \"#utility.yul\":16585:16590   */\n      dup2\n        /* \"#utility.yul\":16578:16590   */\n      swap1\n      pop\n        /* \"#utility.yul\":16536:16596   */\n      swap2\n      swap1\n      pop\n      jump\t// out\n        /* \"#utility.yul\":16602:16744   */\n    tag_182:\n        /* \"#utility.yul\":16652:16661   */\n      0x00\n        /* \"#utility.yul\":16685:16738   */\n      tag_345\n        /* \"#utility.yul\":16703:16737   */\n      tag_346\n        /* \"#utility.yul\":16712:16736   */\n      tag_347\n        /* \"#utility.yul\":16730:16735   */\n      dup5\n        /* \"#utility.yul\":16712:16736   */\n      tag_134\n      jump\t// in\n    tag_347:\n        /* \"#utility.yul\":16703:16737   */\n      tag_181\n      jump\t// in\n    tag_346:\n        /* \"#utility.yul\":16685:16738   */\n      tag_134\n      jump\t// in\n    tag_345:\n        /* \"#utility.yul\":16672:16738   */\n      swap1\n      pop\n        /* \"#utility.yul\":16602:16744   */\n      swap2\n      swap1\n      pop\n      jump\t// out\n        /* \"#utility.yul\":16750:16825   */\n    tag_183:\n        /* \"#utility.yul\":16793:16796   */\n      0x00\n        /* \"#utility.yul\":16814:16819   */\n      dup2\n        /* \"#utility.yul\":16807:16819   */\n      swap1\n      pop\n        /* \"#utility.yul\":16750:16825   */\n      swap2\n      swap1\n      pop\n      jump\t// out\n        /* \"#utility.yul\":16831:17100   */\n    tag_184:\n        /* \"#utility.yul\":16941:16980   */\n      tag_350\n        /* \"#utility.yul\":16972:16979   */\n      dup4\n        /* \"#utility.yul\":16941:16980   */\n      tag_182\n      jump\t// in\n    tag_350:\n        /* \"#utility.yul\":17002:17093   */\n      tag_351\n        /* \"#utility.yul\":17051:17092   */\n      tag_352\n        /* \"#utility.yul\":17075:17091   */\n      dup3\n        /* \"#utility.yul\":17051:17092   */\n      tag_183\n      jump\t// in\n    tag_352:\n        /* \"#utility.yul\":17043:17049   */\n      dup5\n        /* \"#utility.yul\":17036:17040   */\n      dup5\n        /* \"#utility.yul\":17030:17041   */\n      sload\n        /* \"#utility.yul\":17002:17093   */\n      tag_180\n      jump\t// in\n    tag_351:\n        /* \"#utility.yul\":16996:17000   */\n      dup3\n        /* \"#utility.yul\":16989:17094   */\n      sstore\n        /* \"#utility.yul\":16907:17100   */\n      pop\n        /* \"#utility.yul\":16831:17100   */\n      pop\n      pop\n      pop\n      jump\t// out\n        /* \"#utility.yul\":17106:17179   */\n    tag_185:\n        /* \"#utility.yul\":17151:17154   */\n      0x00\n        /* \"#utility.yul\":17172:17173   */\n      0x00\n        /* \"#utility.yul\":17165:17173   */\n      swap1\n      pop\n        /* \"#utility.yul\":17106:17179   */\n      swap1\n      jump\t// out\n        /* \"#utility.yul\":17185:17374   */\n    tag_186:\n        /* \"#utility.yul\":17262:17294   */\n      tag_355\n      tag_185\n      jump\t// in\n    tag_355:\n        /* \"#utility.yul\":17303:17368   */\n      tag_356\n        /* \"#utility.yul\":17361:17367   */\n      dup2\n        /* \"#utility.yul\":17353:17359   */\n      dup5\n        /* \"#utility.yul\":17347:17351   */\n      dup5\n        /* \"#utility.yul\":17303:17368   */\n      tag_184\n      jump\t// in\n    tag_356:\n        /* \"#utility.yul\":17238:17374   */\n      pop\n        /* \"#utility.yul\":17185:17374   */\n      pop\n      pop\n      jump\t// out\n        /* \"#utility.yul\":17380:17594   */\n    tag_187:\n        /* \"#utility.yul\":17465:17466   */\n      0x00\n        /* \"#utility.yul\":17450:17588   */\n    tag_358:\n        /* \"#utility.yul\":17475:17484   */\n      dup3\n        /* \"#utility.yul\":17472:17473   */\n      dup2\n        /* \"#utility.yul\":17469:17485   */\n      lt\n        /* \"#utility.yul\":17450:17588   */\n      iszero\n      tag_360\n      jumpi\n        /* \"#utility.yul\":17527:17578   */\n      tag_361\n        /* \"#utility.yul\":17576:17577   */\n      0x00\n        /* \"#utility.yul\":17572:17573   */\n      dup3\n        /* \"#utility.yul\":17561:17570   */\n      dup5\n        /* \"#utility.yul\":17557:17574   */\n      add\n        /* \"#utility.yul\":17527:17578   */\n      tag_186\n      jump\t// in\n    tag_361:\n        /* \"#utility.yul\":17500:17501   */\n      0x01\n        /* \"#utility.yul\":17497:17498   */\n      dup2\n        /* \"#utility.yul\":17493:17502   */\n      add\n        /* \"#utility.yul\":17488:17502   */\n      swap1\n      pop\n        /* \"#utility.yul\":17450:17588   */\n      jump(tag_358)\n    tag_360:\n        /* \"#utility.yul\":17454:17468   */\n      pop\n        /* \"#utility.yul\":17380:17594   */\n      pop\n      pop\n      jump\t// out\n        /* \"#utility.yul\":17600:18346   */\n    tag_188:\n        /* \"#utility.yul\":17701:17703   */\n      0x1f\n        /* \"#utility.yul\":17696:17699   */\n      dup3\n        /* \"#utility.yul\":17693:17704   */\n      gt\n        /* \"#utility.yul\":17690:18339   */\n      iszero\n      tag_363\n      jumpi\n        /* \"#utility.yul\":17730:17740   */\n      dup3\n        /* \"#utility.yul\":17725:17728   */\n      dup3\n        /* \"#utility.yul\":17722:17741   */\n      gt\n        /* \"#utility.yul\":17719:18329   */\n      iszero\n      tag_364\n      jumpi\n        /* \"#utility.yul\":17776:17814   */\n      tag_365\n        /* \"#utility.yul\":17808:17813   */\n      dup2\n        /* \"#utility.yul\":17776:17814   */\n      tag_177\n      jump\t// in\n    tag_365:\n        /* \"#utility.yul\":17851:17873   */\n      tag_366\n        /* \"#utility.yul\":17869:17872   */\n      dup4\n        /* \"#utility.yul\":17851:17873   */\n      tag_178\n      jump\t// in\n    tag_366:\n        /* \"#utility.yul\":17910:17939   */\n      tag_367\n        /* \"#utility.yul\":17928:17938   */\n      dup6\n        /* \"#utility.yul\":17910:17939   */\n      tag_178\n      jump\t// in\n    tag_367:\n        /* \"#utility.yul\":18100:18102   */\n      0x20\n        /* \"#utility.yul\":18088:18098   */\n      dup7\n        /* \"#utility.yul\":18085:18103   */\n      lt\n        /* \"#utility.yul\":18082:18161   */\n      iszero\n      tag_368\n      jumpi\n        /* \"#utility.yul\":18142:18143   */\n      0x00\n        /* \"#utility.yul\":18126:18143   */\n      swap1\n      pop\n        /* \"#utility.yul\":18082:18161   */\n    tag_368:\n        /* \"#utility.yul\":18211:18223   */\n      dup1\n        /* \"#utility.yul\":18201:18209   */\n      dup4\n        /* \"#utility.yul\":18197:18224   */\n      add\n        /* \"#utility.yul\":18241:18315   */\n      tag_369\n        /* \"#utility.yul\":18301:18313   */\n      dup3\n        /* \"#utility.yul\":18287:18299   */\n      dup5\n        /* \"#utility.yul\":18283:18314   */\n      sub\n        /* \"#utility.yul\":18270:18281   */\n      dup3\n        /* \"#utility.yul\":18241:18315   */\n      tag_187\n      jump\t// in\n    tag_369:\n        /* \"#utility.yul\":17742:18329   */\n      pop\n      pop\n      pop\n      pop\n        /* \"#utility.yul\":17719:18329   */\n    tag_364:\n        /* \"#utility.yul\":17690:18339   */\n    tag_363:\n        /* \"#utility.yul\":17600:18346   */\n      pop\n      pop\n      pop\n      jump\t// out\n        /* \"#utility.yul\":18352:18469   */\n    tag_189:\n        /* \"#utility.yul\":18406:18414   */\n      0x00\n        /* \"#utility.yul\":18456:18461   */\n      dup3\n        /* \"#utility.yul\":18450:18454   */\n      dup3\n        /* \"#utility.yul\":18446:18462   */\n      shr\n        /* \"#utility.yul\":18425:18462   */\n      swap1\n      pop\n        /* \"#utility.yul\":18352:18469   */\n      swap3\n      swap2\n      pop\n      pop\n      jump\t// out\n        /* \"#utility.yul\":18475:18644   */\n    tag_190:\n        /* \"#utility.yul\":18519:18525   */\n      0x00\n        /* \"#utility.yul\":18552:18603   */\n      tag_372\n        /* \"#utility.yul\":18600:18601   */\n      0x00\n        /* \"#utility.yul\":18596:18602   */\n      not\n        /* \"#utility.yul\":18588:18593   */\n      dup5\n        /* \"#utility.yul\":18585:18586   */\n      0x08\n        /* \"#utility.yul\":18581:18594   */\n      mul\n        /* \"#utility.yul\":18552:18603   */\n      tag_189\n      jump\t// in\n    tag_372:\n        /* \"#utility.yul\":18548:18604   */\n      not\n        /* \"#utility.yul\":18633:18637   */\n      dup1\n        /* \"#utility.yul\":18627:18631   */\n      dup4\n        /* \"#utility.yul\":18623:18638   */\n      and\n        /* \"#utility.yul\":18613:18638   */\n      swap2\n      pop\n        /* \"#utility.yul\":18526:18644   */\n      pop\n        /* \"#utility.yul\":18475:18644   */\n      swap3\n      swap2\n      pop\n      pop\n      jump\t// out\n        /* \"#utility.yul\":18649:18944   */\n    tag_191:\n        /* \"#utility.yul\":18725:18729   */\n      0x00\n        /* \"#utility.yul\":18871:18900   */\n      tag_374\n        /* \"#utility.yul\":18896:18899   */\n      dup4\n        /* \"#utility.yul\":18890:18894   */\n      dup4\n        /* \"#utility.yul\":18871:18900   */\n      tag_190\n      jump\t// in\n    tag_374:\n        /* \"#utility.yul\":18863:18900   */\n      swap2\n      pop\n        /* \"#utility.yul\":18933:18936   */\n      dup3\n        /* \"#utility.yul\":18930:18931   */\n      0x02\n        /* \"#utility.yul\":18926:18937   */\n      mul\n        /* \"#utility.yul\":18920:18924   */\n      dup3\n        /* \"#utility.yul\":18917:18938   */\n      or\n        /* \"#utility.yul\":18909:18938   */\n      swap1\n      pop\n        /* \"#utility.yul\":18649:18944   */\n      swap3\n      swap2\n      pop\n      pop\n      jump\t// out\n        /* \"#utility.yul\":18949:20344   */\n    tag_129:\n        /* \"#utility.yul\":19066:19103   */\n      tag_376\n        /* \"#utility.yul\":19099:19102   */\n      dup3\n        /* \"#utility.yul\":19066:19103   */\n      tag_138\n      jump\t// in\n    tag_376:\n        /* \"#utility.yul\":19168:19186   */\n      0xffffffffffffffff\n        /* \"#utility.yul\":19160:19166   */\n      dup2\n        /* \"#utility.yul\":19157:19187   */\n      gt\n        /* \"#utility.yul\":19154:19210   */\n      iszero\n      tag_377\n      jumpi\n        /* \"#utility.yul\":19190:19208   */\n      tag_378\n      tag_164\n      jump\t// in\n    tag_378:\n        /* \"#utility.yul\":19154:19210   */\n    tag_377:\n        /* \"#utility.yul\":19234:19272   */\n      tag_379\n        /* \"#utility.yul\":19266:19270   */\n      dup3\n        /* \"#utility.yul\":19260:19271   */\n      sload\n        /* \"#utility.yul\":19234:19272   */\n      tag_87\n      jump\t// in\n    tag_379:\n        /* \"#utility.yul\":19319:19386   */\n      tag_380\n        /* \"#utility.yul\":19379:19385   */\n      dup3\n        /* \"#utility.yul\":19371:19377   */\n      dup3\n        /* \"#utility.yul\":19365:19369   */\n      dup6\n        /* \"#utility.yul\":19319:19386   */\n      tag_188\n      jump\t// in\n    tag_380:\n        /* \"#utility.yul\":19413:19414   */\n      0x00\n        /* \"#utility.yul\":19437:19441   */\n      0x20\n        /* \"#utility.yul\":19424:19441   */\n      swap1\n      pop\n        /* \"#utility.yul\":19469:19471   */\n      0x1f\n        /* \"#utility.yul\":19461:19467   */\n      dup4\n        /* \"#utility.yul\":19458:19472   */\n      gt\n        /* \"#utility.yul\":19486:19487   */\n      0x01\n        /* \"#utility.yul\":19481:20099   */\n      dup2\n      eq\n      tag_382\n      jumpi\n        /* \"#utility.yul\":20143:20144   */\n      0x00\n        /* \"#utility.yul\":20160:20166   */\n      dup5\n        /* \"#utility.yul\":20157:20234   */\n      iszero\n      tag_383\n      jumpi\n        /* \"#utility.yul\":20209:20218   */\n      dup3\n        /* \"#utility.yul\":20204:20207   */\n      dup8\n        /* \"#utility.yul\":20200:20219   */\n      add\n        /* \"#utility.yul\":20194:20220   */\n      mload\n        /* \"#utility.yul\":20185:20220   */\n      swap1\n      pop\n        /* \"#utility.yul\":20157:20234   */\n    tag_383:\n        /* \"#utility.yul\":20260:20327   */\n      tag_384\n        /* \"#utility.yul\":20320:20326   */\n      dup6\n        /* \"#utility.yul\":20313:20318   */\n      dup3\n        /* \"#utility.yul\":20260:20327   */\n      tag_191\n      jump\t// in\n    tag_384:\n        /* \"#utility.yul\":20254:20258   */\n      dup7\n        /* \"#utility.yul\":20247:20328   */\n      sstore\n        /* \"#utility.yul\":20116:20338   */\n      pop\n        /* \"#utility.yul\":19451:20338   */\n      jump(tag_381)\n        /* \"#utility.yul\":19481:20099   */\n    tag_382:\n        /* \"#utility.yul\":19533:19537   */\n      0x1f\n        /* \"#utility.yul\":19529:19538   */\n      not\n        /* \"#utility.yul\":19521:19527   */\n      dup5\n        /* \"#utility.yul\":19517:19539   */\n      and\n        /* \"#utility.yul\":19567:19604   */\n      tag_385\n        /* \"#utility.yul\":19599:19603   */\n      dup7\n        /* \"#utility.yul\":19567:19604   */\n      tag_177\n      jump\t// in\n    tag_385:\n        /* \"#utility.yul\":19626:19627   */\n      0x00\n        /* \"#utility.yul\":19640:19848   */\n    tag_386:\n        /* \"#utility.yul\":19654:19661   */\n      dup3\n        /* \"#utility.yul\":19651:19652   */\n      dup2\n        /* \"#utility.yul\":19648:19662   */\n      lt\n        /* \"#utility.yul\":19640:19848   */\n      iszero\n      tag_388\n      jumpi\n        /* \"#utility.yul\":19733:19742   */\n      dup5\n        /* \"#utility.yul\":19728:19731   */\n      dup10\n        /* \"#utility.yul\":19724:19743   */\n      add\n        /* \"#utility.yul\":19718:19744   */\n      mload\n        /* \"#utility.yul\":19710:19716   */\n      dup3\n        /* \"#utility.yul\":19703:19745   */\n      sstore\n        /* \"#utility.yul\":19784:19785   */\n      0x01\n        /* \"#utility.yul\":19776:19782   */\n      dup3\n        /* \"#utility.yul\":19772:19786   */\n      add\n        /* \"#utility.yul\":19762:19786   */\n      swap2\n      pop\n        /* \"#utility.yul\":19831:19833   */\n      0x20\n        /* \"#utility.yul\":19820:19829   */\n      dup6\n        /* \"#utility.yul\":19816:19834   */\n      add\n        /* \"#utility.yul\":19803:19834   */\n      swap5\n      pop\n        /* \"#utility.yul\":19677:19681   */\n      0x20\n        /* \"#utility.yul\":19674:19675   */\n      dup2\n        /* \"#utility.yul\":19670:19682   */\n      add\n        /* \"#utility.yul\":19665:19682   */\n      swap1\n      pop\n        /* \"#utility.yul\":19640:19848   */\n      jump(tag_386)\n    tag_388:\n        /* \"#utility.yul\":19876:19882   */\n      dup7\n        /* \"#utility.yul\":19867:19874   */\n      dup4\n        /* \"#utility.yul\":19864:19883   */\n      lt\n        /* \"#utility.yul\":19861:20040   */\n      iszero\n      tag_389\n      jumpi\n        /* \"#utility.yul\":19934:19943   */\n      dup5\n        /* \"#utility.yul\":19929:19932   */\n      dup10\n        /* \"#utility.yul\":19925:19944   */\n      add\n        /* \"#utility.yul\":19919:19945   */\n      mload\n        /* \"#utility.yul\":19977:20025   */\n      tag_390\n        /* \"#utility.yul\":20019:20023   */\n      0x1f\n        /* \"#utility.yul\":20011:20017   */\n      dup10\n        /* \"#utility.yul\":20007:20024   */\n      and\n        /* \"#utility.yul\":19996:20005   */\n      dup3\n        /* \"#utility.yul\":19977:20025   */\n      tag_190\n      jump\t// in\n    tag_390:\n        /* \"#utility.yul\":19969:19975   */\n      dup4\n        /* \"#utility.yul\":19962:20026   */\n      sstore\n        /* \"#utility.yul\":19884:20040   */\n      pop\n        /* \"#utility.yul\":19861:20040   */\n    tag_389:\n        /* \"#utility.yul\":20086:20087   */\n      0x01\n        /* \"#utility.yul\":20082:20083   */\n      0x02\n        /* \"#utility.yul\":20074:20080   */\n      dup9\n        /* \"#utility.yul\":20070:20084   */\n      mul\n        /* \"#utility.yul\":20066:20088   */\n      add\n        /* \"#utility.yul\":20060:20064   */\n      dup9\n        /* \"#utility.yul\":20053:20089   */\n      sstore\n        /* \"#utility.yul\":19488:20099   */\n      pop\n      pop\n      pop\n        /* \"#utility.yul\":19451:20338   */\n    tag_381:\n      pop\n        /* \"#utility.yul\":19041:20344   */\n      pop\n      pop\n      pop\n        /* \"#utility.yul\":18949:20344   */\n      pop\n      pop\n      jump\t// out\n\n    auxdata: 0xa26469706673582212206ab01e79a605beaed738ba48e4b4d5dacf95de077ded13e524da095168554bbd64736f6c63430008230033\n}\n",
				"bytecode": {
					"linkReferences": {},
					"object": "6080604052348015600e575f5ffd5b503360025f6101000a81548173ffffffffffffffffffffffffffffffffffffffff021916908373ffffffffffffffffffffffffffffffffffffffff1602179055506114bb8061005c5f395ff3fe608060405234801561000f575f5ffd5b50600436106100e8575f3560e01c80638da5cb5b1161008a578063cceb68f511610064578063cceb68f514610282578063da35c664146102a0578063fad35844146102be578063ff981099146102da576100e8565b80638da5cb5b1461022a5780638e7ea5b214610248578063c7f758a814610252576100e8565b806350a6491a116100c657806350a6491a1461016a578063544ffc9c1461019a5780635a4e7b72146101ca5780637d9d4255146101fa576100e8565b80630121b93f146100ec578063013cf08b1461010857806309eef43e1461013a575b5f5ffd5b61010660048036038101906101019190610ac5565b61030a565b005b610122600480360381019061011d9190610ac5565b610410565b60405161013193929190610bae565b60405180910390f35b610154600480360381019061014f9190610c14565b6104e9565b6040516101619190610c59565b60405180910390f35b610184600480360381019061017f9190610ac5565b61053b565b6040516101919190610c72565b60405180910390f35b6101b460048036038101906101af9190610ac5565b610550565b6040516101c19190610c72565b60405180910390f35b6101e460048036038101906101df9190610c14565b610565565b6040516101f19190610c59565b60405180910390f35b610214600480360381019061020f9190610c14565b610582565b6040516102219190610c72565b60405180910390f35b610232610597565b60405161023f9190610c8b565b60405180910390f35b6102506105bc565b005b61026c60048036038101906102679190610ac5565b610665565b6040516102799190610d57565b60405180910390f35b61028a61078c565b6040516102979190610e7f565b60405180910390f35b6102a86108d5565b6040516102b59190610c72565b60405180910390f35b6102d860048036038101906102d39190610fcb565b6108e0565b005b6102f460048036038101906102ef9190610ac5565b610a32565b6040516103019190610c72565b60405180910390f35b60015f3373ffffffffffffffffffffffffffffffffffffffff1673ffffffffffffffffffffffffffffffffffffffff1681526020019081526020015f205f9054906101000a900460ff16610393576040517f08c379a000000000000000000000000000000000000000000000000000000000815260040161038a90611081565b60405180910390fd5b6001805f3373ffffffffffffffffffffffffffffffffffffffff1673ffffffffffffffffffffffffffffffffffffffff1681526020019081526020015f205f6101000a81548160ff02191690831515021790555060035f8281526020019081526020015f205f815480929190610408906110cc565b919050555050565b5f818154811061041e575f80fd5b905f5260205f2090600302015f91509050805f01549080600101805461044390611140565b80601f016020809104026020016040519081016040528092919081815260200182805461046f90611140565b80156104ba5780601f10610491576101008083540402835291602001916104ba565b820191905f5260205f20905b81548152906001019060200180831161049d57829003601f168201915b505050505090806002015f9054906101000a900473ffffffffffffffffffffffffffffffffffffffff16905083565b5f60015f8373ffffffffffffffffffffffffffffffffffffffff1673ffffffffffffffffffffffffffffffffffffffff1681526020019081526020015f205f9054906101000a900460ff169050919050565b6004602052805f5260405f205f915090505481565b6003602052805f5260405f205f915090505481565b6001602052805f5260405f205f915054906101000a900460ff1681565b6005602052805f5260405f205f915090505481565b60025f9054906101000a900473ffffffffffffffffffffffffffffffffffffffff1681565b5f5f90505b5f80549050811015610662575f5f82815481106105e1576105e0611170565b5b905f5260205f2090600302016002015f9054906101000a900473ffffffffffffffffffffffffffffffffffffffff1690505f60055f8373ffffffffffffffffffffffffffffffffffffffff1673ffffffffffffffffffffffffffffffffffffffff1681526020019081526020015f20819055505080806001019150506105c1565b50565b61066d610a4c565b5f82815481106106805761067f611170565b5b905f5260205f2090600302016040518060600160405290815f82015481526020016001820180546106b090611140565b80601f01602080910402602001604051908101604052809291908181526020018280546106dc90611140565b80156107275780601f106106fe57610100808354040283529160200191610727565b820191905f5260205f20905b81548152906001019060200180831161070a57829003601f168201915b50505050508152602001600282015f9054906101000a900473ffffffffffffffffffffffffffffffffffffffff1673ffffffffffffffffffffffffffffffffffffffff1673ffffffffffffffffffffffffffffffffffffffff16815250509050919050565b60605f805480602002602001604051908101604052809291908181526020015f905b828210156108cc578382905f5260205f2090600302016040518060600160405290815f82015481526020016001820180546107e890611140565b80601f016020809104026020016040519081016040528092919081815260200182805461081490611140565b801561085f5780601f106108365761010080835404028352916020019161085f565b820191905f5260205f20905b81548152906001019060200180831161084257829003601f168201915b50505050508152602001600282015f9054906101000a900473ffffffffffffffffffffffffffffffffffffffff1673ffffffffffffffffffffffffffffffffffffffff1673ffffffffffffffffffffffffffffffffffffffff1681525050815260200190600101906107ae565b50505050905090565b5f5f80549050905090565b3373ffffffffffffffffffffffffffffffffffffffff1660025f9054906101000a900473ffffffffffffffffffffffffffffffffffffffff1673ffffffffffffffffffffffffffffffffffffffff161461096f576040517f08c379a0000000000000000000000000000000000000000000000000000000008152600401610966906111e7565b60405180910390fd5b5f60405180606001604052808581526020018481526020018373ffffffffffffffffffffffffffffffffffffffff16815250908060018154018082558091505060019003905f5260205f2090600302015f909190919091505f820151815f015560208201518160010190816109e491906113b6565b506040820151816002015f6101000a81548173ffffffffffffffffffffffffffffffffffffffff021916908373ffffffffffffffffffffffffffffffffffffffff1602179055505050505050565b5f60045f8381526020019081526020015f20549050919050565b60405180606001604052805f8152602001606081526020015f73ffffffffffffffffffffffffffffffffffffffff1681525090565b5f604051905090565b5f5ffd5b5f5ffd5b5f819050919050565b610aa481610a92565b8114610aae575f5ffd5b50565b5f81359050610abf81610a9b565b92915050565b5f60208284031215610ada57610ad9610a8a565b5b5f610ae784828501610ab1565b91505092915050565b610af981610a92565b82525050565b5f81519050919050565b5f82825260208201905092915050565b8281835e5f83830152505050565b5f601f19601f8301169050919050565b5f610b4182610aff565b610b4b8185610b09565b9350610b5b818560208601610b19565b610b6481610b27565b840191505092915050565b5f73ffffffffffffffffffffffffffffffffffffffff82169050919050565b5f610b9882610b6f565b9050919050565b610ba881610b8e565b82525050565b5f606082019050610bc15f830186610af0565b8181036020830152610bd38185610b37565b9050610be26040830184610b9f565b949350505050565b610bf381610b8e565b8114610bfd575f5ffd5b50565b5f81359050610c0e81610bea565b92915050565b5f60208284031215610c2957610c28610a8a565b5b5f610c3684828501610c00565b91505092915050565b5f8115159050919050565b610c5381610c3f565b82525050565b5f602082019050610c6c5f830184610c4a565b92915050565b5f602082019050610c855f830184610af0565b92915050565b5f602082019050610c9e5f830184610b9f565b92915050565b610cad81610a92565b82525050565b5f82825260208201905092915050565b5f610ccd82610aff565b610cd78185610cb3565b9350610ce7818560208601610b19565b610cf081610b27565b840191505092915050565b610d0481610b8e565b82525050565b5f606083015f830151610d1f5f860182610ca4565b5060208301518482036020860152610d378282610cc3565b9150506040830151610d4c6040860182610cfb565b508091505092915050565b5f6020820190508181035f830152610d6f8184610d0a565b905092915050565b5f81519050919050565b5f82825260208201905092915050565b5f819050602082019050919050565b5f606083015f830151610db55f860182610ca4565b5060208301518482036020860152610dcd8282610cc3565b9150506040830151610de26040860182610cfb565b508091505092915050565b5f610df88383610da0565b905092915050565b5f602082019050919050565b5f610e1682610d77565b610e208185610d81565b935083602082028501610e3285610d91565b805f5b85811015610e6d5784840389528151610e4e8582610ded565b9450610e5983610e00565b925060208a01995050600181019050610e35565b50829750879550505050505092915050565b5f6020820190508181035f830152610e978184610e0c565b905092915050565b5f5ffd5b5f5ffd5b7f4e487b71000000000000000000000000000000000000000000000000000000005f52604160045260245ffd5b610edd82610b27565b810181811067ffffffffffffffff82111715610efc57610efb610ea7565b5b80604052505050565b5f610f0e610a81565b9050610f1a8282610ed4565b919050565b5f67ffffffffffffffff821115610f3957610f38610ea7565b5b610f4282610b27565b9050602081019050919050565b828183375f83830152505050565b5f610f6f610f6a84610f1f565b610f05565b905082815260208101848484011115610f8b57610f8a610ea3565b5b610f96848285610f4f565b509392505050565b5f82601f830112610fb257610fb1610e9f565b5b8135610fc2848260208601610f5d565b91505092915050565b5f5f5f60608486031215610fe257610fe1610a8a565b5b5f610fef86828701610ab1565b935050602084013567ffffffffffffffff8111156110105761100f610a8e565b5b61101c86828701610f9e565b925050604061102d86828701610c00565b9150509250925092565b7f416c726561647920766f746564000000000000000000000000000000000000005f82015250565b5f61106b600d83610b09565b915061107682611037565b602082019050919050565b5f6020820190508181035f8301526110988161105f565b9050919050565b7f4e487b71000000000000000000000000000000000000000000000000000000005f52601160045260245ffd5b5f6110d682610a92565b91507fffffffffffffffffffffffffffffffffffffffffffffffffffffffffffffffff82036111085761110761109f565b5b600182019050919050565b7f4e487b71000000000000000000000000000000000000000000000000000000005f52602260045260245ffd5b5f600282049050600182168061115757607f821691505b60208210810361116a57611169611113565b5b50919050565b7f4e487b71000000000000000000000000000000000000000000000000000000005f52603260045260245ffd5b7f206f6e6c79206f776e65720000000000000000000000000000000000000000005f82015250565b5f6111d1600b83610b09565b91506111dc8261119d565b602082019050919050565b5f6020820190508181035f8301526111fe816111c5565b9050919050565b5f819050815f5260205f209050919050565b5f6020601f8301049050919050565b5f82821b905092915050565b5f600883026112617fffffffffffffffffffffffffffffffffffffffffffffffffffffffffffffffff82611226565b61126b8683611226565b95508019841693508086168417925050509392505050565b5f819050919050565b5f6112a66112a161129c84610a92565b611283565b610a92565b9050919050565b5f819050919050565b6112bf8361128c565b6112d36112cb826112ad565b848454611232565b825550505050565b5f5f905090565b6112ea6112db565b6112f58184846112b6565b505050565b5f5b8281101561131b576113105f8284016112e2565b6001810190506112fc565b505050565b601f82111561136e578282111561136d5761133a81611205565b61134383611217565b61134c85611217565b6020861015611359575f90505b808301611368828403826112fa565b505050505b5b505050565b5f82821c905092915050565b5f61138e5f1984600802611373565b1980831691505092915050565b5f6113a6838361137f565b9150826002028217905092915050565b6113bf82610aff565b67ffffffffffffffff8111156113d8576113d7610ea7565b5b6113e28254611140565b6113ed828285611320565b5f60209050601f83116001811461141e575f841561140c578287015190505b611416858261139b565b86555061147d565b601f19841661142c86611205565b5f5b828110156114535784890151825560018201915060208501945060208101905061142e565b86831015611470578489015161146c601f89168261137f565b8355505b6001600288020188555050505b50505050505056fea26469706673582212206ab01e79a605beaed738ba48e4b4d5dacf95de077ded13e524da095168554bbd64736f6c63430008230033",
					"opcodes": "PUSH1 0x80 PUSH1 0x40 MSTORE CALLVALUE DUP1 ISZERO PUSH1 0xE JUMPI PUSH0 PUSH0 REVERT JUMPDEST POP CALLER PUSH1 0x2 PUSH0 PUSH2 0x100 EXP DUP2 SLOAD DUP2 PUSH20 0xFFFFFFFFFFFFFFFFFFFFFFFFFFFFFFFFFFFFFFFF MUL NOT AND SWAP1 DUP4 PUSH20 0xFFFFFFFFFFFFFFFFFFFFFFFFFFFFFFFFFFFFFFFF AND MUL OR SWAP1 SSTORE POP PUSH2 0x14BB DUP1 PUSH2 0x5C PUSH0 CODECOPY PUSH0 RETURN INVALID PUSH1 0x80 PUSH1 0x40 MSTORE CALLVALUE DUP1 ISZERO PUSH2 0xF JUMPI PUSH0 PUSH0 REVERT JUMPDEST POP PUSH1 0x4 CALLDATASIZE LT PUSH2 0xE8 JUMPI PUSH0 CALLDATALOAD PUSH1 0xE0 SHR DUP1 PUSH4 0x8DA5CB5B GT PUSH2 0x8A JUMPI DUP1 PUSH4 0xCCEB68F5 GT PUSH2 0x64 JUMPI DUP1 PUSH4 0xCCEB68F5 EQ PUSH2 0x282 JUMPI DUP1 PUSH4 0xDA35C664 EQ PUSH2 0x2A0 JUMPI DUP1 PUSH4 0xFAD35844 EQ PUSH2 0x2BE JUMPI DUP1 PUSH4 0xFF981099 EQ PUSH2 0x2DA JUMPI PUSH2 0xE8 JUMP JUMPDEST DUP1 PUSH4 0x8DA5CB5B EQ PUSH2 0x22A JUMPI DUP1 PUSH4 0x8E7EA5B2 EQ PUSH2 0x248 JUMPI DUP1 PUSH4 0xC7F758A8 EQ PUSH2 0x252 JUMPI PUSH2 0xE8 JUMP JUMPDEST DUP1 PUSH4 0x50A6491A GT PUSH2 0xC6 JUMPI DUP1 PUSH4 0x50A6491A EQ PUSH2 0x16A JUMPI DUP1 PUSH4 0x544FFC9C EQ PUSH2 0x19A JUMPI DUP1 PUSH4 0x5A4E7B72 EQ PUSH2 0x1CA JUMPI DUP1 PUSH4 0x7D9D4255 EQ PUSH2 0x1FA JUMPI PUSH2 0xE8 JUMP JUMPDEST DUP1 PUSH4 0x121B93F EQ PUSH2 0xEC JUMPI DUP1 PUSH4 0x13CF08B EQ PUSH2 0x108 JUMPI DUP1 PUSH4 0x9EEF43E EQ PUSH2 0x13A JUMPI JUMPDEST PUSH0 PUSH0 REVERT JUMPDEST PUSH2 0x106 PUSH1 0x4 DUP1 CALLDATASIZE SUB DUP2 ADD SWAP1 PUSH2 0x101 SWAP2 SWAP1 PUSH2 0xAC5 JUMP JUMPDEST PUSH2 0x30A JUMP JUMPDEST STOP JUMPDEST PUSH2 0x122 PUSH1 0x4 DUP1 CALLDATASIZE SUB DUP2 ADD SWAP1 PUSH2 0x11D SWAP2 SWAP1 PUSH2 0xAC5 JUMP JUMPDEST PUSH2 0x410 JUMP JUMPDEST PUSH1 0x40 MLOAD PUSH2 0x131 SWAP4 SWAP3 SWAP2 SWAP1 PUSH2 0xBAE JUMP JUMPDEST PUSH1 0x40 MLOAD DUP1 SWAP2 SUB SWAP1 RETURN JUMPDEST PUSH2 0x154 PUSH1 0x4 DUP1 CALLDATASIZE SUB DUP2 ADD SWAP1 PUSH2 0x14F SWAP2 SWAP1 PUSH2 0xC14 JUMP JUMPDEST PUSH2 0x4E9 JUMP JUMPDEST PUSH1 0x40 MLOAD PUSH2 0x161 SWAP2 SWAP1 PUSH2 0xC59 JUMP JUMPDEST PUSH1 0x40 MLOAD DUP1 SWAP2 SUB SWAP1 RETURN JUMPDEST PUSH2 0x184 PUSH1 0x4 DUP1 CALLDATASIZE SUB DUP2 ADD SWAP1 PUSH2 0x17F SWAP2 SWAP1 PUSH2 0xAC5 JUMP JUMPDEST PUSH2 0x53B JUMP JUMPDEST PUSH1 0x40 MLOAD PUSH2 0x191 SWAP2 SWAP1 PUSH2 0xC72 JUMP JUMPDEST PUSH1 0x40 MLOAD DUP1 SWAP2 SUB SWAP1 RETURN JUMPDEST PUSH2 0x1B4 PUSH1 0x4 DUP1 CALLDATASIZE SUB DUP2 ADD SWAP1 PUSH2 0x1AF SWAP2 SWAP1 PUSH2 0xAC5 JUMP JUMPDEST PUSH2 0x550 JUMP JUMPDEST PUSH1 0x40 MLOAD PUSH2 0x1C1 SWAP2 SWAP1 PUSH2 0xC72 JUMP JUMPDEST PUSH1 0x40 MLOAD DUP1 SWAP2 SUB SWAP1 RETURN JUMPDEST PUSH2 0x1E4 PUSH1 0x4 DUP1 CALLDATASIZE SUB DUP2 ADD SWAP1 PUSH2 0x1DF SWAP2 SWAP1 PUSH2 0xC14 JUMP JUMPDEST PUSH2 0x565 JUMP JUMPDEST PUSH1 0x40 MLOAD PUSH2 0x1F1 SWAP2 SWAP1 PUSH2 0xC59 JUMP JUMPDEST PUSH1 0x40 MLOAD DUP1 SWAP2 SUB SWAP1 RETURN JUMPDEST PUSH2 0x214 PUSH1 0x4 DUP1 CALLDATASIZE SUB DUP2 ADD SWAP1 PUSH2 0x20F SWAP2 SWAP1 PUSH2 0xC14 JUMP JUMPDEST PUSH2 0x582 JUMP JUMPDEST PUSH1 0x40 MLOAD PUSH2 0x221 SWAP2 SWAP1 PUSH2 0xC72 JUMP JUMPDEST PUSH1 0x40 MLOAD DUP1 SWAP2 SUB SWAP1 RETURN JUMPDEST PUSH2 0x232 PUSH2 0x597 JUMP JUMPDEST PUSH1 0x40 MLOAD PUSH2 0x23F SWAP2 SWAP1 PUSH2 0xC8B JUMP JUMPDEST PUSH1 0x40 MLOAD DUP1 SWAP2 SUB SWAP1 RETURN JUMPDEST PUSH2 0x250 PUSH2 0x5BC JUMP JUMPDEST STOP JUMPDEST PUSH2 0x26C PUSH1 0x4 DUP1 CALLDATASIZE SUB DUP2 ADD SWAP1 PUSH2 0x267 SWAP2 SWAP1 PUSH2 0xAC5 JUMP JUMPDEST PUSH2 0x665 JUMP JUMPDEST PUSH1 0x40 MLOAD PUSH2 0x279 SWAP2 SWAP1 PUSH2 0xD57 JUMP JUMPDEST PUSH1 0x40 MLOAD DUP1 SWAP2 SUB SWAP1 RETURN JUMPDEST PUSH2 0x28A PUSH2 0x78C JUMP JUMPDEST PUSH1 0x40 MLOAD PUSH2 0x297 SWAP2 SWAP1 PUSH2 0xE7F JUMP JUMPDEST PUSH1 0x40 MLOAD DUP1 SWAP2 SUB SWAP1 RETURN JUMPDEST PUSH2 0x2A8 PUSH2 0x8D5 JUMP JUMPDEST PUSH1 0x40 MLOAD PUSH2 0x2B5 SWAP2 SWAP1 PUSH2 0xC72 JUMP JUMPDEST PUSH1 0x40 MLOAD DUP1 SWAP2 SUB SWAP1 RETURN JUMPDEST PUSH2 0x2D8 PUSH1 0x4 DUP1 CALLDATASIZE SUB DUP2 ADD SWAP1 PUSH2 0x2D3 SWAP2 SWAP1 PUSH2 0xFCB JUMP JUMPDEST PUSH2 0x8E0 JUMP JUMPDEST STOP JUMPDEST PUSH2 0x2F4 PUSH1 0x4 DUP1 CALLDATASIZE SUB DUP2 ADD SWAP1 PUSH2 0x2EF SWAP2 SWAP1 PUSH2 0xAC5 JUMP JUMPDEST PUSH2 0xA32 JUMP JUMPDEST PUSH1 0x40 MLOAD PUSH2 0x301 SWAP2 SWAP1 PUSH2 0xC72 JUMP JUMPDEST PUSH1 0x40 MLOAD DUP1 SWAP2 SUB SWAP1 RETURN JUMPDEST PUSH1 0x1 PUSH0 CALLER PUSH20 0xFFFFFFFFFFFFFFFFFFFFFFFFFFFFFFFFFFFFFFFF AND PUSH20 0xFFFFFFFFFFFFFFFFFFFFFFFFFFFFFFFFFFFFFFFF AND DUP2 MSTORE PUSH1 0x20 ADD SWAP1 DUP2 MSTORE PUSH1 0x20 ADD PUSH0 KECCAK256 PUSH0 SWAP1 SLOAD SWAP1 PUSH2 0x100 EXP SWAP1 DIV PUSH1 0xFF AND PUSH2 0x393 JUMPI PUSH1 0x40 MLOAD PUSH32 0x8C379A000000000000000000000000000000000000000000000000000000000 DUP2 MSTORE PUSH1 0x4 ADD PUSH2 0x38A SWAP1 PUSH2 0x1081 JUMP JUMPDEST PUSH1 0x40 MLOAD DUP1 SWAP2 SUB SWAP1 REVERT JUMPDEST PUSH1 0x1 DUP1 PUSH0 CALLER PUSH20 0xFFFFFFFFFFFFFFFFFFFFFFFFFFFFFFFFFFFFFFFF AND PUSH20 0xFFFFFFFFFFFFFFFFFFFFFFFFFFFFFFFFFFFFFFFF AND DUP2 MSTORE PUSH1 0x20 ADD SWAP1 DUP2 MSTORE PUSH1 0x20 ADD PUSH0 KECCAK256 PUSH0 PUSH2 0x100 EXP DUP2 SLOAD DUP2 PUSH1 0xFF MUL NOT AND SWAP1 DUP4 ISZERO ISZERO MUL OR SWAP1 SSTORE POP PUSH1 0x3 PUSH0 DUP3 DUP2 MSTORE PUSH1 0x20 ADD SWAP1 DUP2 MSTORE PUSH1 0x20 ADD PUSH0 KECCAK256 PUSH0 DUP2 SLOAD DUP1 SWAP3 SWAP2 SWAP1 PUSH2 0x408 SWAP1 PUSH2 0x10CC JUMP JUMPDEST SWAP2 SWAP1 POP SSTORE POP POP JUMP JUMPDEST PUSH0 DUP2 DUP2 SLOAD DUP2 LT PUSH2 0x41E JUMPI PUSH0 DUP1 REVERT JUMPDEST SWAP1 PUSH0 MSTORE PUSH1 0x20 PUSH0 KECCAK256 SWAP1 PUSH1 0x3 MUL ADD PUSH0 SWAP2 POP SWAP1 POP DUP1 PUSH0 ADD SLOAD SWAP1 DUP1 PUSH1 0x1 ADD DUP1 SLOAD PUSH2 0x443 SWAP1 PUSH2 0x1140 JUMP JUMPDEST DUP1 PUSH1 0x1F ADD PUSH1 0x20 DUP1 SWAP2 DIV MUL PUSH1 0x20 ADD PUSH1 0x40 MLOAD SWAP1 DUP2 ADD PUSH1 0x40 MSTORE DUP1 SWAP3 SWAP2 SWAP1 DUP2 DUP2 MSTORE PUSH1 0x20 ADD DUP3 DUP1 SLOAD PUSH2 0x46F SWAP1 PUSH2 0x1140 JUMP JUMPDEST DUP1 ISZERO PUSH2 0x4BA JUMPI DUP1 PUSH1 0x1F LT PUSH2 0x491 JUMPI PUSH2 0x100 DUP1 DUP4 SLOAD DIV MUL DUP4 MSTORE SWAP2 PUSH1 0x20 ADD SWAP2 PUSH2 0x4BA JUMP JUMPDEST DUP3 ADD SWAP2 SWAP1 PUSH0 MSTORE PUSH1 0x20 PUSH0 KECCAK256 SWAP1 JUMPDEST DUP2 SLOAD DUP2 MSTORE SWAP1 PUSH1 0x1 ADD SWAP1 PUSH1 0x20 ADD DUP1 DUP4 GT PUSH2 0x49D JUMPI DUP3 SWAP1 SUB PUSH1 0x1F AND DUP3 ADD SWAP2 JUMPDEST POP POP POP POP POP SWAP1 DUP1 PUSH1 0x2 ADD PUSH0 SWAP1 SLOAD SWAP1 PUSH2 0x100 EXP SWAP1 DIV PUSH20 0xFFFFFFFFFFFFFFFFFFFFFFFFFFFFFFFFFFFFFFFF AND SWAP1 POP DUP4 JUMP JUMPDEST PUSH0 PUSH1 0x1 PUSH0 DUP4 PUSH20 0xFFFFFFFFFFFFFFFFFFFFFFFFFFFFFFFFFFFFFFFF AND PUSH20 0xFFFFFFFFFFFFFFFFFFFFFFFFFFFFFFFFFFFFFFFF AND DUP2 MSTORE PUSH1 0x20 ADD SWAP1 DUP2 MSTORE PUSH1 0x20 ADD PUSH0 KECCAK256 PUSH0 SWAP1 SLOAD SWAP1 PUSH2 0x100 EXP SWAP1 DIV PUSH1 0xFF AND SWAP1 POP SWAP2 SWAP1 POP JUMP JUMPDEST PUSH1 0x4 PUSH1 0x20 MSTORE DUP1 PUSH0 MSTORE PUSH1 0x40 PUSH0 KECCAK256 PUSH0 SWAP2 POP SWAP1 POP SLOAD DUP2 JUMP JUMPDEST PUSH1 0x3 PUSH1 0x20 MSTORE DUP1 PUSH0 MSTORE PUSH1 0x40 PUSH0 KECCAK256 PUSH0 SWAP2 POP SWAP1 POP SLOAD DUP2 JUMP JUMPDEST PUSH1 0x1 PUSH1 0x20 MSTORE DUP1 PUSH0 MSTORE PUSH1 0x40 PUSH0 KECCAK256 PUSH0 SWAP2 POP SLOAD SWAP1 PUSH2 0x100 EXP SWAP1 DIV PUSH1 0xFF AND DUP2 JUMP JUMPDEST PUSH1 0x5 PUSH1 0x20 MSTORE DUP1 PUSH0 MSTORE PUSH1 0x40 PUSH0 KECCAK256 PUSH0 SWAP2 POP SWAP1 POP SLOAD DUP2 JUMP JUMPDEST PUSH1 0x2 PUSH0 SWAP1 SLOAD SWAP1 PUSH2 0x100 EXP SWAP1 DIV PUSH20 0xFFFFFFFFFFFFFFFFFFFFFFFFFFFFFFFFFFFFFFFF AND DUP2 JUMP JUMPDEST PUSH0 PUSH0 SWAP1 POP JUMPDEST PUSH0 DUP1 SLOAD SWAP1 POP DUP2 LT ISZERO PUSH2 0x662 JUMPI PUSH0 PUSH0 DUP3 DUP2 SLOAD DUP2 LT PUSH2 0x5E1 JUMPI PUSH2 0x5E0 PUSH2 0x1170 JUMP JUMPDEST JUMPDEST SWAP1 PUSH0 MSTORE PUSH1 0x20 PUSH0 KECCAK256 SWAP1 PUSH1 0x3 MUL ADD PUSH1 0x2 ADD PUSH0 SWAP1 SLOAD SWAP1 PUSH2 0x100 EXP SWAP1 DIV PUSH20 0xFFFFFFFFFFFFFFFFFFFFFFFFFFFFFFFFFFFFFFFF AND SWAP1 POP PUSH0 PUSH1 0x5 PUSH0 DUP4 PUSH20 0xFFFFFFFFFFFFFFFFFFFFFFFFFFFFFFFFFFFFFFFF AND PUSH20 0xFFFFFFFFFFFFFFFFFFFFFFFFFFFFFFFFFFFFFFFF AND DUP2 MSTORE PUSH1 0x20 ADD SWAP1 DUP2 MSTORE PUSH1 0x20 ADD PUSH0 KECCAK256 DUP2 SWAP1 SSTORE POP POP DUP1 DUP1 PUSH1 0x1 ADD SWAP2 POP POP PUSH2 0x5C1 JUMP JUMPDEST POP JUMP JUMPDEST PUSH2 0x66D PUSH2 0xA4C JUMP JUMPDEST PUSH0 DUP3 DUP2 SLOAD DUP2 LT PUSH2 0x680 JUMPI PUSH2 0x67F PUSH2 0x1170 JUMP JUMPDEST JUMPDEST SWAP1 PUSH0 MSTORE PUSH1 0x20 PUSH0 KECCAK256 SWAP1 PUSH1 0x3 MUL ADD PUSH1 0x40 MLOAD DUP1 PUSH1 0x60 ADD PUSH1 0x40 MSTORE SWAP1 DUP2 PUSH0 DUP3 ADD SLOAD DUP2 MSTORE PUSH1 0x20 ADD PUSH1 0x1 DUP3 ADD DUP1 SLOAD PUSH2 0x6B0 SWAP1 PUSH2 0x1140 JUMP JUMPDEST DUP1 PUSH1 0x1F ADD PUSH1 0x20 DUP1 SWAP2 DIV MUL PUSH1 0x20 ADD PUSH1 0x40 MLOAD SWAP1 DUP2 ADD PUSH1 0x40 MSTORE DUP1 SWAP3 SWAP2 SWAP1 DUP2 DUP2 MSTORE PUSH1 0x20 ADD DUP3 DUP1 SLOAD PUSH2 0x6DC SWAP1 PUSH2 0x1140 JUMP JUMPDEST DUP1 ISZERO PUSH2 0x727 JUMPI DUP1 PUSH1 0x1F LT PUSH2 0x6FE JUMPI PUSH2 0x100 DUP1 DUP4 SLOAD DIV MUL DUP4 MSTORE SWAP2 PUSH1 0x20 ADD SWAP2 PUSH2 0x727 JUMP JUMPDEST DUP3 ADD SWAP2 SWAP1 PUSH0 MSTORE PUSH1 0x20 PUSH0 KECCAK256 SWAP1 JUMPDEST DUP2 SLOAD DUP2 MSTORE SWAP1 PUSH1 0x1 ADD SWAP1 PUSH1 0x20 ADD DUP1 DUP4 GT PUSH2 0x70A JUMPI DUP3 SWAP1 SUB PUSH1 0x1F AND DUP3 ADD SWAP2 JUMPDEST POP POP POP POP POP DUP2 MSTORE PUSH1 0x20 ADD PUSH1 0x2 DUP3 ADD PUSH0 SWAP1 SLOAD SWAP1 PUSH2 0x100 EXP SWAP1 DIV PUSH20 0xFFFFFFFFFFFFFFFFFFFFFFFFFFFFFFFFFFFFFFFF AND PUSH20 0xFFFFFFFFFFFFFFFFFFFFFFFFFFFFFFFFFFFFFFFF AND PUSH20 0xFFFFFFFFFFFFFFFFFFFFFFFFFFFFFFFFFFFFFFFF AND DUP2 MSTORE POP POP SWAP1 POP SWAP2 SWAP1 POP JUMP JUMPDEST PUSH1 0x60 PUSH0 DUP1 SLOAD DUP1 PUSH1 0x20 MUL PUSH1 0x20 ADD PUSH1 0x40 MLOAD SWAP1 DUP2 ADD PUSH1 0x40 MSTORE DUP1 SWAP3 SWAP2 SWAP1 DUP2 DUP2 MSTORE PUSH1 0x20 ADD PUSH0 SWAP1 JUMPDEST DUP3 DUP3 LT ISZERO PUSH2 0x8CC JUMPI DUP4 DUP3 SWAP1 PUSH0 MSTORE PUSH1 0x20 PUSH0 KECCAK256 SWAP1 PUSH1 0x3 MUL ADD PUSH1 0x40 MLOAD DUP1 PUSH1 0x60 ADD PUSH1 0x40 MSTORE SWAP1 DUP2 PUSH0 DUP3 ADD SLOAD DUP2 MSTORE PUSH1 0x20 ADD PUSH1 0x1 DUP3 ADD DUP1 SLOAD PUSH2 0x7E8 SWAP1 PUSH2 0x1140 JUMP JUMPDEST DUP1 PUSH1 0x1F ADD PUSH1 0x20 DUP1 SWAP2 DIV MUL PUSH1 0x20 ADD PUSH1 0x40 MLOAD SWAP1 DUP2 ADD PUSH1 0x40 MSTORE DUP1 SWAP3 SWAP2 SWAP1 DUP2 DUP2 MSTORE PUSH1 0x20 ADD DUP3 DUP1 SLOAD PUSH2 0x814 SWAP1 PUSH2 0x1140 JUMP JUMPDEST DUP1 ISZERO PUSH2 0x85F JUMPI DUP1 PUSH1 0x1F LT PUSH2 0x836 JUMPI PUSH2 0x100 DUP1 DUP4 SLOAD DIV MUL DUP4 MSTORE SWAP2 PUSH1 0x20 ADD SWAP2 PUSH2 0x85F JUMP JUMPDEST DUP3 ADD SWAP2 SWAP1 PUSH0 MSTORE PUSH1 0x20 PUSH0 KECCAK256 SWAP1 JUMPDEST DUP2 SLOAD DUP2 MSTORE SWAP1 PUSH1 0x1 ADD SWAP1 PUSH1 0x20 ADD DUP1 DUP4 GT PUSH2 0x842 JUMPI DUP3 SWAP1 SUB PUSH1 0x1F AND DUP3 ADD SWAP2 JUMPDEST POP POP POP POP POP DUP2 MSTORE PUSH1 0x20 ADD PUSH1 0x2 DUP3 ADD PUSH0 SWAP1 SLOAD SWAP1 PUSH2 0x100 EXP SWAP1 DIV PUSH20 0xFFFFFFFFFFFFFFFFFFFFFFFFFFFFFFFFFFFFFFFF AND PUSH20 0xFFFFFFFFFFFFFFFFFFFFFFFFFFFFFFFFFFFFFFFF AND PUSH20 0xFFFFFFFFFFFFFFFFFFFFFFFFFFFFFFFFFFFFFFFF AND DUP2 MSTORE POP POP DUP2 MSTORE PUSH1 0x20 ADD SWAP1 PUSH1 0x1 ADD SWAP1 PUSH2 0x7AE JUMP JUMPDEST POP POP POP POP SWAP1 POP SWAP1 JUMP JUMPDEST PUSH0 PUSH0 DUP1 SLOAD SWAP1 POP SWAP1 POP SWAP1 JUMP JUMPDEST CALLER PUSH20 0xFFFFFFFFFFFFFFFFFFFFFFFFFFFFFFFFFFFFFFFF AND PUSH1 0x2 PUSH0 SWAP1 SLOAD SWAP1 PUSH2 0x100 EXP SWAP1 DIV PUSH20 0xFFFFFFFFFFFFFFFFFFFFFFFFFFFFFFFFFFFFFFFF AND PUSH20 0xFFFFFFFFFFFFFFFFFFFFFFFFFFFFFFFFFFFFFFFF AND EQ PUSH2 0x96F JUMPI PUSH1 0x40 MLOAD PUSH32 0x8C379A000000000000000000000000000000000000000000000000000000000 DUP2 MSTORE PUSH1 0x4 ADD PUSH2 0x966 SWAP1 PUSH2 0x11E7 JUMP JUMPDEST PUSH1 0x40 MLOAD DUP1 SWAP2 SUB SWAP1 REVERT JUMPDEST PUSH0 PUSH1 0x40 MLOAD DUP1 PUSH1 0x60 ADD PUSH1 0x40 MSTORE DUP1 DUP6 DUP2 MSTORE PUSH1 0x20 ADD DUP5 DUP2 MSTORE PUSH1 0x20 ADD DUP4 PUSH20 0xFFFFFFFFFFFFFFFFFFFFFFFFFFFFFFFFFFFFFFFF AND DUP2 MSTORE POP SWAP1 DUP1 PUSH1 0x1 DUP2 SLOAD ADD DUP1 DUP3 SSTORE DUP1 SWAP2 POP POP PUSH1 0x1 SWAP1 SUB SWAP1 PUSH0 MSTORE PUSH1 0x20 PUSH0 KECCAK256 SWAP1 PUSH1 0x3 MUL ADD PUSH0 SWAP1 SWAP2 SWAP1 SWAP2 SWAP1 SWAP2 POP PUSH0 DUP3 ADD MLOAD DUP2 PUSH0 ADD SSTORE PUSH1 0x20 DUP3 ADD MLOAD DUP2 PUSH1 0x1 ADD SWAP1 DUP2 PUSH2 0x9E4 SWAP2 SWAP1 PUSH2 0x13B6 JUMP JUMPDEST POP PUSH1 0x40 DUP3 ADD MLOAD DUP2 PUSH1 0x2 ADD PUSH0 PUSH2 0x100 EXP DUP2 SLOAD DUP2 PUSH20 0xFFFFFFFFFFFFFFFFFFFFFFFFFFFFFFFFFFFFFFFF MUL NOT AND SWAP1 DUP4 PUSH20 0xFFFFFFFFFFFFFFFFFFFFFFFFFFFFFFFFFFFFFFFF AND MUL OR SWAP1 SSTORE POP POP POP POP POP POP JUMP JUMPDEST PUSH0 PUSH1 0x4 PUSH0 DUP4 DUP2 MSTORE PUSH1 0x20 ADD SWAP1 DUP2 MSTORE PUSH1 0x20 ADD PUSH0 KECCAK256 SLOAD SWAP1 POP SWAP2 SWAP1 POP JUMP JUMPDEST PUSH1 0x40 MLOAD DUP1 PUSH1 0x60 ADD PUSH1 0x40 MSTORE DUP1 PUSH0 DUP2 MSTORE PUSH1 0x20 ADD PUSH1 0x60 DUP2 MSTORE PUSH1 0x20 ADD PUSH0 PUSH20 0xFFFFFFFFFFFFFFFFFFFFFFFFFFFFFFFFFFFFFFFF AND DUP2 MSTORE POP SWAP1 JUMP JUMPDEST PUSH0 PUSH1 0x40 MLOAD SWAP1 POP SWAP1 JUMP JUMPDEST PUSH0 PUSH0 REVERT JUMPDEST PUSH0 PUSH0 REVERT JUMPDEST PUSH0 DUP2 SWAP1 POP SWAP2 SWAP1 POP JUMP JUMPDEST PUSH2 0xAA4 DUP2 PUSH2 0xA92 JUMP JUMPDEST DUP2 EQ PUSH2 0xAAE JUMPI PUSH0 PUSH0 REVERT JUMPDEST POP JUMP JUMPDEST PUSH0 DUP2 CALLDATALOAD SWAP1 POP PUSH2 0xABF DUP2 PUSH2 0xA9B JUMP JUMPDEST SWAP3 SWAP2 POP POP JUMP JUMPDEST PUSH0 PUSH1 0x20 DUP3 DUP5 SUB SLT ISZERO PUSH2 0xADA JUMPI PUSH2 0xAD9 PUSH2 0xA8A JUMP JUMPDEST JUMPDEST PUSH0 PUSH2 0xAE7 DUP5 DUP3 DUP6 ADD PUSH2 0xAB1 JUMP JUMPDEST SWAP2 POP POP SWAP3 SWAP2 POP POP JUMP JUMPDEST PUSH2 0xAF9 DUP2 PUSH2 0xA92 JUMP JUMPDEST DUP3 MSTORE POP POP JUMP JUMPDEST PUSH0 DUP2 MLOAD SWAP1 POP SWAP2 SWAP1 POP JUMP JUMPDEST PUSH0 DUP3 DUP3 MSTORE PUSH1 0x20 DUP3 ADD SWAP1 POP SWAP3 SWAP2 POP POP JUMP JUMPDEST DUP3 DUP2 DUP4 MCOPY PUSH0 DUP4 DUP4 ADD MSTORE POP POP POP JUMP JUMPDEST PUSH0 PUSH1 0x1F NOT PUSH1 0x1F DUP4 ADD AND SWAP1 POP SWAP2 SWAP1 POP JUMP JUMPDEST PUSH0 PUSH2 0xB41 DUP3 PUSH2 0xAFF JUMP JUMPDEST PUSH2 0xB4B DUP2 DUP6 PUSH2 0xB09 JUMP JUMPDEST SWAP4 POP PUSH2 0xB5B DUP2 DUP6 PUSH1 0x20 DUP7 ADD PUSH2 0xB19 JUMP JUMPDEST PUSH2 0xB64 DUP2 PUSH2 0xB27 JUMP JUMPDEST DUP5 ADD SWAP2 POP POP SWAP3 SWAP2 POP POP JUMP JUMPDEST PUSH0 PUSH20 0xFFFFFFFFFFFFFFFFFFFFFFFFFFFFFFFFFFFFFFFF DUP3 AND SWAP1 POP SWAP2 SWAP1 POP JUMP JUMPDEST PUSH0 PUSH2 0xB98 DUP3 PUSH2 0xB6F JUMP JUMPDEST SWAP1 POP SWAP2 SWAP1 POP JUMP JUMPDEST PUSH2 0xBA8 DUP2 PUSH2 0xB8E JUMP JUMPDEST DUP3 MSTORE POP POP JUMP JUMPDEST PUSH0 PUSH1 0x60 DUP3 ADD SWAP1 POP PUSH2 0xBC1 PUSH0 DUP4 ADD DUP7 PUSH2 0xAF0 JUMP JUMPDEST DUP2 DUP2 SUB PUSH1 0x20 DUP4 ADD MSTORE PUSH2 0xBD3 DUP2 DUP6 PUSH2 0xB37 JUMP JUMPDEST SWAP1 POP PUSH2 0xBE2 PUSH1 0x40 DUP4 ADD DUP5 PUSH2 0xB9F JUMP JUMPDEST SWAP5 SWAP4 POP POP POP POP JUMP JUMPDEST PUSH2 0xBF3 DUP2 PUSH2 0xB8E JUMP JUMPDEST DUP2 EQ PUSH2 0xBFD JUMPI PUSH0 PUSH0 REVERT JUMPDEST POP JUMP JUMPDEST PUSH0 DUP2 CALLDATALOAD SWAP1 POP PUSH2 0xC0E DUP2 PUSH2 0xBEA JUMP JUMPDEST SWAP3 SWAP2 POP POP JUMP JUMPDEST PUSH0 PUSH1 0x20 DUP3 DUP5 SUB SLT ISZERO PUSH2 0xC29 JUMPI PUSH2 0xC28 PUSH2 0xA8A JUMP JUMPDEST JUMPDEST PUSH0 PUSH2 0xC36 DUP5 DUP3 DUP6 ADD PUSH2 0xC00 JUMP JUMPDEST SWAP2 POP POP SWAP3 SWAP2 POP POP JUMP JUMPDEST PUSH0 DUP2 ISZERO ISZERO SWAP1 POP SWAP2 SWAP1 POP JUMP JUMPDEST PUSH2 0xC53 DUP2 PUSH2 0xC3F JUMP JUMPDEST DUP3 MSTORE POP POP JUMP JUMPDEST PUSH0 PUSH1 0x20 DUP3 ADD SWAP1 POP PUSH2 0xC6C PUSH0 DUP4 ADD DUP5 PUSH2 0xC4A JUMP JUMPDEST SWAP3 SWAP2 POP POP JUMP JUMPDEST PUSH0 PUSH1 0x20 DUP3 ADD SWAP1 POP PUSH2 0xC85 PUSH0 DUP4 ADD DUP5 PUSH2 0xAF0 JUMP JUMPDEST SWAP3 SWAP2 POP POP JUMP JUMPDEST PUSH0 PUSH1 0x20 DUP3 ADD SWAP1 POP PUSH2 0xC9E PUSH0 DUP4 ADD DUP5 PUSH2 0xB9F JUMP JUMPDEST SWAP3 SWAP2 POP POP JUMP JUMPDEST PUSH2 0xCAD DUP2 PUSH2 0xA92 JUMP JUMPDEST DUP3 MSTORE POP POP JUMP JUMPDEST PUSH0 DUP3 DUP3 MSTORE PUSH1 0x20 DUP3 ADD SWAP1 POP SWAP3 SWAP2 POP POP JUMP JUMPDEST PUSH0 PUSH2 0xCCD DUP3 PUSH2 0xAFF JUMP JUMPDEST PUSH2 0xCD7 DUP2 DUP6 PUSH2 0xCB3 JUMP JUMPDEST SWAP4 POP PUSH2 0xCE7 DUP2 DUP6 PUSH1 0x20 DUP7 ADD PUSH2 0xB19 JUMP JUMPDEST PUSH2 0xCF0 DUP2 PUSH2 0xB27 JUMP JUMPDEST DUP5 ADD SWAP2 POP POP SWAP3 SWAP2 POP POP JUMP JUMPDEST PUSH2 0xD04 DUP2 PUSH2 0xB8E JUMP JUMPDEST DUP3 MSTORE POP POP JUMP JUMPDEST PUSH0 PUSH1 0x60 DUP4 ADD PUSH0 DUP4 ADD MLOAD PUSH2 0xD1F PUSH0 DUP7 ADD DUP3 PUSH2 0xCA4 JUMP JUMPDEST POP PUSH1 0x20 DUP4 ADD MLOAD DUP5 DUP3 SUB PUSH1 0x20 DUP7 ADD MSTORE PUSH2 0xD37 DUP3 DUP3 PUSH2 0xCC3 JUMP JUMPDEST SWAP2 POP POP PUSH1 0x40 DUP4 ADD MLOAD PUSH2 0xD4C PUSH1 0x40 DUP7 ADD DUP3 PUSH2 0xCFB JUMP JUMPDEST POP DUP1 SWAP2 POP POP SWAP3 SWAP2 POP POP JUMP JUMPDEST PUSH0 PUSH1 0x20 DUP3 ADD SWAP1 POP DUP2 DUP2 SUB PUSH0 DUP4 ADD MSTORE PUSH2 0xD6F DUP2 DUP5 PUSH2 0xD0A JUMP JUMPDEST SWAP1 POP SWAP3 SWAP2 POP POP JUMP JUMPDEST PUSH0 DUP2 MLOAD SWAP1 POP SWAP2 SWAP1 POP JUMP JUMPDEST PUSH0 DUP3 DUP3 MSTORE PUSH1 0x20 DUP3 ADD SWAP1 POP SWAP3 SWAP2 POP POP JUMP JUMPDEST PUSH0 DUP2 SWAP1 POP PUSH1 0x20 DUP3 ADD SWAP1 POP SWAP2 SWAP1 POP JUMP JUMPDEST PUSH0 PUSH1 0x60 DUP4 ADD PUSH0 DUP4 ADD MLOAD PUSH2 0xDB5 PUSH0 DUP7 ADD DUP3 PUSH2 0xCA4 JUMP JUMPDEST POP PUSH1 0x20 DUP4 ADD MLOAD DUP5 DUP3 SUB PUSH1 0x20 DUP7 ADD MSTORE PUSH2 0xDCD DUP3 DUP3 PUSH2 0xCC3 JUMP JUMPDEST SWAP2 POP POP PUSH1 0x40 DUP4 ADD MLOAD PUSH2 0xDE2 PUSH1 0x40 DUP7 ADD DUP3 PUSH2 0xCFB JUMP JUMPDEST POP DUP1 SWAP2 POP POP SWAP3 SWAP2 POP POP JUMP JUMPDEST PUSH0 PUSH2 0xDF8 DUP4 DUP4 PUSH2 0xDA0 JUMP JUMPDEST SWAP1 POP SWAP3 SWAP2 POP POP JUMP JUMPDEST PUSH0 PUSH1 0x20 DUP3 ADD SWAP1 POP SWAP2 SWAP1 POP JUMP JUMPDEST PUSH0 PUSH2 0xE16 DUP3 PUSH2 0xD77 JUMP JUMPDEST PUSH2 0xE20 DUP2 DUP6 PUSH2 0xD81 JUMP JUMPDEST SWAP4 POP DUP4 PUSH1 0x20 DUP3 MUL DUP6 ADD PUSH2 0xE32 DUP6 PUSH2 0xD91 JUMP JUMPDEST DUP1 PUSH0 JUMPDEST DUP6 DUP2 LT ISZERO PUSH2 0xE6D JUMPI DUP5 DUP5 SUB DUP10 MSTORE DUP2 MLOAD PUSH2 0xE4E DUP6 DUP3 PUSH2 0xDED JUMP JUMPDEST SWAP5 POP PUSH2 0xE59 DUP4 PUSH2 0xE00 JUMP JUMPDEST SWAP3 POP PUSH1 0x20 DUP11 ADD SWAP10 POP POP PUSH1 0x1 DUP2 ADD SWAP1 POP PUSH2 0xE35 JUMP JUMPDEST POP DUP3 SWAP8 POP DUP8 SWAP6 POP POP POP POP POP POP SWAP3 SWAP2 POP POP JUMP JUMPDEST PUSH0 PUSH1 0x20 DUP3 ADD SWAP1 POP DUP2 DUP2 SUB PUSH0 DUP4 ADD MSTORE PUSH2 0xE97 DUP2 DUP5 PUSH2 0xE0C JUMP JUMPDEST SWAP1 POP SWAP3 SWAP2 POP POP JUMP JUMPDEST PUSH0 PUSH0 REVERT JUMPDEST PUSH0 PUSH0 REVERT JUMPDEST PUSH32 0x4E487B7100000000000000000000000000000000000000000000000000000000 PUSH0 MSTORE PUSH1 0x41 PUSH1 0x4 MSTORE PUSH1 0x24 PUSH0 REVERT JUMPDEST PUSH2 0xEDD DUP3 PUSH2 0xB27 JUMP JUMPDEST DUP2 ADD DUP2 DUP2 LT PUSH8 0xFFFFFFFFFFFFFFFF DUP3 GT OR ISZERO PUSH2 0xEFC JUMPI PUSH2 0xEFB PUSH2 0xEA7 JUMP JUMPDEST JUMPDEST DUP1 PUSH1 0x40 MSTORE POP POP POP JUMP JUMPDEST PUSH0 PUSH2 0xF0E PUSH2 0xA81 JUMP JUMPDEST SWAP1 POP PUSH2 0xF1A DUP3 DUP3 PUSH2 0xED4 JUMP JUMPDEST SWAP2 SWAP1 POP JUMP JUMPDEST PUSH0 PUSH8 0xFFFFFFFFFFFFFFFF DUP3 GT ISZERO PUSH2 0xF39 JUMPI PUSH2 0xF38 PUSH2 0xEA7 JUMP JUMPDEST JUMPDEST PUSH2 0xF42 DUP3 PUSH2 0xB27 JUMP JUMPDEST SWAP1 POP PUSH1 0x20 DUP2 ADD SWAP1 POP SWAP2 SWAP1 POP JUMP JUMPDEST DUP3 DUP2 DUP4 CALLDATACOPY PUSH0 DUP4 DUP4 ADD MSTORE POP POP POP JUMP JUMPDEST PUSH0 PUSH2 0xF6F PUSH2 0xF6A DUP5 PUSH2 0xF1F JUMP JUMPDEST PUSH2 0xF05 JUMP JUMPDEST SWAP1 POP DUP3 DUP2 MSTORE PUSH1 0x20 DUP2 ADD DUP5 DUP5 DUP5 ADD GT ISZERO PUSH2 0xF8B JUMPI PUSH2 0xF8A PUSH2 0xEA3 JUMP JUMPDEST JUMPDEST PUSH2 0xF96 DUP5 DUP3 DUP6 PUSH2 0xF4F JUMP JUMPDEST POP SWAP4 SWAP3 POP POP POP JUMP JUMPDEST PUSH0 DUP3 PUSH1 0x1F DUP4 ADD SLT PUSH2 0xFB2 JUMPI PUSH2 0xFB1 PUSH2 0xE9F JUMP JUMPDEST JUMPDEST DUP2 CALLDATALOAD PUSH2 0xFC2 DUP5 DUP3 PUSH1 0x20 DUP7 ADD PUSH2 0xF5D JUMP JUMPDEST SWAP2 POP POP SWAP3 SWAP2 POP POP JUMP JUMPDEST PUSH0 PUSH0 PUSH0 PUSH1 0x60 DUP5 DUP7 SUB SLT ISZERO PUSH2 0xFE2 JUMPI PUSH2 0xFE1 PUSH2 0xA8A JUMP JUMPDEST JUMPDEST PUSH0 PUSH2 0xFEF DUP7 DUP3 DUP8 ADD PUSH2 0xAB1 JUMP JUMPDEST SWAP4 POP POP PUSH1 0x20 DUP5 ADD CALLDATALOAD PUSH8 0xFFFFFFFFFFFFFFFF DUP2 GT ISZERO PUSH2 0x1010 JUMPI PUSH2 0x100F PUSH2 0xA8E JUMP JUMPDEST JUMPDEST PUSH2 0x101C DUP7 DUP3 DUP8 ADD PUSH2 0xF9E JUMP JUMPDEST SWAP3 POP POP PUSH1 0x40 PUSH2 0x102D DUP7 DUP3 DUP8 ADD PUSH2 0xC00 JUMP JUMPDEST SWAP2 POP POP SWAP3 POP SWAP3 POP SWAP3 JUMP JUMPDEST PUSH32 0x416C726561647920766F74656400000000000000000000000000000000000000 PUSH0 DUP3 ADD MSTORE POP JUMP JUMPDEST PUSH0 PUSH2 0x106B PUSH1 0xD DUP4 PUSH2 0xB09 JUMP JUMPDEST SWAP2 POP PUSH2 0x1076 DUP3 PUSH2 0x1037 JUMP JUMPDEST PUSH1 0x20 DUP3 ADD SWAP1 POP SWAP2 SWAP1 POP JUMP JUMPDEST PUSH0 PUSH1 0x20 DUP3 ADD SWAP1 POP DUP2 DUP2 SUB PUSH0 DUP4 ADD MSTORE PUSH2 0x1098 DUP2 PUSH2 0x105F JUMP JUMPDEST SWAP1 POP SWAP2 SWAP1 POP JUMP JUMPDEST PUSH32 0x4E487B7100000000000000000000000000000000000000000000000000000000 PUSH0 MSTORE PUSH1 0x11 PUSH1 0x4 MSTORE PUSH1 0x24 PUSH0 REVERT JUMPDEST PUSH0 PUSH2 0x10D6 DUP3 PUSH2 0xA92 JUMP JUMPDEST SWAP2 POP PUSH32 0xFFFFFFFFFFFFFFFFFFFFFFFFFFFFFFFFFFFFFFFFFFFFFFFFFFFFFFFFFFFFFFFF DUP3 SUB PUSH2 0x1108 JUMPI PUSH2 0x1107 PUSH2 0x109F JUMP JUMPDEST JUMPDEST PUSH1 0x1 DUP3 ADD SWAP1 POP SWAP2 SWAP1 POP JUMP JUMPDEST PUSH32 0x4E487B7100000000000000000000000000000000000000000000000000000000 PUSH0 MSTORE PUSH1 0x22 PUSH1 0x4 MSTORE PUSH1 0x24 PUSH0 REVERT JUMPDEST PUSH0 PUSH1 0x2 DUP3 DIV SWAP1 POP PUSH1 0x1 DUP3 AND DUP1 PUSH2 0x1157 JUMPI PUSH1 0x7F DUP3 AND SWAP2 POP JUMPDEST PUSH1 0x20 DUP3 LT DUP2 SUB PUSH2 0x116A JUMPI PUSH2 0x1169 PUSH2 0x1113 JUMP JUMPDEST JUMPDEST POP SWAP2 SWAP1 POP JUMP JUMPDEST PUSH32 0x4E487B7100000000000000000000000000000000000000000000000000000000 PUSH0 MSTORE PUSH1 0x32 PUSH1 0x4 MSTORE PUSH1 0x24 PUSH0 REVERT JUMPDEST PUSH32 0x206F6E6C79206F776E6572000000000000000000000000000000000000000000 PUSH0 DUP3 ADD MSTORE POP JUMP JUMPDEST PUSH0 PUSH2 0x11D1 PUSH1 0xB DUP4 PUSH2 0xB09 JUMP JUMPDEST SWAP2 POP PUSH2 0x11DC DUP3 PUSH2 0x119D JUMP JUMPDEST PUSH1 0x20 DUP3 ADD SWAP1 POP SWAP2 SWAP1 POP JUMP JUMPDEST PUSH0 PUSH1 0x20 DUP3 ADD SWAP1 POP DUP2 DUP2 SUB PUSH0 DUP4 ADD MSTORE PUSH2 0x11FE DUP2 PUSH2 0x11C5 JUMP JUMPDEST SWAP1 POP SWAP2 SWAP1 POP JUMP JUMPDEST PUSH0 DUP2 SWAP1 POP DUP2 PUSH0 MSTORE PUSH1 0x20 PUSH0 KECCAK256 SWAP1 POP SWAP2 SWAP1 POP JUMP JUMPDEST PUSH0 PUSH1 0x20 PUSH1 0x1F DUP4 ADD DIV SWAP1 POP SWAP2 SWAP1 POP JUMP JUMPDEST PUSH0 DUP3 DUP3 SHL SWAP1 POP SWAP3 SWAP2 POP POP JUMP JUMPDEST PUSH0 PUSH1 0x8 DUP4 MUL PUSH2 0x1261 PUSH32 0xFFFFFFFFFFFFFFFFFFFFFFFFFFFFFFFFFFFFFFFFFFFFFFFFFFFFFFFFFFFFFFFF DUP3 PUSH2 0x1226 JUMP JUMPDEST PUSH2 0x126B DUP7 DUP4 PUSH2 0x1226 JUMP JUMPDEST SWAP6 POP DUP1 NOT DUP5 AND SWAP4 POP DUP1 DUP7 AND DUP5 OR SWAP3 POP POP POP SWAP4 SWAP3 POP POP POP JUMP JUMPDEST PUSH0 DUP2 SWAP1 POP SWAP2 SWAP1 POP JUMP JUMPDEST PUSH0 PUSH2 0x12A6 PUSH2 0x12A1 PUSH2 0x129C DUP5 PUSH2 0xA92 JUMP JUMPDEST PUSH2 0x1283 JUMP JUMPDEST PUSH2 0xA92 JUMP JUMPDEST SWAP1 POP SWAP2 SWAP1 POP JUMP JUMPDEST PUSH0 DUP2 SWAP1 POP SWAP2 SWAP1 POP JUMP JUMPDEST PUSH2 0x12BF DUP4 PUSH2 0x128C JUMP JUMPDEST PUSH2 0x12D3 PUSH2 0x12CB DUP3 PUSH2 0x12AD JUMP JUMPDEST DUP5 DUP5 SLOAD PUSH2 0x1232 JUMP JUMPDEST DUP3 SSTORE POP POP POP POP JUMP JUMPDEST PUSH0 PUSH0 SWAP1 POP SWAP1 JUMP JUMPDEST PUSH2 0x12EA PUSH2 0x12DB JUMP JUMPDEST PUSH2 0x12F5 DUP2 DUP5 DUP5 PUSH2 0x12B6 JUMP JUMPDEST POP POP POP JUMP JUMPDEST PUSH0 JUMPDEST DUP3 DUP2 LT ISZERO PUSH2 0x131B JUMPI PUSH2 0x1310 PUSH0 DUP3 DUP5 ADD PUSH2 0x12E2 JUMP JUMPDEST PUSH1 0x1 DUP2 ADD SWAP1 POP PUSH2 0x12FC JUMP JUMPDEST POP POP POP JUMP JUMPDEST PUSH1 0x1F DUP3 GT ISZERO PUSH2 0x136E JUMPI DUP3 DUP3 GT ISZERO PUSH2 0x136D JUMPI PUSH2 0x133A DUP2 PUSH2 0x1205 JUMP JUMPDEST PUSH2 0x1343 DUP4 PUSH2 0x1217 JUMP JUMPDEST PUSH2 0x134C DUP6 PUSH2 0x1217 JUMP JUMPDEST PUSH1 0x20 DUP7 LT ISZERO PUSH2 0x1359 JUMPI PUSH0 SWAP1 POP JUMPDEST DUP1 DUP4 ADD PUSH2 0x1368 DUP3 DUP5 SUB DUP3 PUSH2 0x12FA JUMP JUMPDEST POP POP POP POP JUMPDEST JUMPDEST POP POP POP JUMP JUMPDEST PUSH0 DUP3 DUP3 SHR SWAP1 POP SWAP3 SWAP2 POP POP JUMP JUMPDEST PUSH0 PUSH2 0x138E PUSH0 NOT DUP5 PUSH1 0x8 MUL PUSH2 0x1373 JUMP JUMPDEST NOT DUP1 DUP4 AND SWAP2 POP POP SWAP3 SWAP2 POP POP JUMP JUMPDEST PUSH0 PUSH2 0x13A6 DUP4 DUP4 PUSH2 0x137F JUMP JUMPDEST SWAP2 POP DUP3 PUSH1 0x2 MUL DUP3 OR SWAP1 POP SWAP3 SWAP2 POP POP JUMP JUMPDEST PUSH2 0x13BF DUP3 PUSH2 0xAFF JUMP JUMPDEST PUSH8 0xFFFFFFFFFFFFFFFF DUP2 GT ISZERO PUSH2 0x13D8 JUMPI PUSH2 0x13D7 PUSH2 0xEA7 JUMP JUMPDEST JUMPDEST PUSH2 0x13E2 DUP3 SLOAD PUSH2 0x1140 JUMP JUMPDEST PUSH2 0x13ED DUP3 DUP3 DUP6 PUSH2 0x1320 JUMP JUMPDEST PUSH0 PUSH1 0x20 SWAP1 POP PUSH1 0x1F DUP4 GT PUSH1 0x1 DUP2 EQ PUSH2 0x141E JUMPI PUSH0 DUP5 ISZERO PUSH2 0x140C JUMPI DUP3 DUP8 ADD MLOAD SWAP1 POP JUMPDEST PUSH2 0x1416 DUP6 DUP3 PUSH2 0x139B JUMP JUMPDEST DUP7 SSTORE POP PUSH2 0x147D JUMP JUMPDEST PUSH1 0x1F NOT DUP5 AND PUSH2 0x142C DUP7 PUSH2 0x1205 JUMP JUMPDEST PUSH0 JUMPDEST DUP3 DUP2 LT ISZERO PUSH2 0x1453 JUMPI DUP5 DUP10 ADD MLOAD DUP3 SSTORE PUSH1 0x1 DUP3 ADD SWAP2 POP PUSH1 0x20 DUP6 ADD SWAP5 POP PUSH1 0x20 DUP2 ADD SWAP1 POP PUSH2 0x142E JUMP JUMPDEST DUP7 DUP4 LT ISZERO PUSH2 0x1470 JUMPI DUP5 DUP10 ADD MLOAD PUSH2 0x146C PUSH1 0x1F DUP10 AND DUP3 PUSH2 0x137F JUMP JUMPDEST DUP4 SSTORE POP JUMPDEST PUSH1 0x1 PUSH1 0x2 DUP9 MUL ADD DUP9 SSTORE POP POP POP JUMPDEST POP POP POP POP POP POP JUMP INVALID LOG2 PUSH5 0x6970667358 0x22 SLT KECCAK256 PUSH11 0xB01E79A605BEAED738BA48 RETF 0xB4 0xD5 0xDA 0xCF SWAP6 0xDE SMOD PUSH30 0xED13E524DA095168554BBD64736F6C634300082300330000000000000000 "
				},
				"gasEstimates": {
					"creation": {
						"codeDepositCost": "1061400",
						"executionCost": "25363",
						"totalCost": "1086763"
					},
					"external": {
						"CanVoted(address)": "2900",
						"addProposal(uint256,string,address)": "infinite",
						"getAllProposals()": "infinite",
						"getProposal(uint256)": "infinite",
						"getVotes(uint256)": "infinite",
						"getWinner()": "infinite",
						"hasVoted(address)": "2938",
						"numofProposal(address)": "2891",
						"owner()": "2531",
						"proposalCount()": "2483",
						"proposalVotes(uint256)": "infinite",
						"proposals(uint256)": "infinite",
						"vote(uint256)": "infinite",
						"votesCount(uint256)": "infinite"
					}
				},
				"methodIdentifiers": {
					"CanVoted(address)": "5a4e7b72",
					"addProposal(uint256,string,address)": "fad35844",
					"getAllProposals()": "cceb68f5",
					"getProposal(uint256)": "c7f758a8",
					"getVotes(uint256)": "ff981099",
					"getWinner()": "8e7ea5b2",
					"hasVoted(address)": "09eef43e",
					"numofProposal(address)": "7d9d4255",
					"owner()": "8da5cb5b",
					"proposalCount()": "da35c664",
					"proposalVotes(uint256)": "544ffc9c",
					"proposals(uint256)": "013cf08b",
					"vote(uint256)": "0121b93f",
					"votesCount(uint256)": "50a6491a"
				}
			},
			"storageLayout": {
				"storage": [
					{
						"astId": 12,
						"contract": "contracts/voting.sol:voteing",
						"label": "proposals",
						"offset": 0,
						"slot": "0",
						"type": "t_array(t_struct(Proposal)8_storage)dyn_storage"
					},
					{
						"astId": 16,
						"contract": "contracts/voting.sol:voteing",
						"label": "CanVoted",
						"offset": 0,
						"slot": "1",
						"type": "t_mapping(t_address,t_bool)"
					},
					{
						"astId": 18,
						"contract": "contracts/voting.sol:voteing",
						"label": "owner",
						"offset": 0,
						"slot": "2",
						"type": "t_address"
					},
					{
						"astId": 65,
						"contract": "contracts/voting.sol:voteing",
						"label": "proposalVotes",
						"offset": 0,
						"slot": "3",
						"type": "t_mapping(t_uint256,t_uint256)"
					},
					{
						"astId": 95,
						"contract": "contracts/voting.sol:voteing",
						"label": "votesCount",
						"offset": 0,
						"slot": "4",
						"type": "t_mapping(t_uint256,t_uint256)"
					},
					{
						"astId": 142,
						"contract": "contracts/voting.sol:voteing",
						"label": "numofProposal",
						"offset": 0,
						"slot": "5",
						"type": "t_mapping(t_address,t_uint256)"
					}
				],
				"types": {
					"t_address": {
						"encoding": "inplace",
						"label": "address",
						"numberOfBytes": "20"
					},
					"t_array(t_struct(Proposal)8_storage)dyn_storage": {
						"base": "t_struct(Proposal)8_storage",
						"encoding": "dynamic_array",
						"label": "struct voteing.Proposal[]",
						"numberOfBytes": "32"
					},
					"t_bool": {
						"encoding": "inplace",
						"label": "bool",
						"numberOfBytes": "1"
					},
					"t_mapping(t_address,t_bool)": {
						"encoding": "mapping",
						"key": "t_address",
						"label": "mapping(address => bool)",
						"numberOfBytes": "32",
						"value": "t_bool"
					},
					"t_mapping(t_address,t_uint256)": {
						"encoding": "mapping",
						"key": "t_address",
						"label": "mapping(address => uint256)",
						"numberOfBytes": "32",
						"value": "t_uint256"
					},
					"t_mapping(t_uint256,t_uint256)": {
						"encoding": "mapping",
						"key": "t_uint256",
						"label": "mapping(uint256 => uint256)",
						"numberOfBytes": "32",
						"value": "t_uint256"
					},
					"t_string_storage": {
						"encoding": "bytes",
						"label": "string",
						"numberOfBytes": "32"
					},
					"t_struct(Proposal)8_storage": {
						"encoding": "inplace",
						"label": "struct voteing.Proposal",
						"members": [
							{
								"astId": 3,
								"contract": "contracts/voting.sol:voteing",
								"label": "id",
								"offset": 0,
								"slot": "0",
								"type": "t_uint256"
							},
							{
								"astId": 5,
								"contract": "contracts/voting.sol:voteing",
								"label": "proposal",
								"offset": 0,
								"slot": "1",
								"type": "t_string_storage"
							},
							{
								"astId": 7,
								"contract": "contracts/voting.sol:voteing",
								"label": "Address",
								"offset": 0,
								"slot": "2",
								"type": "t_address"
							}
						],
						"numberOfBytes": "96"
					},
					"t_uint256": {
						"encoding": "inplace",
						"label": "uint256",
						"numberOfBytes": "32"
					}
				}
			},
			"userdoc": {
				"kind": "user",
				"methods": {},
				"version": 1
			}
		}
	}
}