{
	"data": {
		"bytecode": {
			"linkReferences": {},
			"object": "6080604052348015600e575f5ffd5b503360025f6101000a81548173ffffffffffffffffffffffffffffffffffffffff021916908373ffffffffffffffffffffffffffffffffffffffff1602179055506119fb8061005c5f395ff3fe608060405234801561000f575f5ffd5b50600436106100cd575f3560e01c80638e7ea5b21161008a578063cceb68f511610064578063cceb68f514610200578063da35c6641461021e578063fad3584414610228578063ff98109914610244576100cd565b80638e7ea5b2146101a8578063c631b292146101c6578063c7f758a8146101d0576100cd565b80630121b93f146100d1578063013cf08b146100ed5780635a4e7b72146101205780637d9d425514610150578063856e698c146101805780638da5cb5b1461018a575b5f5ffd5b6100eb60048036038101906100e69190610edb565b610274565b005b61010760048036038101906101029190610edb565b61038b565b6040516101179493929190610fc4565b60405180910390f35b61013a60048036038101906101359190611038565b61046a565b604051610147919061107d565b60405180910390f35b61016a60048036038101906101659190611038565b610487565b6040516101779190611096565b60405180910390f35b61018861049c565b005b610192610573565b60405161019f91906110af565b60405180910390f35b6101b0610598565b6040516101bd919061118e565b60405180910390f35b6101ce610885565b005b6101ea60048036038101906101e59190610edb565b610916565b6040516101f7919061118e565b60405180910390f35b610208610a8d565b60405161021591906112c9565b60405180910390f35b610226610be0565b005b610242600480360381019061023d9190611415565b610c89565b005b61025e60048036038101906102599190610edb565b610e31565b60405161026b9190611096565b60405180910390f35b60015f3373ffffffffffffffffffffffffffffffffffffffff1673ffffffffffffffffffffffffffffffffffffffff1681526020019081526020015f205f9054906101000a900460ff166102fd576040517f08c379a00000000000000000000000000000000000000000000000000000000081526004016102f4906114cb565b60405180910390fd5b6001805f3373ffffffffffffffffffffffffffffffffffffffff1673ffffffffffffffffffffffffffffffffffffffff1681526020019081526020015f205f6101000a81548160ff0219169083151502179055505f8181548110610364576103636114e9565b5b905f5260205f2090600402016003015f81548092919061038390611543565b919050555050565b5f8181548110610399575f80fd5b905f5260205f2090600402015f91509050805f0154908060010180546103be906115b7565b80601f01602080910402602001604051908101604052809291908181526020018280546103ea906115b7565b80156104355780601f1061040c57610100808354040283529160200191610435565b820191905f5260205f20905b81548152906001019060200180831161041857829003601f168201915b505050505090806002015f9054906101000a900473ffffffffffffffffffffffffffffffffffffffff16908060030154905084565b6001602052805f5260405f205f915054906101000a900460ff1681565b6003602052805f5260405f205f915090505481565b60025f9054906101000a900473ffffffffffffffffffffffffffffffffffffffff1673ffffffffffffffffffffffffffffffffffffffff163373ffffffffffffffffffffffffffffffffffffffff161461052b576040517f08c379a000000000000000000000000000000000000000000000000000000000815260040161052290611657565b60405180910390fd5b5f5f90505b5f80549050811015610570575f5f82815481106105505761054f6114e9565b5b905f5260205f209060040201600301819055508080600101915050610530565b50565b60025f9054906101000a900473ffffffffffffffffffffffffffffffffffffffff1681565b6105a0610e5c565b5f5f80549050116105e6576040517f08c379a00000000000000000000000000000000000000000000000000000000081526004016105dd906116bf565b60405180910390fd5b5f5f5f815481106105fa576105f96114e9565b5b905f5260205f2090600402016040518060800160405290815f820154815260200160018201805461062a906115b7565b80601f0160208091040260200160405190810160405280929190818152602001828054610656906115b7565b80156106a15780601f10610678576101008083540402835291602001916106a1565b820191905f5260205f20905b81548152906001019060200180831161068457829003601f168201915b50505050508152602001600282015f9054906101000a900473ffffffffffffffffffffffffffffffffffffffff1673ffffffffffffffffffffffffffffffffffffffff1673ffffffffffffffffffffffffffffffffffffffff16815260200160038201548152505090505f600190505b5f8054905081101561087d5781606001515f8281548110610735576107346114e9565b5b905f5260205f209060040201600301541115610870575f818154811061075e5761075d6114e9565b5b905f5260205f2090600402016040518060800160405290815f820154815260200160018201805461078e906115b7565b80601f01602080910402602001604051908101604052809291908181526020018280546107ba906115b7565b80156108055780601f106107dc57610100808354040283529160200191610805565b820191905f5260205f20905b8154815290600101906020018083116107e857829003601f168201915b50505050508152602001600282015f9054906101000a900473ffffffffffffffffffffffffffffffffffffffff1673ffffffffffffffffffffffffffffffffffffffff1673ffffffffffffffffffffffffffffffffffffffff16815260200160038201548152505091505b8080600101915050610711565b508091505090565b60025f9054906101000a900473ffffffffffffffffffffffffffffffffffffffff1673ffffffffffffffffffffffffffffffffffffffff163373ffffffffffffffffffffffffffffffffffffffff1614610914576040517f08c379a000000000000000000000000000000000000000000000000000000000815260040161090b90611657565b60405180910390fd5b565b61091e610e5c565b5f805490508210610964576040517f08c379a000000000000000000000000000000000000000000000000000000000815260040161095b90611727565b60405180910390fd5b5f8281548110610977576109766114e9565b5b905f5260205f2090600402016040518060800160405290815f82015481526020016001820180546109a7906115b7565b80601f01602080910402602001604051908101604052809291908181526020018280546109d3906115b7565b8015610a1e5780601f106109f557610100808354040283529160200191610a1e565b820191905f5260205f20905b815481529060010190602001808311610a0157829003601f168201915b50505050508152602001600282015f9054906101000a900473ffffffffffffffffffffffffffffffffffffffff1673ffffffffffffffffffffffffffffffffffffffff1673ffffffffffffffffffffffffffffffffffffffff1681526020016003820154815250509050919050565b60605f805480602002602001604051908101604052809291908181526020015f905b82821015610bd7578382905f5260205f2090600402016040518060800160405290815f8201548152602001600182018054610ae9906115b7565b80601f0160208091040260200160405190810160405280929190818152602001828054610b15906115b7565b8015610b605780601f10610b3757610100808354040283529160200191610b60565b820191905f5260205f20905b815481529060010190602001808311610b4357829003601f168201915b50505050508152602001600282015f9054906101000a900473ffffffffffffffffffffffffffffffffffffffff1673ffffffffffffffffffffffffffffffffffffffff1673ffffffffffffffffffffffffffffffffffffffff16815260200160038201548152505081526020019060010190610aaf565b50505050905090565b5f5f90505b5f80549050811015610c86575f5f8281548110610c0557610c046114e9565b5b905f5260205f2090600402016002015f9054906101000a900473ffffffffffffffffffffffffffffffffffffffff1690505f60035f8373ffffffffffffffffffffffffffffffffffffffff1673ffffffffffffffffffffffffffffffffffffffff1681526020019081526020015f2081905550508080600101915050610be5565b50565b60025f9054906101000a900473ffffffffffffffffffffffffffffffffffffffff1673ffffffffffffffffffffffffffffffffffffffff163373ffffffffffffffffffffffffffffffffffffffff1614610d18576040517f08c379a0000000000000000000000000000000000000000000000000000000008152600401610d0f90611657565b60405180910390fd5b5f805490508314610d5e576040517f08c379a0000000000000000000000000000000000000000000000000000000008152600401610d5590611727565b60405180910390fd5b5f60405180608001604052808581526020018481526020018373ffffffffffffffffffffffffffffffffffffffff1681526020015f815250908060018154018082558091505060019003905f5260205f2090600402015f909190919091505f820151815f01556020820151816001019081610dd991906118f6565b506040820151816002015f6101000a81548173ffffffffffffffffffffffffffffffffffffffff021916908373ffffffffffffffffffffffffffffffffffffffff160217905550606082015181600301555050505050565b5f5f8281548110610e4557610e446114e9565b5b905f5260205f209060040201600301549050919050565b60405180608001604052805f8152602001606081526020015f73ffffffffffffffffffffffffffffffffffffffff1681526020015f81525090565b5f604051905090565b5f5ffd5b5f5ffd5b5f819050919050565b610eba81610ea8565b8114610ec4575f5ffd5b50565b5f81359050610ed581610eb1565b92915050565b5f60208284031215610ef057610eef610ea0565b5b5f610efd84828501610ec7565b91505092915050565b610f0f81610ea8565b82525050565b5f81519050919050565b5f82825260208201905092915050565b8281835e5f83830152505050565b5f601f19601f8301169050919050565b5f610f5782610f15565b610f618185610f1f565b9350610f71818560208601610f2f565b610f7a81610f3d565b840191505092915050565b5f73ffffffffffffffffffffffffffffffffffffffff82169050919050565b5f610fae82610f85565b9050919050565b610fbe81610fa4565b82525050565b5f608082019050610fd75f830187610f06565b8181036020830152610fe98186610f4d565b9050610ff86040830185610fb5565b6110056060830184610f06565b95945050505050565b61101781610fa4565b8114611021575f5ffd5b50565b5f813590506110328161100e565b92915050565b5f6020828403121561104d5761104c610ea0565b5b5f61105a84828501611024565b91505092915050565b5f8115159050919050565b61107781611063565b82525050565b5f6020820190506110905f83018461106e565b92915050565b5f6020820190506110a95f830184610f06565b92915050565b5f6020820190506110c25f830184610fb5565b92915050565b6110d181610ea8565b82525050565b5f82825260208201905092915050565b5f6110f182610f15565b6110fb81856110d7565b935061110b818560208601610f2f565b61111481610f3d565b840191505092915050565b61112881610fa4565b82525050565b5f608083015f8301516111435f8601826110c8565b506020830151848203602086015261115b82826110e7565b9150506040830151611170604086018261111f565b50606083015161118360608601826110c8565b508091505092915050565b5f6020820190508181035f8301526111a6818461112e565b905092915050565b5f81519050919050565b5f82825260208201905092915050565b5f819050602082019050919050565b5f608083015f8301516111ec5f8601826110c8565b506020830151848203602086015261120482826110e7565b9150506040830151611219604086018261111f565b50606083015161122c60608601826110c8565b508091505092915050565b5f61124283836111d7565b905092915050565b5f602082019050919050565b5f611260826111ae565b61126a81856111b8565b93508360208202850161127c856111c8565b805f5b858110156112b757848403895281516112988582611237565b94506112a38361124a565b925060208a0199505060018101905061127f565b50829750879550505050505092915050565b5f6020820190508181035f8301526112e18184611256565b905092915050565b5f5ffd5b5f5ffd5b7f4e487b71000000000000000000000000000000000000000000000000000000005f52604160045260245ffd5b61132782610f3d565b810181811067ffffffffffffffff82111715611346576113456112f1565b5b80604052505050565b5f611358610e97565b9050611364828261131e565b919050565b5f67ffffffffffffffff821115611383576113826112f1565b5b61138c82610f3d565b9050602081019050919050565b828183375f83830152505050565b5f6113b96113b484611369565b61134f565b9050828152602081018484840111156113d5576113d46112ed565b5b6113e0848285611399565b509392505050565b5f82601f8301126113fc576113fb6112e9565b5b813561140c8482602086016113a7565b91505092915050565b5f5f5f6060848603121561142c5761142b610ea0565b5b5f61143986828701610ec7565b935050602084013567ffffffffffffffff81111561145a57611459610ea4565b5b611466868287016113e8565b925050604061147786828701611024565b9150509250925092565b7f416c726561647920766f746564000000000000000000000000000000000000005f82015250565b5f6114b5600d83610f1f565b91506114c082611481565b602082019050919050565b5f6020820190508181035f8301526114e2816114a9565b9050919050565b7f4e487b71000000000000000000000000000000000000000000000000000000005f52603260045260245ffd5b7f4e487b71000000000000000000000000000000000000000000000000000000005f52601160045260245ffd5b5f61154d82610ea8565b91507fffffffffffffffffffffffffffffffffffffffffffffffffffffffffffffffff820361157f5761157e611516565b5b600182019050919050565b7f4e487b71000000000000000000000000000000000000000000000000000000005f52602260045260245ffd5b5f60028204905060018216806115ce57607f821691505b6020821081036115e1576115e061158a565b5b50919050565b7f4f6e6c79206f776e65722063616e2063616c6c20746869732066756e6374696f5f8201527f6e00000000000000000000000000000000000000000000000000000000000000602082015250565b5f611641602183610f1f565b915061164c826115e7565b604082019050919050565b5f6020820190508181035f83015261166e81611635565b9050919050565b7f4e6f2070726f706f73616c7320657869737400000000000000000000000000005f82015250565b5f6116a9601283610f1f565b91506116b482611675565b602082019050919050565b5f6020820190508181035f8301526116d68161169d565b9050919050565b7f496e76616c69642070726f706f73616c204944000000000000000000000000005f82015250565b5f611711601383610f1f565b915061171c826116dd565b602082019050919050565b5f6020820190508181035f83015261173e81611705565b9050919050565b5f819050815f5260205f209050919050565b5f6020601f8301049050919050565b5f82821b905092915050565b5f600883026117a17fffffffffffffffffffffffffffffffffffffffffffffffffffffffffffffffff82611766565b6117ab8683611766565b95508019841693508086168417925050509392505050565b5f819050919050565b5f6117e66117e16117dc84610ea8565b6117c3565b610ea8565b9050919050565b5f819050919050565b6117ff836117cc565b61181361180b826117ed565b848454611772565b825550505050565b5f5f905090565b61182a61181b565b6118358184846117f6565b505050565b5f5b8281101561185b576118505f828401611822565b60018101905061183c565b505050565b601f8211156118ae57828211156118ad5761187a81611745565b61188383611757565b61188c85611757565b6020861015611899575f90505b8083016118a88284038261183a565b505050505b5b505050565b5f82821c905092915050565b5f6118ce5f19846008026118b3565b1980831691505092915050565b5f6118e683836118bf565b9150826002028217905092915050565b6118ff82610f15565b67ffffffffffffffff811115611918576119176112f1565b5b61192282546115b7565b61192d828285611860565b5f60209050601f83116001811461195e575f841561194c578287015190505b61195685826118db565b8655506119bd565b601f19841661196c86611745565b5f5b828110156119935784890151825560018201915060208501945060208101905061196e565b868310156119b057848901516119ac601f8916826118bf565b8355505b6001600288020188555050505b50505050505056fea26469706673582212200040d23a1fad513f31e70f34641cdf823955e17e2fef65321e3f8f08e5e401b664736f6c63430008230033",
			"opcodes": "PUSH1 0x80 PUSH1 0x40 MSTORE CALLVALUE DUP1 ISZERO PUSH1 0xE JUMPI PUSH0 PUSH0 REVERT JUMPDEST POP CALLER PUSH1 0x2 PUSH0 PUSH2 0x100 EXP DUP2 SLOAD DUP2 PUSH20 0xFFFFFFFFFFFFFFFFFFFFFFFFFFFFFFFFFFFFFFFF MUL NOT AND SWAP1 DUP4 PUSH20 0xFFFFFFFFFFFFFFFFFFFFFFFFFFFFFFFFFFFFFFFF AND MUL OR SWAP1 SSTORE POP PUSH2 0x19FB DUP1 PUSH2 0x5C PUSH0 CODECOPY PUSH0 RETURN INVALID PUSH1 0x80 PUSH1 0x40 MSTORE CALLVALUE DUP1 ISZERO PUSH2 0xF JUMPI PUSH0 PUSH0 REVERT JUMPDEST POP PUSH1 0x4 CALLDATASIZE LT PUSH2 0xCD JUMPI PUSH0 CALLDATALOAD PUSH1 0xE0 SHR DUP1 PUSH4 0x8E7EA5B2 GT PUSH2 0x8A JUMPI DUP1 PUSH4 0xCCEB68F5 GT PUSH2 0x64 JUMPI DUP1 PUSH4 0xCCEB68F5 EQ PUSH2 0x200 JUMPI DUP1 PUSH4 0xDA35C664 EQ PUSH2 0x21E JUMPI DUP1 PUSH4 0xFAD35844 EQ PUSH2 0x228 JUMPI DUP1 PUSH4 0xFF981099 EQ PUSH2 0x244 JUMPI PUSH2 0xCD JUMP JUMPDEST DUP1 PUSH4 0x8E7EA5B2 EQ PUSH2 0x1A8 JUMPI DUP1 PUSH4 0xC631B292 EQ PUSH2 0x1C6 JUMPI DUP1 PUSH4 0xC7F758A8 EQ PUSH2 0x1D0 JUMPI PUSH2 0xCD JUMP JUMPDEST DUP1 PUSH4 0x121B93F EQ PUSH2 0xD1 JUMPI DUP1 PUSH4 0x13CF08B EQ PUSH2 0xED JUMPI DUP1 PUSH4 0x5A4E7B72 EQ PUSH2 0x120 JUMPI DUP1 PUSH4 0x7D9D4255 EQ PUSH2 0x150 JUMPI DUP1 PUSH4 0x856E698C EQ PUSH2 0x180 JUMPI DUP1 PUSH4 0x8DA5CB5B EQ PUSH2 0x18A JUMPI JUMPDEST PUSH0 PUSH0 REVERT JUMPDEST PUSH2 0xEB PUSH1 0x4 DUP1 CALLDATASIZE SUB DUP2 ADD SWAP1 PUSH2 0xE6 SWAP2 SWAP1 PUSH2 0xEDB JUMP JUMPDEST PUSH2 0x274 JUMP JUMPDEST STOP JUMPDEST PUSH2 0x107 PUSH1 0x4 DUP1 CALLDATASIZE SUB DUP2 ADD SWAP1 PUSH2 0x102 SWAP2 SWAP1 PUSH2 0xEDB JUMP JUMPDEST PUSH2 0x38B JUMP JUMPDEST PUSH1 0x40 MLOAD PUSH2 0x117 SWAP5 SWAP4 SWAP3 SWAP2 SWAP1 PUSH2 0xFC4 JUMP JUMPDEST PUSH1 0x40 MLOAD DUP1 SWAP2 SUB SWAP1 RETURN JUMPDEST PUSH2 0x13A PUSH1 0x4 DUP1 CALLDATASIZE SUB DUP2 ADD SWAP1 PUSH2 0x135 SWAP2 SWAP1 PUSH2 0x1038 JUMP JUMPDEST PUSH2 0x46A JUMP JUMPDEST PUSH1 0x40 MLOAD PUSH2 0x147 SWAP2 SWAP1 PUSH2 0x107D JUMP JUMPDEST PUSH1 0x40 MLOAD DUP1 SWAP2 SUB SWAP1 RETURN JUMPDEST PUSH2 0x16A PUSH1 0x4 DUP1 CALLDATASIZE SUB DUP2 ADD SWAP1 PUSH2 0x165 SWAP2 SWAP1 PUSH2 0x1038 JUMP JUMPDEST PUSH2 0x487 JUMP JUMPDEST PUSH1 0x40 MLOAD PUSH2 0x177 SWAP2 SWAP1 PUSH2 0x1096 JUMP JUMPDEST PUSH1 0x40 MLOAD DUP1 SWAP2 SUB SWAP1 RETURN JUMPDEST PUSH2 0x188 PUSH2 0x49C JUMP JUMPDEST STOP JUMPDEST PUSH2 0x192 PUSH2 0x573 JUMP JUMPDEST PUSH1 0x40 MLOAD PUSH2 0x19F SWAP2 SWAP1 PUSH2 0x10AF JUMP JUMPDEST PUSH1 0x40 MLOAD DUP1 SWAP2 SUB SWAP1 RETURN JUMPDEST PUSH2 0x1B0 PUSH2 0x598 JUMP JUMPDEST PUSH1 0x40 MLOAD PUSH2 0x1BD SWAP2 SWAP1 PUSH2 0x118E JUMP JUMPDEST PUSH1 0x40 MLOAD DUP1 SWAP2 SUB SWAP1 RETURN JUMPDEST PUSH2 0x1CE PUSH2 0x885 JUMP JUMPDEST STOP JUMPDEST PUSH2 0x1EA PUSH1 0x4 DUP1 CALLDATASIZE SUB DUP2 ADD SWAP1 PUSH2 0x1E5 SWAP2 SWAP1 PUSH2 0xEDB JUMP JUMPDEST PUSH2 0x916 JUMP JUMPDEST PUSH1 0x40 MLOAD PUSH2 0x1F7 SWAP2 SWAP1 PUSH2 0x118E JUMP JUMPDEST PUSH1 0x40 MLOAD DUP1 SWAP2 SUB SWAP1 RETURN JUMPDEST PUSH2 0x208 PUSH2 0xA8D JUMP JUMPDEST PUSH1 0x40 MLOAD PUSH2 0x215 SWAP2 SWAP1 PUSH2 0x12C9 JUMP JUMPDEST PUSH1 0x40 MLOAD DUP1 SWAP2 SUB SWAP1 RETURN JUMPDEST PUSH2 0x226 PUSH2 0xBE0 JUMP JUMPDEST STOP JUMPDEST PUSH2 0x242 PUSH1 0x4 DUP1 CALLDATASIZE SUB DUP2 ADD SWAP1 PUSH2 0x23D SWAP2 SWAP1 PUSH2 0x1415 JUMP JUMPDEST PUSH2 0xC89 JUMP JUMPDEST STOP JUMPDEST PUSH2 0x25E PUSH1 0x4 DUP1 CALLDATASIZE SUB DUP2 ADD SWAP1 PUSH2 0x259 SWAP2 SWAP1 PUSH2 0xEDB JUMP JUMPDEST PUSH2 0xE31 JUMP JUMPDEST PUSH1 0x40 MLOAD PUSH2 0x26B SWAP2 SWAP1 PUSH2 0x1096 JUMP JUMPDEST PUSH1 0x40 MLOAD DUP1 SWAP2 SUB SWAP1 RETURN JUMPDEST PUSH1 0x1 PUSH0 CALLER PUSH20 0xFFFFFFFFFFFFFFFFFFFFFFFFFFFFFFFFFFFFFFFF AND PUSH20 0xFFFFFFFFFFFFFFFFFFFFFFFFFFFFFFFFFFFFFFFF AND DUP2 MSTORE PUSH1 0x20 ADD SWAP1 DUP2 MSTORE PUSH1 0x20 ADD PUSH0 KECCAK256 PUSH0 SWAP1 SLOAD SWAP1 PUSH2 0x100 EXP SWAP1 DIV PUSH1 0xFF AND PUSH2 0x2FD JUMPI PUSH1 0x40 MLOAD PUSH32 0x8C379A000000000000000000000000000000000000000000000000000000000 DUP2 MSTORE PUSH1 0x4 ADD PUSH2 0x2F4 SWAP1 PUSH2 0x14CB JUMP JUMPDEST PUSH1 0x40 MLOAD DUP1 SWAP2 SUB SWAP1 REVERT JUMPDEST PUSH1 0x1 DUP1 PUSH0 CALLER PUSH20 0xFFFFFFFFFFFFFFFFFFFFFFFFFFFFFFFFFFFFFFFF AND PUSH20 0xFFFFFFFFFFFFFFFFFFFFFFFFFFFFFFFFFFFFFFFF AND DUP2 MSTORE PUSH1 0x20 ADD SWAP1 DUP2 MSTORE PUSH1 0x20 ADD PUSH0 KECCAK256 PUSH0 PUSH2 0x100 EXP DUP2 SLOAD DUP2 PUSH1 0xFF MUL NOT AND SWAP1 DUP4 ISZERO ISZERO MUL OR SWAP1 SSTORE POP PUSH0 DUP2 DUP2 SLOAD DUP2 LT PUSH2 0x364 JUMPI PUSH2 0x363 PUSH2 0x14E9 JUMP JUMPDEST JUMPDEST SWAP1 PUSH0 MSTORE PUSH1 0x20 PUSH0 KECCAK256 SWAP1 PUSH1 0x4 MUL ADD PUSH1 0x3 ADD PUSH0 DUP2 SLOAD DUP1 SWAP3 SWAP2 SWAP1 PUSH2 0x383 SWAP1 PUSH2 0x1543 JUMP JUMPDEST SWAP2 SWAP1 POP SSTORE POP POP JUMP JUMPDEST PUSH0 DUP2 DUP2 SLOAD DUP2 LT PUSH2 0x399 JUMPI PUSH0 DUP1 REVERT JUMPDEST SWAP1 PUSH0 MSTORE PUSH1 0x20 PUSH0 KECCAK256 SWAP1 PUSH1 0x4 MUL ADD PUSH0 SWAP2 POP SWAP1 POP DUP1 PUSH0 ADD SLOAD SWAP1 DUP1 PUSH1 0x1 ADD DUP1 SLOAD PUSH2 0x3BE SWAP1 PUSH2 0x15B7 JUMP JUMPDEST DUP1 PUSH1 0x1F ADD PUSH1 0x20 DUP1 SWAP2 DIV MUL PUSH1 0x20 ADD PUSH1 0x40 MLOAD SWAP1 DUP2 ADD PUSH1 0x40 MSTORE DUP1 SWAP3 SWAP2 SWAP1 DUP2 DUP2 MSTORE PUSH1 0x20 ADD DUP3 DUP1 SLOAD PUSH2 0x3EA SWAP1 PUSH2 0x15B7 JUMP JUMPDEST DUP1 ISZERO PUSH2 0x435 JUMPI DUP1 PUSH1 0x1F LT PUSH2 0x40C JUMPI PUSH2 0x100 DUP1 DUP4 SLOAD DIV MUL DUP4 MSTORE SWAP2 PUSH1 0x20 ADD SWAP2 PUSH2 0x435 JUMP JUMPDEST DUP3 ADD SWAP2 SWAP1 PUSH0 MSTORE PUSH1 0x20 PUSH0 KECCAK256 SWAP1 JUMPDEST DUP2 SLOAD DUP2 MSTORE SWAP1 PUSH1 0x1 ADD SWAP1 PUSH1 0x20 ADD DUP1 DUP4 GT PUSH2 0x418 JUMPI DUP3 SWAP1 SUB PUSH1 0x1F AND DUP3 ADD SWAP2 JUMPDEST POP POP POP POP POP SWAP1 DUP1 PUSH1 0x2 ADD PUSH0 SWAP1 SLOAD SWAP1 PUSH2 0x100 EXP SWAP1 DIV PUSH20 0xFFFFFFFFFFFFFFFFFFFFFFFFFFFFFFFFFFFFFFFF AND SWAP1 DUP1 PUSH1 0x3 ADD SLOAD SWAP1 POP DUP5 JUMP JUMPDEST PUSH1 0x1 PUSH1 0x20 MSTORE DUP1 PUSH0 MSTORE PUSH1 0x40 PUSH0 KECCAK256 PUSH0 SWAP2 POP SLOAD SWAP1 PUSH2 0x100 EXP SWAP1 DIV PUSH1 0xFF AND DUP2 JUMP JUMPDEST PUSH1 0x3 PUSH1 0x20 MSTORE DUP1 PUSH0 MSTORE PUSH1 0x40 PUSH0 KECCAK256 PUSH0 SWAP2 POP SWAP1 POP SLOAD DUP2 JUMP JUMPDEST PUSH1 0x2 PUSH0 SWAP1 SLOAD SWAP1 PUSH2 0x100 EXP SWAP1 DIV PUSH20 0xFFFFFFFFFFFFFFFFFFFFFFFFFFFFFFFFFFFFFFFF AND PUSH20 0xFFFFFFFFFFFFFFFFFFFFFFFFFFFFFFFFFFFFFFFF AND CALLER PUSH20 0xFFFFFFFFFFFFFFFFFFFFFFFFFFFFFFFFFFFFFFFF AND EQ PUSH2 0x52B JUMPI PUSH1 0x40 MLOAD PUSH32 0x8C379A000000000000000000000000000000000000000000000000000000000 DUP2 MSTORE PUSH1 0x4 ADD PUSH2 0x522 SWAP1 PUSH2 0x1657 JUMP JUMPDEST PUSH1 0x40 MLOAD DUP1 SWAP2 SUB SWAP1 REVERT JUMPDEST PUSH0 PUSH0 SWAP1 POP JUMPDEST PUSH0 DUP1 SLOAD SWAP1 POP DUP2 LT ISZERO PUSH2 0x570 JUMPI PUSH0 PUSH0 DUP3 DUP2 SLOAD DUP2 LT PUSH2 0x550 JUMPI PUSH2 0x54F PUSH2 0x14E9 JUMP JUMPDEST JUMPDEST SWAP1 PUSH0 MSTORE PUSH1 0x20 PUSH0 KECCAK256 SWAP1 PUSH1 0x4 MUL ADD PUSH1 0x3 ADD DUP2 SWAP1 SSTORE POP DUP1 DUP1 PUSH1 0x1 ADD SWAP2 POP POP PUSH2 0x530 JUMP JUMPDEST POP JUMP JUMPDEST PUSH1 0x2 PUSH0 SWAP1 SLOAD SWAP1 PUSH2 0x100 EXP SWAP1 DIV PUSH20 0xFFFFFFFFFFFFFFFFFFFFFFFFFFFFFFFFFFFFFFFF AND DUP2 JUMP JUMPDEST PUSH2 0x5A0 PUSH2 0xE5C JUMP JUMPDEST PUSH0 PUSH0 DUP1 SLOAD SWAP1 POP GT PUSH2 0x5E6 JUMPI PUSH1 0x40 MLOAD PUSH32 0x8C379A000000000000000000000000000000000000000000000000000000000 DUP2 MSTORE PUSH1 0x4 ADD PUSH2 0x5DD SWAP1 PUSH2 0x16BF JUMP JUMPDEST PUSH1 0x40 MLOAD DUP1 SWAP2 SUB SWAP1 REVERT JUMPDEST PUSH0 PUSH0 PUSH0 DUP2 SLOAD DUP2 LT PUSH2 0x5FA JUMPI PUSH2 0x5F9 PUSH2 0x14E9 JUMP JUMPDEST JUMPDEST SWAP1 PUSH0 MSTORE PUSH1 0x20 PUSH0 KECCAK256 SWAP1 PUSH1 0x4 MUL ADD PUSH1 0x40 MLOAD DUP1 PUSH1 0x80 ADD PUSH1 0x40 MSTORE SWAP1 DUP2 PUSH0 DUP3 ADD SLOAD DUP2 MSTORE PUSH1 0x20 ADD PUSH1 0x1 DUP3 ADD DUP1 SLOAD PUSH2 0x62A SWAP1 PUSH2 0x15B7 JUMP JUMPDEST DUP1 PUSH1 0x1F ADD PUSH1 0x20 DUP1 SWAP2 DIV MUL PUSH1 0x20 ADD PUSH1 0x40 MLOAD SWAP1 DUP2 ADD PUSH1 0x40 MSTORE DUP1 SWAP3 SWAP2 SWAP1 DUP2 DUP2 MSTORE PUSH1 0x20 ADD DUP3 DUP1 SLOAD PUSH2 0x656 SWAP1 PUSH2 0x15B7 JUMP JUMPDEST DUP1 ISZERO PUSH2 0x6A1 JUMPI DUP1 PUSH1 0x1F LT PUSH2 0x678 JUMPI PUSH2 0x100 DUP1 DUP4 SLOAD DIV MUL DUP4 MSTORE SWAP2 PUSH1 0x20 ADD SWAP2 PUSH2 0x6A1 JUMP JUMPDEST DUP3 ADD SWAP2 SWAP1 PUSH0 MSTORE PUSH1 0x20 PUSH0 KECCAK256 SWAP1 JUMPDEST DUP2 SLOAD DUP2 MSTORE SWAP1 PUSH1 0x1 ADD SWAP1 PUSH1 0x20 ADD DUP1 DUP4 GT PUSH2 0x684 JUMPI DUP3 SWAP1 SUB PUSH1 0x1F AND DUP3 ADD SWAP2 JUMPDEST POP POP POP POP POP DUP2 MSTORE PUSH1 0x20 ADD PUSH1 0x2 DUP3 ADD PUSH0 SWAP1 SLOAD SWAP1 PUSH2 0x100 EXP SWAP1 DIV PUSH20 0xFFFFFFFFFFFFFFFFFFFFFFFFFFFFFFFFFFFFFFFF AND PUSH20 0xFFFFFFFFFFFFFFFFFFFFFFFFFFFFFFFFFFFFFFFF AND PUSH20 0xFFFFFFFFFFFFFFFFFFFFFFFFFFFFFFFFFFFFFFFF AND DUP2 MSTORE PUSH1 0x20 ADD PUSH1 0x3 DUP3 ADD SLOAD DUP2 MSTORE POP POP SWAP1 POP PUSH0 PUSH1 0x1 SWAP1 POP JUMPDEST PUSH0 DUP1 SLOAD SWAP1 POP DUP2 LT ISZERO PUSH2 0x87D JUMPI DUP2 PUSH1 0x60 ADD MLOAD PUSH0 DUP3 DUP2 SLOAD DUP2 LT PUSH2 0x735 JUMPI PUSH2 0x734 PUSH2 0x14E9 JUMP JUMPDEST JUMPDEST SWAP1 PUSH0 MSTORE PUSH1 0x20 PUSH0 KECCAK256 SWAP1 PUSH1 0x4 MUL ADD PUSH1 0x3 ADD SLOAD GT ISZERO PUSH2 0x870 JUMPI PUSH0 DUP2 DUP2 SLOAD DUP2 LT PUSH2 0x75E JUMPI PUSH2 0x75D PUSH2 0x14E9 JUMP JUMPDEST JUMPDEST SWAP1 PUSH0 MSTORE PUSH1 0x20 PUSH0 KECCAK256 SWAP1 PUSH1 0x4 MUL ADD PUSH1 0x40 MLOAD DUP1 PUSH1 0x80 ADD PUSH1 0x40 MSTORE SWAP1 DUP2 PUSH0 DUP3 ADD SLOAD DUP2 MSTORE PUSH1 0x20 ADD PUSH1 0x1 DUP3 ADD DUP1 SLOAD PUSH2 0x78E SWAP1 PUSH2 0x15B7 JUMP JUMPDEST DUP1 PUSH1 0x1F ADD PUSH1 0x20 DUP1 SWAP2 DIV MUL PUSH1 0x20 ADD PUSH1 0x40 MLOAD SWAP1 DUP2 ADD PUSH1 0x40 MSTORE DUP1 SWAP3 SWAP2 SWAP1 DUP2 DUP2 MSTORE PUSH1 0x20 ADD DUP3 DUP1 SLOAD PUSH2 0x7BA SWAP1 PUSH2 0x15B7 JUMP JUMPDEST DUP1 ISZERO PUSH2 0x805 JUMPI DUP1 PUSH1 0x1F LT PUSH2 0x7DC JUMPI PUSH2 0x100 DUP1 DUP4 SLOAD DIV MUL DUP4 MSTORE SWAP2 PUSH1 0x20 ADD SWAP2 PUSH2 0x805 JUMP JUMPDEST DUP3 ADD SWAP2 SWAP1 PUSH0 MSTORE PUSH1 0x20 PUSH0 KECCAK256 SWAP1 JUMPDEST DUP2 SLOAD DUP2 MSTORE SWAP1 PUSH1 0x1 ADD SWAP1 PUSH1 0x20 ADD DUP1 DUP4 GT PUSH2 0x7E8 JUMPI DUP3 SWAP1 SUB PUSH1 0x1F AND DUP3 ADD SWAP2 JUMPDEST POP POP POP POP POP DUP2 MSTORE PUSH1 0x20 ADD PUSH1 0x2 DUP3 ADD PUSH0 SWAP1 SLOAD SWAP1 PUSH2 0x100 EXP SWAP1 DIV PUSH20 0xFFFFFFFFFFFFFFFFFFFFFFFFFFFFFFFFFFFFFFFF AND PUSH20 0xFFFFFFFFFFFFFFFFFFFFFFFFFFFFFFFFFFFFFFFF AND PUSH20 0xFFFFFFFFFFFFFFFFFFFFFFFFFFFFFFFFFFFFFFFF AND DUP2 MSTORE PUSH1 0x20 ADD PUSH1 0x3 DUP3 ADD SLOAD DUP2 MSTORE POP POP SWAP2 POP JUMPDEST DUP1 DUP1 PUSH1 0x1 ADD SWAP2 POP POP PUSH2 0x711 JUMP JUMPDEST POP DUP1 SWAP2 POP POP SWAP1 JUMP JUMPDEST PUSH1 0x2 PUSH0 SWAP1 SLOAD SWAP1 PUSH2 0x100 EXP SWAP1 DIV PUSH20 0xFFFFFFFFFFFFFFFFFFFFFFFFFFFFFFFFFFFFFFFF AND PUSH20 0xFFFFFFFFFFFFFFFFFFFFFFFFFFFFFFFFFFFFFFFF AND CALLER PUSH20 0xFFFFFFFFFFFFFFFFFFFFFFFFFFFFFFFFFFFFFFFF AND EQ PUSH2 0x914 JUMPI PUSH1 0x40 MLOAD PUSH32 0x8C379A000000000000000000000000000000000000000000000000000000000 DUP2 MSTORE PUSH1 0x4 ADD PUSH2 0x90B SWAP1 PUSH2 0x1657 JUMP JUMPDEST PUSH1 0x40 MLOAD DUP1 SWAP2 SUB SWAP1 REVERT JUMPDEST JUMP JUMPDEST PUSH2 0x91E PUSH2 0xE5C JUMP JUMPDEST PUSH0 DUP1 SLOAD SWAP1 POP DUP3 LT PUSH2 0x964 JUMPI PUSH1 0x40 MLOAD PUSH32 0x8C379A000000000000000000000000000000000000000000000000000000000 DUP2 MSTORE PUSH1 0x4 ADD PUSH2 0x95B SWAP1 PUSH2 0x1727 JUMP JUMPDEST PUSH1 0x40 MLOAD DUP1 SWAP2 SUB SWAP1 REVERT JUMPDEST PUSH0 DUP3 DUP2 SLOAD DUP2 LT PUSH2 0x977 JUMPI PUSH2 0x976 PUSH2 0x14E9 JUMP JUMPDEST JUMPDEST SWAP1 PUSH0 MSTORE PUSH1 0x20 PUSH0 KECCAK256 SWAP1 PUSH1 0x4 MUL ADD PUSH1 0x40 MLOAD DUP1 PUSH1 0x80 ADD PUSH1 0x40 MSTORE SWAP1 DUP2 PUSH0 DUP3 ADD SLOAD DUP2 MSTORE PUSH1 0x20 ADD PUSH1 0x1 DUP3 ADD DUP1 SLOAD PUSH2 0x9A7 SWAP1 PUSH2 0x15B7 JUMP JUMPDEST DUP1 PUSH1 0x1F ADD PUSH1 0x20 DUP1 SWAP2 DIV MUL PUSH1 0x20 ADD PUSH1 0x40 MLOAD SWAP1 DUP2 ADD PUSH1 0x40 MSTORE DUP1 SWAP3 SWAP2 SWAP1 DUP2 DUP2 MSTORE PUSH1 0x20 ADD DUP3 DUP1 SLOAD PUSH2 0x9D3 SWAP1 PUSH2 0x15B7 JUMP JUMPDEST DUP1 ISZERO PUSH2 0xA1E JUMPI DUP1 PUSH1 0x1F LT PUSH2 0x9F5 JUMPI PUSH2 0x100 DUP1 DUP4 SLOAD DIV MUL DUP4 MSTORE SWAP2 PUSH1 0x20 ADD SWAP2 PUSH2 0xA1E JUMP JUMPDEST DUP3 ADD SWAP2 SWAP1 PUSH0 MSTORE PUSH1 0x20 PUSH0 KECCAK256 SWAP1 JUMPDEST DUP2 SLOAD DUP2 MSTORE SWAP1 PUSH1 0x1 ADD SWAP1 PUSH1 0x20 ADD DUP1 DUP4 GT PUSH2 0xA01 JUMPI DUP3 SWAP1 SUB PUSH1 0x1F AND DUP3 ADD SWAP2 JUMPDEST POP POP POP POP POP DUP2 MSTORE PUSH1 0x20 ADD PUSH1 0x2 DUP3 ADD PUSH0 SWAP1 SLOAD SWAP1 PUSH2 0x100 EXP SWAP1 DIV PUSH20 0xFFFFFFFFFFFFFFFFFFFFFFFFFFFFFFFFFFFFFFFF AND PUSH20 0xFFFFFFFFFFFFFFFFFFFFFFFFFFFFFFFFFFFFFFFF AND PUSH20 0xFFFFFFFFFFFFFFFFFFFFFFFFFFFFFFFFFFFFFFFF AND DUP2 MSTORE PUSH1 0x20 ADD PUSH1 0x3 DUP3 ADD SLOAD DUP2 MSTORE POP POP SWAP1 POP SWAP2 SWAP1 POP JUMP JUMPDEST PUSH1 0x60 PUSH0 DUP1 SLOAD DUP1 PUSH1 0x20 MUL PUSH1 0x20 ADD PUSH1 0x40 MLOAD SWAP1 DUP2 ADD PUSH1 0x40 MSTORE DUP1 SWAP3 SWAP2 SWAP1 DUP2 DUP2 MSTORE PUSH1 0x20 ADD PUSH0 SWAP1 JUMPDEST DUP3 DUP3 LT ISZERO PUSH2 0xBD7 JUMPI DUP4 DUP3 SWAP1 PUSH0 MSTORE PUSH1 0x20 PUSH0 KECCAK256 SWAP1 PUSH1 0x4 MUL ADD PUSH1 0x40 MLOAD DUP1 PUSH1 0x80 ADD PUSH1 0x40 MSTORE SWAP1 DUP2 PUSH0 DUP3 ADD SLOAD DUP2 MSTORE PUSH1 0x20 ADD PUSH1 0x1 DUP3 ADD DUP1 SLOAD PUSH2 0xAE9 SWAP1 PUSH2 0x15B7 JUMP JUMPDEST DUP1 PUSH1 0x1F ADD PUSH1 0x20 DUP1 SWAP2 DIV MUL PUSH1 0x20 ADD PUSH1 0x40 MLOAD SWAP1 DUP2 ADD PUSH1 0x40 MSTORE DUP1 SWAP3 SWAP2 SWAP1 DUP2 DUP2 MSTORE PUSH1 0x20 ADD DUP3 DUP1 SLOAD PUSH2 0xB15 SWAP1 PUSH2 0x15B7 JUMP JUMPDEST DUP1 ISZERO PUSH2 0xB60 JUMPI DUP1 PUSH1 0x1F LT PUSH2 0xB37 JUMPI PUSH2 0x100 DUP1 DUP4 SLOAD DIV MUL DUP4 MSTORE SWAP2 PUSH1 0x20 ADD SWAP2 PUSH2 0xB60 JUMP JUMPDEST DUP3 ADD SWAP2 SWAP1 PUSH0 MSTORE PUSH1 0x20 PUSH0 KECCAK256 SWAP1 JUMPDEST DUP2 SLOAD DUP2 MSTORE SWAP1 PUSH1 0x1 ADD SWAP1 PUSH1 0x20 ADD DUP1 DUP4 GT PUSH2 0xB43 JUMPI DUP3 SWAP1 SUB PUSH1 0x1F AND DUP3 ADD SWAP2 JUMPDEST POP POP POP POP POP DUP2 MSTORE PUSH1 0x20 ADD PUSH1 0x2 DUP3 ADD PUSH0 SWAP1 SLOAD SWAP1 PUSH2 0x100 EXP SWAP1 DIV PUSH20 0xFFFFFFFFFFFFFFFFFFFFFFFFFFFFFFFFFFFFFFFF AND PUSH20 0xFFFFFFFFFFFFFFFFFFFFFFFFFFFFFFFFFFFFFFFF AND PUSH20 0xFFFFFFFFFFFFFFFFFFFFFFFFFFFFFFFFFFFFFFFF AND DUP2 MSTORE PUSH1 0x20 ADD PUSH1 0x3 DUP3 ADD SLOAD DUP2 MSTORE POP POP DUP2 MSTORE PUSH1 0x20 ADD SWAP1 PUSH1 0x1 ADD SWAP1 PUSH2 0xAAF JUMP JUMPDEST POP POP POP POP SWAP1 POP SWAP1 JUMP JUMPDEST PUSH0 PUSH0 SWAP1 POP JUMPDEST PUSH0 DUP1 SLOAD SWAP1 POP DUP2 LT ISZERO PUSH2 0xC86 JUMPI PUSH0 PUSH0 DUP3 DUP2 SLOAD DUP2 LT PUSH2 0xC05 JUMPI PUSH2 0xC04 PUSH2 0x14E9 JUMP JUMPDEST JUMPDEST SWAP1 PUSH0 MSTORE PUSH1 0x20 PUSH0 KECCAK256 SWAP1 PUSH1 0x4 MUL ADD PUSH1 0x2 ADD PUSH0 SWAP1 SLOAD SWAP1 PUSH2 0x100 EXP SWAP1 DIV PUSH20 0xFFFFFFFFFFFFFFFFFFFFFFFFFFFFFFFFFFFFFFFF AND SWAP1 POP PUSH0 PUSH1 0x3 PUSH0 DUP4 PUSH20 0xFFFFFFFFFFFFFFFFFFFFFFFFFFFFFFFFFFFFFFFF AND PUSH20 0xFFFFFFFFFFFFFFFFFFFFFFFFFFFFFFFFFFFFFFFF AND DUP2 MSTORE PUSH1 0x20 ADD SWAP1 DUP2 MSTORE PUSH1 0x20 ADD PUSH0 KECCAK256 DUP2 SWAP1 SSTORE POP POP DUP1 DUP1 PUSH1 0x1 ADD SWAP2 POP POP PUSH2 0xBE5 JUMP JUMPDEST POP JUMP JUMPDEST PUSH1 0x2 PUSH0 SWAP1 SLOAD SWAP1 PUSH2 0x100 EXP SWAP1 DIV PUSH20 0xFFFFFFFFFFFFFFFFFFFFFFFFFFFFFFFFFFFFFFFF AND PUSH20 0xFFFFFFFFFFFFFFFFFFFFFFFFFFFFFFFFFFFFFFFF AND CALLER PUSH20 0xFFFFFFFFFFFFFFFFFFFFFFFFFFFFFFFFFFFFFFFF AND EQ PUSH2 0xD18 JUMPI PUSH1 0x40 MLOAD PUSH32 0x8C379A000000000000000000000000000000000000000000000000000000000 DUP2 MSTORE PUSH1 0x4 ADD PUSH2 0xD0F SWAP1 PUSH2 0x1657 JUMP JUMPDEST PUSH1 0x40 MLOAD DUP1 SWAP2 SUB SWAP1 REVERT JUMPDEST PUSH0 DUP1 SLOAD SWAP1 POP DUP4 EQ PUSH2 0xD5E JUMPI PUSH1 0x40 MLOAD PUSH32 0x8C379A000000000000000000000000000000000000000000000000000000000 DUP2 MSTORE PUSH1 0x4 ADD PUSH2 0xD55 SWAP1 PUSH2 0x1727 JUMP JUMPDEST PUSH1 0x40 MLOAD DUP1 SWAP2 SUB SWAP1 REVERT JUMPDEST PUSH0 PUSH1 0x40 MLOAD DUP1 PUSH1 0x80 ADD PUSH1 0x40 MSTORE DUP1 DUP6 DUP2 MSTORE PUSH1 0x20 ADD DUP5 DUP2 MSTORE PUSH1 0x20 ADD DUP4 PUSH20 0xFFFFFFFFFFFFFFFFFFFFFFFFFFFFFFFFFFFFFFFF AND DUP2 MSTORE PUSH1 0x20 ADD PUSH0 DUP2 MSTORE POP SWAP1 DUP1 PUSH1 0x1 DUP2 SLOAD ADD DUP1 DUP3 SSTORE DUP1 SWAP2 POP POP PUSH1 0x1 SWAP1 SUB SWAP1 PUSH0 MSTORE PUSH1 0x20 PUSH0 KECCAK256 SWAP1 PUSH1 0x4 MUL ADD PUSH0 SWAP1 SWAP2 SWAP1 SWAP2 SWAP1 SWAP2 POP PUSH0 DUP3 ADD MLOAD DUP2 PUSH0 ADD SSTORE PUSH1 0x20 DUP3 ADD MLOAD DUP2 PUSH1 0x1 ADD SWAP1 DUP2 PUSH2 0xDD9 SWAP2 SWAP1 PUSH2 0x18F6 JUMP JUMPDEST POP PUSH1 0x40 DUP3 ADD MLOAD DUP2 PUSH1 0x2 ADD PUSH0 PUSH2 0x100 EXP DUP2 SLOAD DUP2 PUSH20 0xFFFFFFFFFFFFFFFFFFFFFFFFFFFFFFFFFFFFFFFF MUL NOT AND SWAP1 DUP4 PUSH20 0xFFFFFFFFFFFFFFFFFFFFFFFFFFFFFFFFFFFFFFFF AND MUL OR SWAP1 SSTORE POP PUSH1 0x60 DUP3 ADD MLOAD DUP2 PUSH1 0x3 ADD SSTORE POP POP POP POP POP JUMP JUMPDEST PUSH0 PUSH0 DUP3 DUP2 SLOAD DUP2 LT PUSH2 0xE45 JUMPI PUSH2 0xE44 PUSH2 0x14E9 JUMP JUMPDEST JUMPDEST SWAP1 PUSH0 MSTORE PUSH1 0x20 PUSH0 KECCAK256 SWAP1 PUSH1 0x4 MUL ADD PUSH1 0x3 ADD SLOAD SWAP1 POP SWAP2 SWAP1 POP JUMP JUMPDEST PUSH1 0x40 MLOAD DUP1 PUSH1 0x80 ADD PUSH1 0x40 MSTORE DUP1 PUSH0 DUP2 MSTORE PUSH1 0x20 ADD PUSH1 0x60 DUP2 MSTORE PUSH1 0x20 ADD PUSH0 PUSH20 0xFFFFFFFFFFFFFFFFFFFFFFFFFFFFFFFFFFFFFFFF AND DUP2 MSTORE PUSH1 0x20 ADD PUSH0 DUP2 MSTORE POP SWAP1 JUMP JUMPDEST PUSH0 PUSH1 0x40 MLOAD SWAP1 POP SWAP1 JUMP JUMPDEST PUSH0 PUSH0 REVERT JUMPDEST PUSH0 PUSH0 REVERT JUMPDEST PUSH0 DUP2 SWAP1 POP SWAP2 SWAP1 POP JUMP JUMPDEST PUSH2 0xEBA DUP2 PUSH2 0xEA8 JUMP JUMPDEST DUP2 EQ PUSH2 0xEC4 JUMPI PUSH0 PUSH0 REVERT JUMPDEST POP JUMP JUMPDEST PUSH0 DUP2 CALLDATALOAD SWAP1 POP PUSH2 0xED5 DUP2 PUSH2 0xEB1 JUMP JUMPDEST SWAP3 SWAP2 POP POP JUMP JUMPDEST PUSH0 PUSH1 0x20 DUP3 DUP5 SUB SLT ISZERO PUSH2 0xEF0 JUMPI PUSH2 0xEEF PUSH2 0xEA0 JUMP JUMPDEST JUMPDEST PUSH0 PUSH2 0xEFD DUP5 DUP3 DUP6 ADD PUSH2 0xEC7 JUMP JUMPDEST SWAP2 POP POP SWAP3 SWAP2 POP POP JUMP JUMPDEST PUSH2 0xF0F DUP2 PUSH2 0xEA8 JUMP JUMPDEST DUP3 MSTORE POP POP JUMP JUMPDEST PUSH0 DUP2 MLOAD SWAP1 POP SWAP2 SWAP1 POP JUMP JUMPDEST PUSH0 DUP3 DUP3 MSTORE PUSH1 0x20 DUP3 ADD SWAP1 POP SWAP3 SWAP2 POP POP JUMP JUMPDEST DUP3 DUP2 DUP4 MCOPY PUSH0 DUP4 DUP4 ADD MSTORE POP POP POP JUMP JUMPDEST PUSH0 PUSH1 0x1F NOT PUSH1 0x1F DUP4 ADD AND SWAP1 POP SWAP2 SWAP1 POP JUMP JUMPDEST PUSH0 PUSH2 0xF57 DUP3 PUSH2 0xF15 JUMP JUMPDEST PUSH2 0xF61 DUP2 DUP6 PUSH2 0xF1F JUMP JUMPDEST SWAP4 POP PUSH2 0xF71 DUP2 DUP6 PUSH1 0x20 DUP7 ADD PUSH2 0xF2F JUMP JUMPDEST PUSH2 0xF7A DUP2 PUSH2 0xF3D JUMP JUMPDEST DUP5 ADD SWAP2 POP POP SWAP3 SWAP2 POP POP JUMP JUMPDEST PUSH0 PUSH20 0xFFFFFFFFFFFFFFFFFFFFFFFFFFFFFFFFFFFFFFFF DUP3 AND SWAP1 POP SWAP2 SWAP1 POP JUMP JUMPDEST PUSH0 PUSH2 0xFAE DUP3 PUSH2 0xF85 JUMP JUMPDEST SWAP1 POP SWAP2 SWAP1 POP JUMP JUMPDEST PUSH2 0xFBE DUP2 PUSH2 0xFA4 JUMP JUMPDEST DUP3 MSTORE POP POP JUMP JUMPDEST PUSH0 PUSH1 0x80 DUP3 ADD SWAP1 POP PUSH2 0xFD7 PUSH0 DUP4 ADD DUP8 PUSH2 0xF06 JUMP JUMPDEST DUP2 DUP2 SUB PUSH1 0x20 DUP4 ADD MSTORE PUSH2 0xFE9 DUP2 DUP7 PUSH2 0xF4D JUMP JUMPDEST SWAP1 POP PUSH2 0xFF8 PUSH1 0x40 DUP4 ADD DUP6 PUSH2 0xFB5 JUMP JUMPDEST PUSH2 0x1005 PUSH1 0x60 DUP4 ADD DUP5 PUSH2 0xF06 JUMP JUMPDEST SWAP6 SWAP5 POP POP POP POP POP JUMP JUMPDEST PUSH2 0x1017 DUP2 PUSH2 0xFA4 JUMP JUMPDEST DUP2 EQ PUSH2 0x1021 JUMPI PUSH0 PUSH0 REVERT JUMPDEST POP JUMP JUMPDEST PUSH0 DUP2 CALLDATALOAD SWAP1 POP PUSH2 0x1032 DUP2 PUSH2 0x100E JUMP JUMPDEST SWAP3 SWAP2 POP POP JUMP JUMPDEST PUSH0 PUSH1 0x20 DUP3 DUP5 SUB SLT ISZERO PUSH2 0x104D JUMPI PUSH2 0x104C PUSH2 0xEA0 JUMP JUMPDEST JUMPDEST PUSH0 PUSH2 0x105A DUP5 DUP3 DUP6 ADD PUSH2 0x1024 JUMP JUMPDEST SWAP2 POP POP SWAP3 SWAP2 POP POP JUMP JUMPDEST PUSH0 DUP2 ISZERO ISZERO SWAP1 POP SWAP2 SWAP1 POP JUMP JUMPDEST PUSH2 0x1077 DUP2 PUSH2 0x1063 JUMP JUMPDEST DUP3 MSTORE POP POP JUMP JUMPDEST PUSH0 PUSH1 0x20 DUP3 ADD SWAP1 POP PUSH2 0x1090 PUSH0 DUP4 ADD DUP5 PUSH2 0x106E JUMP JUMPDEST SWAP3 SWAP2 POP POP JUMP JUMPDEST PUSH0 PUSH1 0x20 DUP3 ADD SWAP1 POP PUSH2 0x10A9 PUSH0 DUP4 ADD DUP5 PUSH2 0xF06 JUMP JUMPDEST SWAP3 SWAP2 POP POP JUMP JUMPDEST PUSH0 PUSH1 0x20 DUP3 ADD SWAP1 POP PUSH2 0x10C2 PUSH0 DUP4 ADD DUP5 PUSH2 0xFB5 JUMP JUMPDEST SWAP3 SWAP2 POP POP JUMP JUMPDEST PUSH2 0x10D1 DUP2 PUSH2 0xEA8 JUMP JUMPDEST DUP3 MSTORE POP POP JUMP JUMPDEST PUSH0 DUP3 DUP3 MSTORE PUSH1 0x20 DUP3 ADD SWAP1 POP SWAP3 SWAP2 POP POP JUMP JUMPDEST PUSH0 PUSH2 0x10F1 DUP3 PUSH2 0xF15 JUMP JUMPDEST PUSH2 0x10FB DUP2 DUP6 PUSH2 0x10D7 JUMP JUMPDEST SWAP4 POP PUSH2 0x110B DUP2 DUP6 PUSH1 0x20 DUP7 ADD PUSH2 0xF2F JUMP JUMPDEST PUSH2 0x1114 DUP2 PUSH2 0xF3D JUMP JUMPDEST DUP5 ADD SWAP2 POP POP SWAP3 SWAP2 POP POP JUMP JUMPDEST PUSH2 0x1128 DUP2 PUSH2 0xFA4 JUMP JUMPDEST DUP3 MSTORE POP POP JUMP JUMPDEST PUSH0 PUSH1 0x80 DUP4 ADD PUSH0 DUP4 ADD MLOAD PUSH2 0x1143 PUSH0 DUP7 ADD DUP3 PUSH2 0x10C8 JUMP JUMPDEST POP PUSH1 0x20 DUP4 ADD MLOAD DUP5 DUP3 SUB PUSH1 0x20 DUP7 ADD MSTORE PUSH2 0x115B DUP3 DUP3 PUSH2 0x10E7 JUMP JUMPDEST SWAP2 POP POP PUSH1 0x40 DUP4 ADD MLOAD PUSH2 0x1170 PUSH1 0x40 DUP7 ADD DUP3 PUSH2 0x111F JUMP JUMPDEST POP PUSH1 0x60 DUP4 ADD MLOAD PUSH2 0x1183 PUSH1 0x60 DUP7 ADD DUP3 PUSH2 0x10C8 JUMP JUMPDEST POP DUP1 SWAP2 POP POP SWAP3 SWAP2 POP POP JUMP JUMPDEST PUSH0 PUSH1 0x20 DUP3 ADD SWAP1 POP DUP2 DUP2 SUB PUSH0 DUP4 ADD MSTORE PUSH2 0x11A6 DUP2 DUP5 PUSH2 0x112E JUMP JUMPDEST SWAP1 POP SWAP3 SWAP2 POP POP JUMP JUMPDEST PUSH0 DUP2 MLOAD SWAP1 POP SWAP2 SWAP1 POP JUMP JUMPDEST PUSH0 DUP3 DUP3 MSTORE PUSH1 0x20 DUP3 ADD SWAP1 POP SWAP3 SWAP2 POP POP JUMP JUMPDEST PUSH0 DUP2 SWAP1 POP PUSH1 0x20 DUP3 ADD SWAP1 POP SWAP2 SWAP1 POP JUMP JUMPDEST PUSH0 PUSH1 0x80 DUP4 ADD PUSH0 DUP4 ADD MLOAD PUSH2 0x11EC PUSH0 DUP7 ADD DUP3 PUSH2 0x10C8 JUMP JUMPDEST POP PUSH1 0x20 DUP4 ADD MLOAD DUP5 DUP3 SUB PUSH1 0x20 DUP7 ADD MSTORE PUSH2 0x1204 DUP3 DUP3 PUSH2 0x10E7 JUMP JUMPDEST SWAP2 POP POP PUSH1 0x40 DUP4 ADD MLOAD PUSH2 0x1219 PUSH1 0x40 DUP7 ADD DUP3 PUSH2 0x111F JUMP JUMPDEST POP PUSH1 0x60 DUP4 ADD MLOAD PUSH2 0x122C PUSH1 0x60 DUP7 ADD DUP3 PUSH2 0x10C8 JUMP JUMPDEST POP DUP1 SWAP2 POP POP SWAP3 SWAP2 POP POP JUMP JUMPDEST PUSH0 PUSH2 0x1242 DUP4 DUP4 PUSH2 0x11D7 JUMP JUMPDEST SWAP1 POP SWAP3 SWAP2 POP POP JUMP JUMPDEST PUSH0 PUSH1 0x20 DUP3 ADD SWAP1 POP SWAP2 SWAP1 POP JUMP JUMPDEST PUSH0 PUSH2 0x1260 DUP3 PUSH2 0x11AE JUMP JUMPDEST PUSH2 0x126A DUP2 DUP6 PUSH2 0x11B8 JUMP JUMPDEST SWAP4 POP DUP4 PUSH1 0x20 DUP3 MUL DUP6 ADD PUSH2 0x127C DUP6 PUSH2 0x11C8 JUMP JUMPDEST DUP1 PUSH0 JUMPDEST DUP6 DUP2 LT ISZERO PUSH2 0x12B7 JUMPI DUP5 DUP5 SUB DUP10 MSTORE DUP2 MLOAD PUSH2 0x1298 DUP6 DUP3 PUSH2 0x1237 JUMP JUMPDEST SWAP5 POP PUSH2 0x12A3 DUP4 PUSH2 0x124A JUMP JUMPDEST SWAP3 POP PUSH1 0x20 DUP11 ADD SWAP10 POP POP PUSH1 0x1 DUP2 ADD SWAP1 POP PUSH2 0x127F JUMP JUMPDEST POP DUP3 SWAP8 POP DUP8 SWAP6 POP POP POP POP POP POP SWAP3 SWAP2 POP POP JUMP JUMPDEST PUSH0 PUSH1 0x20 DUP3 ADD SWAP1 POP DUP2 DUP2 SUB PUSH0 DUP4 ADD MSTORE PUSH2 0x12E1 DUP2 DUP5 PUSH2 0x1256 JUMP JUMPDEST SWAP1 POP SWAP3 SWAP2 POP POP JUMP JUMPDEST PUSH0 PUSH0 REVERT JUMPDEST PUSH0 PUSH0 REVERT JUMPDEST PUSH32 0x4E487B7100000000000000000000000000000000000000000000000000000000 PUSH0 MSTORE PUSH1 0x41 PUSH1 0x4 MSTORE PUSH1 0x24 PUSH0 REVERT JUMPDEST PUSH2 0x1327 DUP3 PUSH2 0xF3D JUMP JUMPDEST DUP2 ADD DUP2 DUP2 LT PUSH8 0xFFFFFFFFFFFFFFFF DUP3 GT OR ISZERO PUSH2 0x1346 JUMPI PUSH2 0x1345 PUSH2 0x12F1 JUMP JUMPDEST JUMPDEST DUP1 PUSH1 0x40 MSTORE POP POP POP JUMP JUMPDEST PUSH0 PUSH2 0x1358 PUSH2 0xE97 JUMP JUMPDEST SWAP1 POP PUSH2 0x1364 DUP3 DUP3 PUSH2 0x131E JUMP JUMPDEST SWAP2 SWAP1 POP JUMP JUMPDEST PUSH0 PUSH8 0xFFFFFFFFFFFFFFFF DUP3 GT ISZERO PUSH2 0x1383 JUMPI PUSH2 0x1382 PUSH2 0x12F1 JUMP JUMPDEST JUMPDEST PUSH2 0x138C DUP3 PUSH2 0xF3D JUMP JUMPDEST SWAP1 POP PUSH1 0x20 DUP2 ADD SWAP1 POP SWAP2 SWAP1 POP JUMP JUMPDEST DUP3 DUP2 DUP4 CALLDATACOPY PUSH0 DUP4 DUP4 ADD MSTORE POP POP POP JUMP JUMPDEST PUSH0 PUSH2 0x13B9 PUSH2 0x13B4 DUP5 PUSH2 0x1369 JUMP JUMPDEST PUSH2 0x134F JUMP JUMPDEST SWAP1 POP DUP3 DUP2 MSTORE PUSH1 0x20 DUP2 ADD DUP5 DUP5 DUP5 ADD GT ISZERO PUSH2 0x13D5 JUMPI PUSH2 0x13D4 PUSH2 0x12ED JUMP JUMPDEST JUMPDEST PUSH2 0x13E0 DUP5 DUP3 DUP6 PUSH2 0x1399 JUMP JUMPDEST POP SWAP4 SWAP3 POP POP POP JUMP JUMPDEST PUSH0 DUP3 PUSH1 0x1F DUP4 ADD SLT PUSH2 0x13FC JUMPI PUSH2 0x13FB PUSH2 0x12E9 JUMP JUMPDEST JUMPDEST DUP2 CALLDATALOAD PUSH2 0x140C DUP5 DUP3 PUSH1 0x20 DUP7 ADD PUSH2 0x13A7 JUMP JUMPDEST SWAP2 POP POP SWAP3 SWAP2 POP POP JUMP JUMPDEST PUSH0 PUSH0 PUSH0 PUSH1 0x60 DUP5 DUP7 SUB SLT ISZERO PUSH2 0x142C JUMPI PUSH2 0x142B PUSH2 0xEA0 JUMP JUMPDEST JUMPDEST PUSH0 PUSH2 0x1439 DUP7 DUP3 DUP8 ADD PUSH2 0xEC7 JUMP JUMPDEST SWAP4 POP POP PUSH1 0x20 DUP5 ADD CALLDATALOAD PUSH8 0xFFFFFFFFFFFFFFFF DUP2 GT ISZERO PUSH2 0x145A JUMPI PUSH2 0x1459 PUSH2 0xEA4 JUMP JUMPDEST JUMPDEST PUSH2 0x1466 DUP7 DUP3 DUP8 ADD PUSH2 0x13E8 JUMP JUMPDEST SWAP3 POP POP PUSH1 0x40 PUSH2 0x1477 DUP7 DUP3 DUP8 ADD PUSH2 0x1024 JUMP JUMPDEST SWAP2 POP POP SWAP3 POP SWAP3 POP SWAP3 JUMP JUMPDEST PUSH32 0x416C726561647920766F74656400000000000000000000000000000000000000 PUSH0 DUP3 ADD MSTORE POP JUMP JUMPDEST PUSH0 PUSH2 0x14B5 PUSH1 0xD DUP4 PUSH2 0xF1F JUMP JUMPDEST SWAP2 POP PUSH2 0x14C0 DUP3 PUSH2 0x1481 JUMP JUMPDEST PUSH1 0x20 DUP3 ADD SWAP1 POP SWAP2 SWAP1 POP JUMP JUMPDEST PUSH0 PUSH1 0x20 DUP3 ADD SWAP1 POP DUP2 DUP2 SUB PUSH0 DUP4 ADD MSTORE PUSH2 0x14E2 DUP2 PUSH2 0x14A9 JUMP JUMPDEST SWAP1 POP SWAP2 SWAP1 POP JUMP JUMPDEST PUSH32 0x4E487B7100000000000000000000000000000000000000000000000000000000 PUSH0 MSTORE PUSH1 0x32 PUSH1 0x4 MSTORE PUSH1 0x24 PUSH0 REVERT JUMPDEST PUSH32 0x4E487B7100000000000000000000000000000000000000000000000000000000 PUSH0 MSTORE PUSH1 0x11 PUSH1 0x4 MSTORE PUSH1 0x24 PUSH0 REVERT JUMPDEST PUSH0 PUSH2 0x154D DUP3 PUSH2 0xEA8 JUMP JUMPDEST SWAP2 POP PUSH32 0xFFFFFFFFFFFFFFFFFFFFFFFFFFFFFFFFFFFFFFFFFFFFFFFFFFFFFFFFFFFFFFFF DUP3 SUB PUSH2 0x157F JUMPI PUSH2 0x157E PUSH2 0x1516 JUMP JUMPDEST JUMPDEST PUSH1 0x1 DUP3 ADD SWAP1 POP SWAP2 SWAP1 POP JUMP JUMPDEST PUSH32 0x4E487B7100000000000000000000000000000000000000000000000000000000 PUSH0 MSTORE PUSH1 0x22 PUSH1 0x4 MSTORE PUSH1 0x24 PUSH0 REVERT JUMPDEST PUSH0 PUSH1 0x2 DUP3 DIV SWAP1 POP PUSH1 0x1 DUP3 AND DUP1 PUSH2 0x15CE JUMPI PUSH1 0x7F DUP3 AND SWAP2 POP JUMPDEST PUSH1 0x20 DUP3 LT DUP2 SUB PUSH2 0x15E1 JUMPI PUSH2 0x15E0 PUSH2 0x158A JUMP JUMPDEST JUMPDEST POP SWAP2 SWAP1 POP JUMP JUMPDEST PUSH32 0x4F6E6C79206F776E65722063616E2063616C6C20746869732066756E6374696F PUSH0 DUP3 ADD MSTORE PUSH32 0x6E00000000000000000000000000000000000000000000000000000000000000 PUSH1 0x20 DUP3 ADD MSTORE POP JUMP JUMPDEST PUSH0 PUSH2 0x1641 PUSH1 0x21 DUP4 PUSH2 0xF1F JUMP JUMPDEST SWAP2 POP PUSH2 0x164C DUP3 PUSH2 0x15E7 JUMP JUMPDEST PUSH1 0x40 DUP3 ADD SWAP1 POP SWAP2 SWAP1 POP JUMP JUMPDEST PUSH0 PUSH1 0x20 DUP3 ADD SWAP1 POP DUP2 DUP2 SUB PUSH0 DUP4 ADD MSTORE PUSH2 0x166E DUP2 PUSH2 0x1635 JUMP JUMPDEST SWAP1 POP SWAP2 SWAP1 POP JUMP JUMPDEST PUSH32 0x4E6F2070726F706F73616C732065786973740000000000000000000000000000 PUSH0 DUP3 ADD MSTORE POP JUMP JUMPDEST PUSH0 PUSH2 0x16A9 PUSH1 0x12 DUP4 PUSH2 0xF1F JUMP JUMPDEST SWAP2 POP PUSH2 0x16B4 DUP3 PUSH2 0x1675 JUMP JUMPDEST PUSH1 0x20 DUP3 ADD SWAP1 POP SWAP2 SWAP1 POP JUMP JUMPDEST PUSH0 PUSH1 0x20 DUP3 ADD SWAP1 POP DUP2 DUP2 SUB PUSH0 DUP4 ADD MSTORE PUSH2 0x16D6 DUP2 PUSH2 0x169D JUMP JUMPDEST SWAP1 POP SWAP2 SWAP1 POP JUMP JUMPDEST PUSH32 0x496E76616C69642070726F706F73616C20494400000000000000000000000000 PUSH0 DUP3 ADD MSTORE POP JUMP JUMPDEST PUSH0 PUSH2 0x1711 PUSH1 0x13 DUP4 PUSH2 0xF1F JUMP JUMPDEST SWAP2 POP PUSH2 0x171C DUP3 PUSH2 0x16DD JUMP JUMPDEST PUSH1 0x20 DUP3 ADD SWAP1 POP SWAP2 SWAP1 POP JUMP JUMPDEST PUSH0 PUSH1 0x20 DUP3 ADD SWAP1 POP DUP2 DUP2 SUB PUSH0 DUP4 ADD MSTORE PUSH2 0x173E DUP2 PUSH2 0x1705 JUMP JUMPDEST SWAP1 POP SWAP2 SWAP1 POP JUMP JUMPDEST PUSH0 DUP2 SWAP1 POP DUP2 PUSH0 MSTORE PUSH1 0x20 PUSH0 KECCAK256 SWAP1 POP SWAP2 SWAP1 POP JUMP JUMPDEST PUSH0 PUSH1 0x20 PUSH1 0x1F DUP4 ADD DIV SWAP1 POP SWAP2 SWAP1 POP JUMP JUMPDEST PUSH0 DUP3 DUP3 SHL SWAP1 POP SWAP3 SWAP2 POP POP JUMP JUMPDEST PUSH0 PUSH1 0x8 DUP4 MUL PUSH2 0x17A1 PUSH32 0xFFFFFFFFFFFFFFFFFFFFFFFFFFFFFFFFFFFFFFFFFFFFFFFFFFFFFFFFFFFFFFFF DUP3 PUSH2 0x1766 JUMP JUMPDEST PUSH2 0x17AB DUP7 DUP4 PUSH2 0x1766 JUMP JUMPDEST SWAP6 POP DUP1 NOT DUP5 AND SWAP4 POP DUP1 DUP7 AND DUP5 OR SWAP3 POP POP POP SWAP4 SWAP3 POP POP POP JUMP JUMPDEST PUSH0 DUP2 SWAP1 POP SWAP2 SWAP1 POP JUMP JUMPDEST PUSH0 PUSH2 0x17E6 PUSH2 0x17E1 PUSH2 0x17DC DUP5 PUSH2 0xEA8 JUMP JUMPDEST PUSH2 0x17C3 JUMP JUMPDEST PUSH2 0xEA8 JUMP JUMPDEST SWAP1 POP SWAP2 SWAP1 POP JUMP JUMPDEST PUSH0 DUP2 SWAP1 POP SWAP2 SWAP1 POP JUMP JUMPDEST PUSH2 0x17FF DUP4 PUSH2 0x17CC JUMP JUMPDEST PUSH2 0x1813 PUSH2 0x180B DUP3 PUSH2 0x17ED JUMP JUMPDEST DUP5 DUP5 SLOAD PUSH2 0x1772 JUMP JUMPDEST DUP3 SSTORE POP POP POP POP JUMP JUMPDEST PUSH0 PUSH0 SWAP1 POP SWAP1 JUMP JUMPDEST PUSH2 0x182A PUSH2 0x181B JUMP JUMPDEST PUSH2 0x1835 DUP2 DUP5 DUP5 PUSH2 0x17F6 JUMP JUMPDEST POP POP POP JUMP JUMPDEST PUSH0 JUMPDEST DUP3 DUP2 LT ISZERO PUSH2 0x185B JUMPI PUSH2 0x1850 PUSH0 DUP3 DUP5 ADD PUSH2 0x1822 JUMP JUMPDEST PUSH1 0x1 DUP2 ADD SWAP1 POP PUSH2 0x183C JUMP JUMPDEST POP POP POP JUMP JUMPDEST PUSH1 0x1F DUP3 GT ISZERO PUSH2 0x18AE JUMPI DUP3 DUP3 GT ISZERO PUSH2 0x18AD JUMPI PUSH2 0x187A DUP2 PUSH2 0x1745 JUMP JUMPDEST PUSH2 0x1883 DUP4 PUSH2 0x1757 JUMP JUMPDEST PUSH2 0x188C DUP6 PUSH2 0x1757 JUMP JUMPDEST PUSH1 0x20 DUP7 LT ISZERO PUSH2 0x1899 JUMPI PUSH0 SWAP1 POP JUMPDEST DUP1 DUP4 ADD PUSH2 0x18A8 DUP3 DUP5 SUB DUP3 PUSH2 0x183A JUMP JUMPDEST POP POP POP POP JUMPDEST JUMPDEST POP POP POP JUMP JUMPDEST PUSH0 DUP3 DUP3 SHR SWAP1 POP SWAP3 SWAP2 POP POP JUMP JUMPDEST PUSH0 PUSH2 0x18CE PUSH0 NOT DUP5 PUSH1 0x8 MUL PUSH2 0x18B3 JUMP JUMPDEST NOT DUP1 DUP4 AND SWAP2 POP POP SWAP3 SWAP2 POP POP JUMP JUMPDEST PUSH0 PUSH2 0x18E6 DUP4 DUP4 PUSH2 0x18BF JUMP JUMPDEST SWAP2 POP DUP3 PUSH1 0x2 MUL DUP3 OR SWAP1 POP SWAP3 SWAP2 POP POP JUMP JUMPDEST PUSH2 0x18FF DUP3 PUSH2 0xF15 JUMP JUMPDEST PUSH8 0xFFFFFFFFFFFFFFFF DUP2 GT ISZERO PUSH2 0x1918 JUMPI PUSH2 0x1917 PUSH2 0x12F1 JUMP JUMPDEST JUMPDEST PUSH2 0x1922 DUP3 SLOAD PUSH2 0x15B7 JUMP JUMPDEST PUSH2 0x192D DUP3 DUP3 DUP6 PUSH2 0x1860 JUMP JUMPDEST PUSH0 PUSH1 0x20 SWAP1 POP PUSH1 0x1F DUP4 GT PUSH1 0x1 DUP2 EQ PUSH2 0x195E JUMPI PUSH0 DUP5 ISZERO PUSH2 0x194C JUMPI DUP3 DUP8 ADD MLOAD SWAP1 POP JUMPDEST PUSH2 0x1956 DUP6 DUP3 PUSH2 0x18DB JUMP JUMPDEST DUP7 SSTORE POP PUSH2 0x19BD JUMP JUMPDEST PUSH1 0x1F NOT DUP5 AND PUSH2 0x196C DUP7 PUSH2 0x1745 JUMP JUMPDEST PUSH0 JUMPDEST DUP3 DUP2 LT ISZERO PUSH2 0x1993 JUMPI DUP5 DUP10 ADD MLOAD DUP3 SSTORE PUSH1 0x1 DUP3 ADD SWAP2 POP PUSH1 0x20 DUP6 ADD SWAP5 POP PUSH1 0x20 DUP2 ADD SWAP1 POP PUSH2 0x196E JUMP JUMPDEST DUP7 DUP4 LT ISZERO PUSH2 0x19B0 JUMPI DUP5 DUP10 ADD MLOAD PUSH2 0x19AC PUSH1 0x1F DUP10 AND DUP3 PUSH2 0x18BF JUMP JUMPDEST DUP4 SSTORE POP JUMPDEST PUSH1 0x1 PUSH1 0x2 DUP9 MUL ADD DUP9 SSTORE POP POP POP JUMPDEST POP POP POP POP POP POP JUMP INVALID LOG2 PUSH5 0x6970667358 0x22 SLT KECCAK256 STOP BLOCKHASH 0xD2 GASPRICE 0x1F 0xAD MLOAD EXTCODEHASH BALANCE SWAPN 0xF CALLVALUE PUSH5 0x1CDF823955 RJUMPI 0x7E2F 0xEF PUSH6 0x321E3F8F08E5 RETF ADD 0xB6 PUSH5 0x736F6C6343 STOP ADDMOD 0x23 STOP CALLER "
		},
		"gasEstimates": {
			"creation": {
				"codeDepositCost": "1330200",
				"executionCost": "25646",
				"totalCost": "1355846"
			},
			"external": {
				"CanVoted(address)": "2878",
				"addProposal(uint256,string,address)": "infinite",
				"closeVoting()": "2659",
				"getAllProposals()": "infinite",
				"getProposal(uint256)": "infinite",
				"getVotes(uint256)": "infinite",
				"getWinner()": "infinite",
				"numofProposal(address)": "2869",
				"owner()": "2619",
				"proposalCount()": "infinite",
				"proposals(uint256)": "infinite",
				"resetVoting()": "infinite",
				"vote(uint256)": "infinite"
			}
		},
		"methodIdentifiers": {
			"CanVoted(address)": "5a4e7b72",
			"addProposal(uint256,string,address)": "fad35844",
			"closeVoting()": "c631b292",
			"getAllProposals()": "cceb68f5",
			"getProposal(uint256)": "c7f758a8",
			"getVotes(uint256)": "ff981099",
			"getWinner()": "8e7ea5b2",
			"numofProposal(address)": "7d9d4255",
			"owner()": "8da5cb5b",
			"proposalCount()": "da35c664",
			"proposals(uint256)": "013cf08b",
			"resetVoting()": "856e698c",
			"vote(uint256)": "0121b93f"
		}
	},
	"abi": [
		{
			"inputs": [],
			"stateMutability": "nonpayable",
			"type": "constructor"
		},
		{
			"inputs": [
				{
					"internalType": "address",
					"name": "",
					"type": "address"
				}
			],
			"name": "CanVoted",
			"outputs": [
				{
					"internalType": "bool",
					"name": "",
					"type": "bool"
				}
			],
			"stateMutability": "view",
			"type": "function"
		},
		{
			"inputs": [
				{
					"internalType": "uint256",
					"name": "_id",
					"type": "uint256"
				},
				{
					"internalType": "string",
					"name": "_name",
					"type": "string"
				},
				{
					"internalType": "address",
					"name": "_proposer",
					"type": "address"
				}
			],
			"name": "addProposal",
			"outputs": [],
			"stateMutability": "nonpayable",
			"type": "function"
		},
		{
			"inputs": [],
			"name": "closeVoting",
			"outputs": [],
			"stateMutability": "view",
			"type": "function"
		},
		{
			"inputs": [],
			"name": "getAllProposals",
			"outputs": [
				{
					"components": [
						{
							"internalType": "uint256",
							"name": "id",
							"type": "uint256"
						},
						{
							"internalType": "string",
							"name": "name",
							"type": "string"
						},
						{
							"internalType": "address",
							"name": "proposer",
							"type": "address"
						},
						{
							"internalType": "uint256",
							"name": "voteCount",
							"type": "uint256"
						}
					],
					"internalType": "struct Voting.Proposal[]",
					"name": "",
					"type": "tuple[]"
				}
			],
			"stateMutability": "view",
			"type": "function"
		},
		{
			"inputs": [
				{
					"internalType": "uint256",
					"name": "proposalId",
					"type": "uint256"
				}
			],
			"name": "getProposal",
			"outputs": [
				{
					"components": [
						{
							"internalType": "uint256",
							"name": "id",
							"type": "uint256"
						},
						{
							"internalType": "string",
							"name": "name",
							"type": "string"
						},
						{
							"internalType": "address",
							"name": "proposer",
							"type": "address"
						},
						{
							"internalType": "uint256",
							"name": "voteCount",
							"type": "uint256"
						}
					],
					"internalType": "struct Voting.Proposal",
					"name": "",
					"type": "tuple"
				}
			],
			"stateMutability": "view",
			"type": "function"
		},
		{
			"inputs": [
				{
					"internalType": "uint256",
					"name": "proposalId",
					"type": "uint256"
				}
			],
			"name": "getVotes",
			"outputs": [
				{
					"internalType": "uint256",
					"name": "",
					"type": "uint256"
				}
			],
			"stateMutability": "view",
			"type": "function"
		},
		{
			"inputs": [],
			"name": "getWinner",
			"outputs": [
				{
					"components": [
						{
							"internalType": "uint256",
							"name": "id",
							"type": "uint256"
						},
						{
							"internalType": "string",
							"name": "name",
							"type": "string"
						},
						{
							"internalType": "address",
							"name": "proposer",
							"type": "address"
						},
						{
							"internalType": "uint256",
							"name": "voteCount",
							"type": "uint256"
						}
					],
					"internalType": "struct Voting.Proposal",
					"name": "",
					"type": "tuple"
				}
			],
			"stateMutability": "view",
			"type": "function"
		},
		{
			"inputs": [
				{
					"internalType": "address",
					"name": "",
					"type": "address"
				}
			],
			"name": "numofProposal",
			"outputs": [
				{
					"internalType": "uint256",
					"name": "",
					"type": "uint256"
				}
			],
			"stateMutability": "view",
			"type": "function"
		},
		{
			"inputs": [],
			"name": "owner",
			"outputs": [
				{
					"internalType": "address",
					"name": "",
					"type": "address"
				}
			],
			"stateMutability": "view",
			"type": "function"
		},
		{
			"inputs": [],
			"name": "proposalCount",
			"outputs": [],
			"stateMutability": "nonpayable",
			"type": "function"
		},
		{
			"inputs": [
				{
					"internalType": "uint256",
					"name": "",
					"type": "uint256"
				}
			],
			"name": "proposals",
			"outputs": [
				{
					"internalType": "uint256",
					"name": "id",
					"type": "uint256"
				},
				{
					"internalType": "string",
					"name": "name",
					"type": "string"
				},
				{
					"internalType": "address",
					"name": "proposer",
					"type": "address"
				},
				{
					"internalType": "uint256",
					"name": "voteCount",
					"type": "uint256"
				}
			],
			"stateMutability": "view",
			"type": "function"
		},
		{
			"inputs": [],
			"name": "resetVoting",
			"outputs": [],
			"stateMutability": "nonpayable",
			"type": "function"
		},
		{
			"inputs": [
				{
					"internalType": "uint256",
					"name": "proposalId",
					"type": "uint256"
				}
			],
			"name": "vote",
			"outputs": [],
			"stateMutability": "nonpayable",
			"type": "function"
		}
	]
}